:020000040800F2
:1000000008E40020ED7F0008BD020008BF020008E0
:10001000C1020008C3020008C50200080000000079
:100020000000000000000000000000003580000813
:100030003580000800000000358000083503000806
:1000400035800008358000083580000835800008BC
:1000500035800008358000083580000835800008AC
:10006000358000083580000835800008358000089C
:10007000358000083580000835800008358000088C
:10008000358000083580000835800008358000087C
:10009000358000083580000835800008358000086C
:1000A000358000083580000835800008358000085C
:1000B000358000083580000835800008358000084C
:1000C000358000083580000835800008358000083C
:1000D000358000083580000835800008358000082C
:1000E000358000083580000835800008358000081C
:1000F000358000083580000835800008358000080C
:1001000035800008358000083580000835800008FB
:1001100035800008358000083580000835800008EB
:1001200035800008358000083580000835800008DB
:1001300035800008C90200083580000835800008B5
:1001400035800008358000083580000835800008BB
:1001500035800008358000083580000835800008AB
:10016000358000083580000835800008358000089B
:100170003580000835800008358000080000000048
:080180003580000835800008FD
:1001900001F0FF01102A2BDB10F0070F08D010F838
:1001A000013B013A8B422DD010F0070F42B3F6D13C
:1001B000F0B441EA012141EA014122F007047FF055
:1001C00000070023F0E80256083C85EA010586EAAC
:1001D000010685FA47F5A3FA87F586FA47F6A5FAE8
:1001E00087F68EB9EED1F0BC01F0FF0102F00702F4
:1001F00032B110F8013B013A83EA010313B1F8D19F
:100200000020704701387047002D06BF354603387F
:10021000073815F0010F07D1013015F4807F02BFB8
:10022000013015F4C03F0130F0BC0138704700BF09
:100230000348044B834202D0034B03B11847704775
:100240007000002070000020000000000548064BF0
:100250001B1AD90F01EBA301491002D0034B03B1C4
:100260001847704770000020700000200000000058
:1002700010B5064C237843B9FFF7DAFF044B13B1EE
:100280000448AFF300800123237010BD70000020EC
:1002900000000000BC8E000808B5054B1BB10549E5
:1002A0000548AFF30080BDE80840FFF7CFBF00BFAF
:1002B0000000000074000020BC8E00087047FEE7BC
:1002C000FEE7FEE7FEE7000010B5084800F035FB4A
:1002D000074800F032FB00E03CB100F017FE044696
:1002E0000128F9D907F062FDF6E710BD0605040004
:1002F000100504000C4B1B680C4AA2FB03235B098E
:10030000013BB3F1807F0DD24FF0E0225361084BE7
:10031000F02183F82310002090610720106183F8FA
:1003200023107047FEE700BF040000201F85EB513B
:1003300000ED00E008B5034A13680133136007F0CD
:100340001FFA08BD8C000020014B1868704700BFE1
:100350008C00002008B54FF4A06000F0B1FE002131
:100360004FF0006000F00EFFFFF7C4FF08BD000073
:10037000104B1B68104AA2FB032C4FEA9C4C00FB5D
:100380000CFC4FF0E0239B69002107E04FF0E020D8
:100390004069C01A02441144614509D21A464FF01F
:1003A000E0239B699A42FAD0F0D9D21A1144F3E7BC
:1003B000704700BF0400002083DE1B4308B54FF4E4
:1003C0007A7303FB00F0FFF7D3FF08BD08B5FFF712
:1003D000C1FF07F0E9FD07F037FD07F051FCFFF71B
:1003E000B3FF07F0EBFCFAE70346094A1068034441
:1003F000084A934205D3084A934205D8044A136039
:1004000070474FF0FF3070474FF0FF30704700BF2C
:100410000000002008D8002008DC002070B50C4641
:100420001646002504E014F8010B07F0D7FD01354E
:10043000B542F8DB304670BD4FF0FF3070474FF4E7
:1004400000534B6000207047012070470020704728
:1004500070B50C461646002506E0AFF30080214635
:1004600001F8010B01350C46B542F6DB304670BD94
:10047000394AD2F8003843F48033C2F800380023F8
:1004800000E00B46344AD2F8002812F4003F04D1B1
:10049000591C4FF6FF729342F3D12F4BD3F800381B
:1004A00013F4003F05D12C4BD3F8003813F4003F70
:1004B000F9D0294BD3F8402842F08052C3F84028A5
:1004C00026490A6842F440420A60D3F80828C3F873
:1004D0000828D3F8082842F40042C3F80828D3F8C3
:1004E000082842F4A052C3F808281D4AC3F804287B
:1004F000D3F8002842F08072C3F80028164BD3F8D6
:10050000003813F0007FF9D0144A136843F48033A5
:100510001360124B5B6813F4803FFAD00F4A1368E4
:1005200043F4003313600D4B5B6813F4003FFAD0C3
:10053000094BD3F8082822F00302C3F80828D3F89F
:10054000082842F00202C3F80828034BD3F8083801
:1005500013F0080FF9D070470030024000700040DF
:100560000854400708B5FFF783FF08BD00B583B006
:100570002B4AD2F8883043F47003C2F88830294AF5
:10058000D2F8003843F00103C2F80038254BD3F805
:10059000003813F0020FF9D0224AD2F8083843F09D
:1005A0008003C2F808380023019302E0019B013365
:1005B0000193019B4F2BF9D91A4AD2F8083843F01E
:1005C0009003C2F808380023019302E0019B013335
:1005D0000193019B4F2BF9D9124BD3F8082822F035
:1005E0000302C3F80828D3F8002822F0847222F40A
:1005F0008032C3F80028D3F8002822F48022C3F800
:1006000000280022C3F80828D3F808180649C3F8C0
:100610000418C3F80C28FFF7A5FF03B05DF804FB2E
:1006200000ED00E000300240103000240E4B19684D
:100630000E4A0A401A60002159609960D9609A698F
:1006400022F0BE021204120C42F080029A61D961BB
:10065000074A9169074B0B4043F008739361136895
:10066000054B1360704700BF008002400F8130FDD2
:1006700000900240233FDEF80060C10282B00023F8
:100680000193019002E0019B013B0193019B002B30
:10069000F9D102B0704700000B4A136843F0010320
:1006A00013600023084A1268013312F0010F02D0D0
:1006B000064A9342F6D1044B1B6813F0010F01D098
:1006C000002070470120704700900240FFFF0400A7
:1006D00070B4B0F5E00F0FD01848194BD860194B23
:1006E0001860194E44F2F4554FF000440023174AA5
:1006F0001360174A13600BE01648114B1861164B34
:100700001860164E00254FF48014EFE7C8600133DF
:10071000042B10D81A0100EB031184504D6040F2F5
:10072000F45202FB03628A60032BEFD85A1C00EBE1
:100730000212CA60EBE770BC704700BFB43C0020F7
:1007400000900240D4000020A01E0020CC00002019
:10075000D0000020643C0020D8000020DC000020F5
:100760002C4B1B681B68002B4CDB10B4E8B103F466
:100770000342B2F5407F47D1C3F30D42A2F1040C0E
:10078000254C246814F0007F03D013F0200F00D014
:1007900094468C453CD8002305E01E4A12689268B6
:1007A000D25CC25401336345F7D31A4B1B684FF038
:1007B00000421A60194B5B6913F0800F04D0174B8D
:1007C00080225A6100229A60124B1B685A6812F408
:1007D000804F04D0DA680F4B1A60012015E012F444
:1007E000004F05D00D4BDA680A4B1A6001200CE06F
:1007F0000A4A1268C2F3840213441033054A136094
:10080000012002E00020704700205DF8044B704793
:100810000020FAE7D400002000800240009002404F
:10082000284B1B681B68002B48DB40F2F4539942AD
:1008300046D858B1002307E0224A1268926810F89F
:1008400003C002F803C001338B42F5D31D4803688F
:1008500059601A6842F040521A600268136843F007
:1008600000431360184A5369526902F0200213F0E2
:10087000040300D122B11343134A53610023536090
:10088000104B1B681A6812F4801F04D0DA680D4BF5
:100890001A600120704712F4001F05D00A4B1A6934
:1008A000084B1A6001207047074A1268C2F384029D
:1008B00013441033034A136001207047002070472F
:1008C00000207047D8000020009002404A790B7940
:1008D00043EA0223074A8350CA788B781B0443EA11
:1008E00002634A7843EA02230A781343024A835098
:1008F000704700BF4080024044800240830941F2BB
:100900001C02B2EB901F0CD003F1804303F520339F
:100910001A6800F01F000121814022EA01021A60DA
:10092000704703F1804303F520331A6800F01F007D
:10093000012181400A431A60704700F01F028009BC
:1009400000F1804000F520300123934003607047A0
:10095000054A136843F00403136002F5805293695B
:1009600043F00203936170470080024010B40446D4
:100970001848006920F47F4020F0C300920102F47F
:10098000F8622243C90289B20A43024342F00102DB
:10099000022C18D00F490A6100220E490969013260
:1009A00011F0010F02D00C498A42F6D1094A1269AE
:1009B00012F0010F0BD0002014B9064A52691A80B8
:1009C0005DF8044B7047188802494861E2E701204E
:1009D000F2E700BF00800240FFFF040010B582B0C4
:1009E000284B1C6924F01C04012000F00BFC264B52
:1009F0000344264A934211D244F00804214B1C615F
:100A00004FF40043ADF806300DF10603002201213A
:100A10000220FFF7ABFFF0B902B010BD1C4B03443E
:100A20001C4A934202D844F00C04E7E71A4B0344F3
:100A30001A4A9342E2D31A4B03441A4A934202D809
:100A400044F00404DAE7184B0344184A934216D8DA
:100A500044F01004D2E71648FFF710FE0DF106032C
:100A6000002201211046FFF781FF0028D4D0BDF9F4
:100A70000630002B01DB0120CEE70020CCE7002070
:100A8000CAE700BF0080024000D3CEFEC0E1E40010
:100A900040F1E9FD3F787D0100796CFC005A62026B
:100AA000001F0AFA7FF0FA02802E0FF7804A5D05D8
:100AB000FFFF040070B582B004460D4616460023C1
:100AC000ADF80630FFF78AFF38B93248FFF7D6FD98
:100AD000FFF784FF002800F06581FFF7A7FD012CD8
:100AE00060D100240DF10603012211460020FFF71A
:100AF0003DFFBDF8063003F00403ADF806300134C5
:100B000013B9254B9C42EDD9244B9C4200F0458102
:100B10004FF48053ADF806300DF106030022012199
:100B20000220FFF723FF002800F03C8100240DF194
:100B30000603012211460020FFF718FFBDF806301A
:100B400003F02003ADF80630013413B9124B9C4278
:100B5000EDD9124B9C4200F022810DF106031E22BA
:100B600001210020FFF702FFBDF8062012F0040F5C
:100B70000DD04FF4006312F0010F01D143F4804314
:100B800007490A6822F4B04213430B600CE00023CB
:100B9000F1E700BFFFFF8F00FEFF0400FFFF04002E
:100BA0000080024006F06EFF15F4806F0DD07E4A83
:100BB000136843F48063136002F58052936923F055
:100BC000806305F080651D439561774A5368334320
:100BD0005360764B1B6813F0010F15D0734B5B68A5
:100BE0001146126822F0007222F08002704818400C
:100BF00002430A6001F580518A6922F0C0029B0815
:100C000003F0C00313438B61684B1B6813F0020FA2
:100C100009D0664B9A6867490B6823F0E06323F4B8
:100C2000803313430B60614B1B6813F0040F09D032
:100C30005E4BDA685F490B6823F47E0323F47C5330
:100C400013430B60594B1B6813F0080F09D0574B27
:100C50001A6958490B6823F4404323F002031343F5
:100C60000B60524B1B6813F0100F07D04F4B5B69A2
:100C700050498869504A024013438B614B4B1B68B3
:100C800013F0200F12D0494B99694A4A936923F017
:100C9000807323F0040349480840034393611368B9
:100CA00023F0800301F080010B4313603F4B1B686E
:100CB00013F0400F07D03D4BDB693B49CA696FF326
:100CC00010021343CB61394B1B6813F0800F18D00F
:100CD000364B1B6A3448826922F0BE021204120CA1
:100CE00023F47F4121F041010A4382613149D1F867
:100CF000802022F077021B0A03F077031343C1F828
:100D000080302A4B1B6813F4807F03D0274B5A6A2C
:100D1000254B9A60254B1B6813F4007F03D0234BAF
:100D20009A6A214BDA60214B1B6813F4806F09D05B
:100D30001E4BDA6A1C494B6823F4FB6323F006035D
:100D400013434B60194B1B6813F4006F09D0174B0A
:100D50001A6B15490B6823F4913323F07003134386
:100D60000B60124B1B6813F4805F07D00F4B5B6B5B
:100D70000D490A6822F4400213430B600B4B1B68B9
:100D800013F4005F0DD0094B9B6B07490A6822F4EE
:100D9000602213430B60012004E0002002E00020E9
:100DA00000E0012002B070BD0080024090000020F1
:100DB0008000000200900240E73FDEFD04000001D9
:100DC000094A936943F4801393610022064B9B699F
:100DD000013213F4801302D004498A42F6D90BB1D0
:100DE000002070470120704700900240FEFF040081
:100DF00008B5064A136843F008031360FFF7E0FFE5
:100E0000034A936943F40053936108BD0080024094
:100E10000090024008B5FFF7EBFFFFF799FD08BD12
:100E2000052923D8DFE801F01E1C0B03071A4068D0
:100E3000C0F30C007047C088C0F30C007047026814
:100E4000C2F30D43042B14D9181F0C49096811F083
:100E5000007F11D012F0200F0DD1704780687047CD
:100E6000806870470068C0F3C30070474FF0FF30E0
:100E70007047002070471846704700BF008002404E
:100E8000436823F000434360704700001C4B1A681E
:100E90004FF0004111601A68536813F4804F12D06C
:100EA000184B1B685BB1D968154A11601A6812B1FA
:100EB000144B1A6070471033124A13607047D2689F
:100EC0000F4B1A60704713F4004F0AD00E4BDA68CC
:100ED0000B4B1A600B4B1B688BB11A68094B1A60DD
:100EE0007047094B1B68C3F3840313441033044A4F
:100EF0001360044B1B6813B11033024A1360704730
:100F0000D4000020CC0000200090024008B5124B15
:100F10001B681B68002B1DDB03F40342B2F5407F06
:100F200010D103F02102212A10D0C3F30D42101F6B
:100F30000A49096811F0007F0DD013F0200F0AD084
:100F4000104608E0FFF7A2FF012004E0FFF79EFF34
:100F5000012000E0002008BDD400002000800240F5
:100F6000084B00221A605A609A60DA601A615A616E
:100F70009A61DA611A625A629A62DA621A635A6391
:100F80009A6370479000002008B540F2194000F0C5
:100F900012F940F2194000F01BF9FFF7E1FF08BD1C
:100FA000F0B50568C6684FF0000C03E00CF1010CC9
:100FB0001FFA8CFCBCF10F0F18D84FF0010E0EFA7F
:100FC0000CFE1EEA030FF1D04FEA4C044FF0030E63
:100FD0000EFA04FE25EA0E0501FA04F73D4326EA5F
:100FE0000E0E02FA04F444EA0E06DFE70560C6605E
:100FF000F0BD10B5012906D0416821EA0301416026
:101000008468002105E0416819434160F8E7013137
:1010100089B20F2913D84FF0010C0CFA01FC1CEA1D
:10102000030FF4D04FEA410C4FF0030E0EFA0CFE02
:1010300024EA0E0402FA0CFC4CEA0404E7E784609C
:1010400010BD8162704730B5046A456A002301E033
:1010500001339BB2072B13D84FF0010C0CFA03FCA1
:101060001CEA020FF4D04FEA830E4FF00F0C0CFA7B
:101070000EFC24EA0C0401FA0EFE4EEA0404E7E733
:10108000082301E001339BB20F2B15D84FF0010C60
:101090000CFA03FC1CEA020FF4D0A3F1080C4FEA8F
:1010A0008C0C4FF00F0E0EFA0CFE25EA0E0501FA1D
:1010B0000CFC4CEA0505E5E70462456230BD000022
:1010C00040F0BF6040F40030014BD860704700BF73
:1010D00000ED00E070B505460E461446274BDB6870
:1010E00003F4E063B3F5E06F25D0244BDB6803F431
:1010F000E063B3F5C06F38D0204BDB6803F4E063E6
:10110000B3F5A06F34D01D4BDB6803F4E063B3F597
:10111000806F30D0194BDB6803F4E063B3F5407F98
:1011200002D10023042208E04FF4A060FFF7C8FFBB
:1011300002231A4601E004230022C2F10402964071
:10114000C3F104030F2222FA03F31C4034432401A9
:10115000E4B20B4A531983F8004305F01F016D09EF
:1011600001238B4042F8253070BD03230122E4E7C0
:1011700002231A46E1E701230322DEE700ED00E047
:1011800000E100E021F0604121F07F010143024BCA
:101190009960BFF34F8F704700ED00E0830903F1C2
:1011A000804303F50E331A6800F01F0001218140CF
:1011B0000A431A607047830903F1804303F50E3335
:1011C0001A6800F01F00012181400A431A6070472D
:1011D000830903F1804303F50E331A6800F01F0002
:1011E0000121814022EA01021A607047044AD2F8C4
:1011F000083823F0EC6303430B43C2F80838704708
:101200000030024010B588B08446344C94E80F009A
:101210000DF1200E0EE90F0002AB103494E803002C
:1012200083E80300CDE900012D4BD3F80838C3F360
:101230008103012B1FD0022B44D1294AD2F8044844
:1012400004F03F04D2F80418C1F38811D2F804382E
:10125000C3F3014301335B00D2F8042812F4800F7A
:1012600007D02048B0FBF4F001FB00F0B0FBF3F036
:1012700002E01D48F6E71B481949D1F80838C3F3C6
:10128000031320336B4413F8102C20FA02F2D1F828
:101290000838C3F3822320336B4413F8183C22FA36
:1012A00003F4D1F80838C3F3423320336B4413F806
:1012B000203C22FA03F3BCF1030F05D8DFE80CF061
:1012C0000706090B0848D7E7002000E0104608B0E1
:1012D00010BD2046FBE71846F9E700BFD48E000892
:1012E0000030024000127A000024F400044AD2F8D0
:1012F000043823F400030343C2F80438704700BFE6
:101300000030014008B5334B98425AD021D8A3F59C
:10131000305398424CD010D8A3F50063984235D092
:1013200003F58063984230D140F61200FFF743FF87
:1013300040F61200FFF74CFF27E0274B984224D1DC
:1013400040F61400FFF737FF40F61400FFF740FFA8
:101350001BE0224B984210D003F5806398421ED0C8
:10136000A3F51843984210D140F61F00FFF723FF62
:1013700040F61F00FFF72CFF07E040F60410FFF7D0
:101380001AFF40F60410FFF723FF08BD40F61100D6
:10139000FFF711FF40F61100FFF71AFFF5E740F6DF
:1013A0000510FFF708FF40F60510FFF711FFECE707
:1013B00040F61300FFF7FFFE40F61300FFF708FFAB
:1013C000E3E740F61E00FFF7F6FE40F61E00FFF7CB
:1013D000FFFEDAE7007800400050004000100140B6
:1013E00038B504460D462E4B98424DD01BD8A3F578
:1013F0003053984244D00DD8A3F5006398423BD0B7
:1014000003F58063984203D10220FFF7FBFE1EE044
:1014100000201CE0234B984203D10220FFF7F2FE8C
:1014200015E0002013E0204B98420DD003F58063B7
:1014300098421DD0A3F51843984203D10220FFF72C
:10144000E1FE04E0002002E00320FFF7DBFEE3689A
:1014500013F4004F1CD06B0803EB4003B3FBF5F310
:101460004FF6F0721A40C3F342031343A36038BD32
:101470000320FFF7C7FEEAE70220FFF7C3FEE6E717
:101480000220FFF7BFFEE2E70220FFF7BBFEDEE728
:1014900000EB5500B0FBF5F080B2A060E7E700BFBD
:1014A000007800400050004000100140C36843F441
:1014B0000053C3607047C36823F008030B43C36045
:1014C0007047C36823F004030B43C3607047C1F344
:1014D0000801416070478B091B5801F01F01CB4088
:1014E00013F0010F01D00120704700207047000069
:1014F000F8B5134D02212868FFF792FC84B205214C
:101500002868FFF78DFC06464FF4C1722146002083
:1015100003F03CF8074660B10446002507E0628905
:101520007119606806F027FF63891D442468002C48
:10153000F5D100210846FFF713F93846F8BD00BF82
:10154000D400002070B50C460D4B18680368002BC2
:10155000FADB0121FFF764FC0646002507E06289FB
:101560006168701906F007FF63891D442468002C28
:10157000F5D129460020FFF753F9002070BD00BFC8
:10158000D800002038B50446062380F83030022207
:1015900080F82A200A2280F82B200F2280F82C20A5
:1015A0000E2580F82D500D2280F82E2080F82F3047
:1015B00000F12A010020FFF789F940F2DC5323856E
:1015C00084F831504FF4E000FFF782F84FF46020C8
:1015D000FFF77EF8002405E0054800EB0410FFF754
:1015E0004FFC0134042CF7D9FFF714FC38BD00BFC1
:1015F000B43C002038B50446FFF77AFF58B10546E1
:10160000236921469847044608B9204638BD284634
:1016100002F08FFFF9E74FF0FF34F6E708B54722F5
:1016200080F83220442280F83320044A4261044A80
:101630008261FFF7A7FF002008BD00BFD92F000877
:1016400045150008030243EA102080B270470302E8
:1016500003F47F0343EA0063020A02F47F42134368
:1016600043EA1060704710B44FF0000C10F0010412
:1016700006D0614504DD10F8013B63F31F2C0139EE
:10168000002303E030F8022B134402390129F9DC6E
:10169000002902DD027862F3070C63449AB202EB80
:1016A000134398B200EB134024B103029BB2C0F382
:1016B0000720184380B25DF8044B70472DE9F843CA
:1016C0000546894690461C46002700E02D689DB1DE
:1016D0006E8931466868FFF7C6FF204484B204EB88
:1016E000104416F0010FF1D087F0010723029BB2DE
:1016F000C4F307241C43E9E727B123029BB2C4F3D8
:1017000007241C434846FFF79DFF04444046FFF76B
:1017100099FF204483B203EB104398B200EB1340CF
:10172000C04380B2BDE8F88308B51B684FEA134C8C
:101730001CFA83FC029B1B681CFA83FC0CEB134C09
:101740001FFA8CF303EB1C431FFA83FC0CEB1343CF
:10175000FFF7B4FF08BD10B582B0049C0094FFF7FA
:10176000E3FF02B010BD08B5FFF77DFFC04380B2B4
:1017700008BDF8B5054600273C4600E02D689DB140
:101780006E8931466868FFF76EFF03199CB204EB5F
:10179000134416F0010FF1D087F0010723029BB22A
:1017A000C4F307241C43E9E727B123029BB2C4F327
:1017B00007241C43E04380B2F8BD08B502F068FB83
:1017C00002F0B0FC02F037FD05F0EEFC03F00CF97E
:1017D00005F078FC08BD43798B4203D041710023AA
:1017E00083710381704700F1010C1FFA8CFC0A54CD
:1017F000023001F80C3080B27047431C0A5498B292
:101800007047431C9BB24FEA122C01F800C0023013
:10181000CA5480B2704700B5431C9BB24FEA126CA9
:1018200001F800C000F1020C1FFA8CFCC2F3074E55
:1018300001F803E0C31C9BB2C2F3072E01F80CE0D1
:101840000430CA5480B25DF804FB00002DE9F8436F
:101850008046002840D0894615461E46002940D0C3
:101860004FF420724FF49A71362002F08FFE074633
:10187000002863D0032D39D099F806301BB9314ABE
:101880001368013313602F4B1B68C9F800307C6864
:101890004FF49A720021204606F0F8FC01232370D1
:1018A000637098F83030A370D9F80000FFF7CFFECE
:1018B0006060082D0BD0042D09D0072D07D0032D13
:1018C00008D199F80530043BDBB2012B02D8D8F8D7
:1018D0000430E360002016E01B4806F071FC474628
:1018E0002CE01A4806F06CFC4F4627E099F80530CA
:1018F000032BCCD1C0E708EB000393F82A30211862
:101900000B77013080B20528F5D9632384F8EC30D9
:101910006FF07D0284F8ED20532284F8EE2084F8E5
:10192000EF30F0340123352221460020FFF75BFF22
:101930002A462146FFF761FF06B130803846BDE8F0
:10194000F88300BF08000020EC8E0008108F00080C
:1019500010B5446A0023236263621A4BDB7813B12B
:10196000194BDB68A362174B1B799BB1164B1B69A4
:10197000E362144B5B798BB1134B5B6923630B6997
:10198000E361104B9B797BB90023E3710D4BDB794D
:1019900093B910BDA36A5B08E362EAE7A36AC3EBED
:1019A000C303DB082363EAE7074B9869FFF74FFEA1
:1019B00020620123E371E9E7034BD869FFF747FE93
:1019C0006062E6E7243D00202C3D002008B58446F7
:1019D00010460CF101039BB2FF2201F80C2007E036
:1019E00003F1010C4FF0000E01F803E01FFA8CF335
:1019F000432BF5D903F1F00189B202F04BFE08BD8B
:101A00002DE9F04184B00746456A04212846FFF7D6
:101A1000E2FE0DF10E03032229463846FFF716FFBA
:101A2000002848D080464668F036022339223146E5
:101A3000BDF80E00FFF7D7FEADF80E003A8D314627
:101A4000FFF7DFFEADF80E00032337223146FFF724
:101A5000CAFEADF80E0000240AE0204B1A5D3146A4
:101A6000BDF80E00FFF7C9FEADF80E000134E4B278
:101A7000022CF2D942463146BDF80E00FFF7A6FF10
:101A800000974323164A41461648006805F032FD88
:101A90000446404602F04DFDAB79FF2B01D00133E7
:101AA000AB71AB79092B09D8C3EB431203EB82036B
:101AB000DB009BB204E04FF0FF34EDE742F210731D
:101AC00003F2F313084A82FB0312DB17C3EB621322
:101AD0002B81204604B0BDE8F08100BF9895000836
:101AE0009C950008203D0020D34D621010B5446A3B
:101AF0006379013BDBB2092B06D840F2192222FAA6
:101B000003F313F0010F00D110BDFFF779FFA38A93
:101B1000628A9B1A012BF7DD03EBD373C3F34F03E8
:101B20002382F1E72DE9F04184B00746456A03219D
:101B30002846FFF750FE0DF10E03032229463846D2
:101B4000FFF784FE00285BD080464668F03602230B
:101B500039223146BDF80E00FFF745FEADF80E0004
:101B60004FF410723146FFF74CFEADF80E0004231F
:101B700032223146FFF737FE0446ADF80E00E86921
:101B8000FFF765FD024631462046FFF744FEADF8FB
:101B90000E00032337223146FFF725FEADF80E0075
:101BA00000240AE01F4B1A5D3146BDF80E00FFF716
:101BB00024FEADF80E000134E4B2022CF2D9424604
:101BC0003146BDF80E00FFF701FF00974323164A88
:101BD00041461648006805F08DFC0446404602F078
:101BE000A8FCAB79FF2B01D00133AB71AB79092B8A
:101BF00009D8C3EB431203EB8203DB009BB204E082
:101C00004FF0FF34EDE742F2107303F2F313084A8A
:101C100082FB0312DB17C3EB62132B81204604B057
:101C2000BDE8F081989500089C950008203D0020B3
:101C3000D34D62102DE9F04184B0002850D0074602
:101C4000446A002C52D001212046FFF7C4FD0DF15B
:101C50000E03032221463846FFF7F8FD8046002890
:101C600000F088804668F036022339223146BDF8FC
:101C70000E00FFF7B8FDADF80E003A8D3146FFF7C4
:101C8000C0FDADF80E00042332223146FFF7ABFD54
:101C90000546ADF80E00E069FFF7D9FC0246314673
:101CA0002846FFF7B8FDADF80E0004233622314672
:101CB000FFF799FD0546ADF80E00A069FFF7C7FCD8
:101CC000024631462846FFF7A6FDADF80E00032375
:101CD00037223146FFF787FDADF80E00002516E0EC
:101CE000274806F06DFA6FF00F053FE0254806F033
:101CF00067FA6FF0050539E0234B5A5D3146BDF8B0
:101D00000E00FFF77AFDADF80E000135EDB2022DA1
:101D1000F2D942463146BDF80E00FFF757FE1B4B85
:101D20000193009743231A4A41461A48006805F078
:101D300043FB0546404602F0FCFBA379FF2B01D094
:101D40000133A371A279052A17D801239340C3EB6D
:101D5000431203EB8203DB009BB203F2F3130E4A40
:101D600082FB0312DB17C3EB62132381284604B006
:101D7000BDE8F0814FF0FF35DFE74EF66023ECE77A
:101D8000308F00084C8F000898950008A095000837
:101D90009C950008203D0020D34D621070B5466A26
:101DA000094B9B7803B970BD04460D46002333816F
:101DB000064B9868FFF74BFCB0612B69F361204636
:101DC000FFF738FFEFE700BF243D00202C3D002047
:101DD0002DE9F04184B00646446A0023E361062100
:101DE0002046FFF7F8FC0DF10E0301222146304694
:101DF000FFF72CFD00283AD080464768F0370223D1
:101E000039223946BDF80E00FFF7EDFCADF80E00A3
:101E1000328D3946FFF7F5FCADF80E00032337226B
:101E20003946FFF7E0FCADF80E0000250AE0204B34
:101E30005A5D3946BDF80E00FFF7DFFCADF80E0025
:101E40000135EDB2022DF2D942463946BDF80E00F9
:101E5000FFF7BCFD174B019300964323164A4146FA
:101E60001648006805F0A8FA404602F062FBA37924
:101E7000FF2B01D00133A371A279052A14D80123C5
:101E80009340C3EB431203EB8203DB009BB203F2EC
:101E9000F3130B4A82FB0312DB17C3EB621323819C
:101EA000002004B0BDE8F0814EF66023EFE700BFEC
:101EB00098950008A09500089C950008203D0020FA
:101EC000D34D62102DE9F04184B00546446A0C21DF
:101ED0002046FFF780FC0DF10E0304222146284620
:101EE000FFF7B4FC98B307464668F0360423322265
:101EF0003146BDF80E00FFF776FC8046ADF80E00C7
:101F0000E069FFF7A4FB024631464046FFF783FC39
:101F1000ADF80E003A463146FFF758FD0D4B0193E0
:101F2000009543230C4A39460C48006805F044FAF2
:101F30000546384602F0FDFAA379FF2B01D00133A4
:101F4000A37114232381284604B0BDE8F0814FF02B
:101F5000FF35F1E7A09500089C950008203D002082
:101F600038B50546446A08212046FFF734FC0022B4
:101F700004F11C01284600F093FFA379FF2B01D048
:101F80000133A3710123238138BD000030B583B034
:101F900000285DD00546446A002C5DD00023638292
:101FA000A26AB2F1FF3F0FD01E32A3F17733A3FB39
:101FB00002135B09B2F5701F01D34FF6FF739BB29A
:101FC000A3820BB90123A382E26AB2F1FF3F10D0D2
:101FD0001E322C4BA3FB02135B09B2F5701F01D319
:101FE0004FF6FF739BB263810BB901236381638951
:101FF000E381226BB2F1FF3F10D01E32214BA3FBD5
:1020000002135B09B2F5701F01D34FF6FF739BB249
:10201000A3810BB90123A381A38923826289A389A8
:102020009A4202D30BB100236381E379C3B1236ADF
:102030000193636A00930A212046FFF7CCFB6B46AD
:1020400001AA04F11C01284602F0F6F803B030BDE5
:102050000D4806F0B5F8F9E70C4806F0B1F8F5E7D9
:10206000227F94F91C30002B02DBFF230193E0E771
:10207000BF2A03D96FF07F430193DAE74FF6FF736E
:102080000193D6E789888888688F0008848F0008C4
:1020900010B504460C21406AFFF79DFB04490B462E
:1020A0000A46204602F0C8F82046FFF791FE10BD10
:1020B000A0950008074A1378013BDBB2137003B107
:1020C000704710B5044C206805F094FA0023236093
:1020D00010BD00BF1C3D0020203D002038B5134B33
:1020E0001B782BB1114A137801331370002038BDCF
:1020F00005F0A2FA0E4B1860A0B1437A43F020031A
:1021000043720C4D4422294605F004F9084C432241
:102110002946206805F02CFA00220749206805F0BE
:102120005DFADFE74FF0FF30E1E700BF1C3D002024
:10213000203D0020A0950008E9240008BC4B0022A7
:102140001A605A6043892B2B40F29A812DE9F04F97
:1021500087B00589F0270197914607463E46019CC6
:1021600004E0E41AA4B2ED1AADB23668002E00F015
:102170008A817389A342F4D9D6F804A0CB46039789
:1021800068E0326812B1526812787BE0002279E090
:10219000042A40F0808190464FF00609E1BB0134EB
:1021A000A4B247E0032A40F279814FF007094FF0CB
:1021B0000408F3E7042A40F0748190464FF00309C5
:1021C000ECE7012A40F07081019BF02B40F06F8119
:1021D00090464FF00009E1E7012A40F06B819046FC
:1021E0004FF00109DAE7042A40F0678190464FF08A
:1021F0000209D3E7042A40F0638190464FF00409B6
:10220000CCE7042A40F05F8190464FF00509C5E70E
:102210004FF0FF394FF0000810444FF6FD7188422F
:1022200000F35481224492B2023294B2B8F1000F0A
:1022300040F0A68073899C420CD3E41AA4B2EB1A36
:102240009DB2AC4280F045813668002E00F044819A
:10225000D6F804A0002E00F0EF80AC4280F0EC80B5
:102260001AF80410FF2900F0E780A31C9FB2BC42BB
:1022700000F20E812046621CB6F80AC0624580DA80
:102280001AF802203B29C3D80FF2040C5CF821F0A5
:102290009F2100089121000811220008A5210008B3
:1022A0001122000811220008112200081122000842
:1022B0001122000811220008112200081122000832
:1022C0001122000811220008112200081122000822
:1022D0001122000811220008112200081122000812
:1022E0001122000811220008112200081122000802
:1022F00011220008112200081122000811220008F2
:1023000011220008112200081122000811220008E1
:1023100011220008112200081122000811220008D1
:1023200011220008112200081122000811220008C1
:1023300011220008112200081122000811220008B1
:1023400011220008112200081122000811220008A1
:10235000112200081122000811220008B5210008EE
:10236000C3210008D9210008E72100081122000834
:102370001122000811220008F5210008032200089C
:102380000022059202942A4B13F80930002B4CD1FD
:102390004446042C28BF0424E4B23B46224605A947
:1023A000304602F06FFAA04233D1B8F1040F18D9C9
:1023B00018F0030F30D11E4B012203F809200598B5
:1023C000FFF745F91B4B43F82900A8F104085FFA11
:1023D00088F83B1D9BB29F4221D809F101091F4695
:1023E000D1E7029CB8F1040F0ED0B8F1010F19D15A
:1023F0009DF8143005930E4B012203F809200D4B74
:10240000059A43F8292015E70598FFF720F905906C
:10241000F1E76FF0010038E06FF0050035E06FF094
:10242000010032E06FF005002FE0029C02E700BFE0
:10243000243D00202C3D0020D946039F284B1B78CB
:1024400053B1284B1B68264A00211170012B13D071
:10245000022B0AD0032B0DD0B9F1000F08D04FF09A
:1024600000096C252C23019378E64FF00109F3E76E
:1024700000200AE04FF00109EC256C2301936DE682
:102480006FF0010070476FF0010007B0BDE8F08FFA
:102490006FF00100F9E76FF00500F6E76FF0050057
:1024A000F3E76FF00500F0E76FF00500EDE76FF080
:1024B0000500EAE76FF00500E7E76FF00500E4E7E5
:1024C0006FF00500E1E76FF00500DEE76FF0010057
:1024D000DBE76FF00100D8E76FF00500D5E700BF3C
:1024E000243D00202C3D002070B51446364B5D681D
:1024F0006E6A5268F6B13379E3B163892B2B19D92F
:102500001378022B16D1002395F8301099420BD97D
:10251000052B09D8E91891F82A00D118097F8842BB
:1025200008D10133DBB2EFE75068FFF790F833686A
:10253000984203D0204601F0FCFF70BD3146204692
:10254000FFF7FCFD0028F5D1204B5B78002BF1D084
:1025500061681F4B1B79052B0AD0062B26D0022B56
:10256000E8D17379062BE5D12846FFF717FCE1E7A0
:102570007379012B0AD0033BDBB2022BDAD8284651
:10258000FFF7E6F92846FFF701FDD3E72846FFF7F6
:10259000DFF995F8313013F0080F03D02846FFF724
:1025A000DFFCC7E72846FFF7F1FCC3E77279032A8F
:1025B00005D0012A03D0042A01D0052ACFD128460C
:1025C000FFF766FDB6E700BF043D0020243D002074
:1025D0002C3D002008B530B10246436A13B158794A
:1025E000082804D008BD064805F0EAFDFAE70968A6
:1025F000DB699942F6D11046FFF764FCF2E700BFB1
:102600009C8F00082DE9F04184B00746456A0521FA
:102610002846FFF7E0F80DF10E030322294638465D
:10262000FFF714F9002849D080464668F0360223A7
:1026300039223146BDF80E00FFF7D5F8ADF80E008F
:102640003A8D3146FFF7DDF8ADF80E00032337224F
:102650003146FFF7C8F8ADF80E0000240AE0204B21
:102660001A5D3146BDF80E00FFF7C7F8ADF80E0051
:102670000134E4B2022CF2D942463146BDF80E00D4
:10268000FFF7A4F90097432305F1180241461548C6
:10269000006804F02FFF0446404601F04AFFAB7982
:1026A000FF2B01D00133AB71AB79092B09D8C3EBF8
:1026B000431203EB82031B019BB204E04FF0FF3493
:1026C000EDE744F6206303F2F313074A82FB03129B
:1026D000DB17C3EB62132B81204604B0BDE8F08109
:1026E00098950008203D0020D34D621010B5446A33
:1026F0006379013BDBB2092B06D840F2112222FAA2
:1027000003F313F0010F00D110BDFFF77BFFA38986
:10271000628A9B1A012BF7DD03EBD373C3F34F03DC
:10272000E381F1E788B1436A8BB15B79052B06D071
:102730000A2B06D0042B06D10120C0B2704701201D
:10274000FBE70120F9E70020F7E7002070470020B1
:10275000704700002DE9F04184B0446A002C4FD04E
:1027600005466379002B4BD0A36903930023A36133
:10277000E361236263622363E362A362A3826382F1
:102780002382E381FFF7CEFF00283CD000212046C2
:10279000FFF721F80DF10A03072221462846FFF72B
:1027A00055F8074620B34668F036042336223146F2
:1027B000BDF80A00FFF717F88046ADF80A00039845
:1027C000FEF745FF024631464046FFF724F8ADF8D4
:1027D0000A003A463146FFF7F9F80095432303AA69
:1027E00039460E48006804F085FE384601F0A1FE27
:1027F0000B490B460A46284601F01EFD23793BB9DA
:1028000004B0BDE8F08100212046FEF7E4FFF5E7C3
:10281000FFF750FC00232371F2E700BF203D0020AA
:10282000A095000870B520B3044690F8313013F03D
:10283000010F24D0456A038DB3F5107F3AD325B339
:102840002B794BBB34220021284605F01FFDFFF7F2
:1028500045FC0646A0BB01232B7194F8313013F0E0
:10286000040F1CD02046FFF7B3FA0646E0B9304605
:1028700070BD154805F0A4FC6FF00F06F7E713488C
:1028800005F09EFC6FF00F06F1E7342001F0C6FB67
:10289000054690B16062D5E7FFF70CFCD2E7022154
:1028A0002846FEF798FFE2E72046FFF753FF4FF078
:1028B000FF36DCE74FF0FF36D9E74FF0FF36D6E7BB
:1028C0004FF0FF36D3E700BF9C8F0008AC8F0008A5
:1028D00010B5174B1C6806E02046FFF73BFF20466B
:1028E000FFF7A0FF246814B3636A002BFAD05A796B
:1028F000002AF7D0998A29B15A8A013292B25A82B3
:102900009142E9D01A8A1AB1511E1982012A0AD0BD
:10291000DA89002AE6D0511ED981012AE2D1204667
:10292000FFF7E4FEDEE72046FFF7E0F8DAE710BD48
:102930007CD5002010B50446426A5379013B0B2B2D
:1029400009D8DFE803F009081E080806081508087A
:102950000806FFF73DFA10BD9379052B02D8FFF763
:1029600069F9F8E7FFF7F6FE2046FFF75BFFF2E7AD
:102970009379012B02D9FFF709FBECE7FFF7F0FA97
:10298000E9E79379012B02D9FFF722FAE3E7FFF792
:10299000C9F8E0E710B50B4B1C6802E0012A0AD029
:1029A000246874B1636A002BFAD01A89012AF5D918
:1029B000013A1A81F4E7013A1A812046FFF7BAFF7B
:1029C000EEE710BD7CD5002010B5044600EB4002B8
:1029D0000D4B53F8320038B101F0ABFD04EB44036A
:1029E000DB00094A0021D150074A04EB440302EB03
:1029F000C30300211975598299605960034A106810
:102A0000D86092881A8210BD503D0020A896000818
:102A10002DE9F04F83B0074690464FF0000ECDF8F9
:102A200004E0F2464FF00A0973464D46CB46CDF816
:102A3000009003E078B91D4601331BB2092B4ADC34
:102A40001C4603EB4300434A02EBC002107D0A2DF3
:102A5000F0D00028F0D047B13A6804EB440C3D4E6A
:102A600006EBCC067668B2420ED0012817D00128BA
:102A7000E2D904EB4404374A02EBC402528A72459D
:102A8000DAD396469B46D7E7B8F1000F5AD0314AC1
:102A900002EBCC0292684245E7D11D464EE004EBC2
:102AA00044022C4850F832204AB104EB440400EBB5
:102AB000C402528A5245BFD392469946BCE704EB02
:102AC0004404244A02EBC402528A01988242B3D3DE
:102AD00001920093B0E711F0020F35D10A2D0CD00E
:102AE000092D16DDBBF1090F0DDD009B092B0CDD57
:102AF000B9F1090F2BDC4D4608E011F0010FEFD1C1
:102B00004FF0FF351AE05D4600E0009D2846FFF7D4
:102B10005BFF37B1396805EB45020E4B03EBC2038F
:102B200059600C4B05EB450203EBC20200215182B8
:102B300005EB450203EBC203C3F80880284603B047
:102B4000BDE8F08F1D46F9E74FF0FF35F6E74FF08F
:102B5000FF35F3E7503D0020002948D0F0B583B0A1
:102B6000054616461F460C460868B8B3294600F0CD
:102B7000B6FD98BB226802F0F002E02A2ED02A4669
:102B800039462046FFF744FFB0F1000C29DB194B12
:102B90000CEB4C0003EBC002022111759560C100E3
:102BA0000831194434684C60B4880C81002151828A
:102BB00053F83070CFB1C3000C460E4AD1504FF4D9
:102BC00000630093334605F12A023946284604F093
:102BD000B1FD384601F0ADFC204604E06FF00F0077
:102BE00001E04FFA8CF003B0F0BD0020FBE76FF07E
:102BF0000F007047503D00202DE9F04782B0064697
:102C00000F4690461D46DDF82CA04FF420721C2183
:102C10000E2001F0BBFC98B381464468BDF8340037
:102C2000FEF710FDE0802B68A360AB88A381DAF883
:102C30000030C4F81230BAF80430E3820A9B1B68F3
:102C4000C4F80E300C9B1B68A3610025257001237E
:102C500063700823A370E570062323710423637156
:102C600040F60603009343463A464946304604F090
:102C700061FD484601F05DFC284602B0BDE8F087E2
:102C80004FF0FF30F9E7000030B585B000F12A03BE
:102C9000041D0125039502910349019100941946F1
:102CA000FFF7AAFF05B030BDA89600082DE9F04156
:102CB00086B0A9B104460E4645682B88B3F5807FDF
:102CC00008D12B79062B05D16B79042B02D16B88A7
:102CD000082B09D0204601F02CFC06B0BDE8F0819D
:102CE0001E4805F06DFAF8E7D5F80E300593AA698D
:102CF0004F68B7B905F108080223424605A93046D6
:102D0000FFF72AFFEB88B3F5807F15D0B3F5007F7E
:102D100003D105A93046FFF75DFC204601F009FC10
:102D2000DBE7974214BF0027012705F108080FB120
:102D30000123E2E70223E0E7002FEED006F12A01AB
:102D4000331D0222039205AA0292CDF8048000935B
:102D50000B4642463046FFF74FFFDEE79C8F0008E8
:102D600008B5024AFFF790FF08BD00BFB096000803
:102D700010B5002405E0042B1BD92046FFF724FEE4
:102D80000134092C35DC04EB4403DA00194B1344FD
:102D90001A7D002AF4D004EB4401CB0015491944F4
:102DA0004B8A01339BB24B82B3F5967FE5D2012A61
:102DB000E1D0032A0DD0042A13D0012AE0D104EB7C
:102DC0004402D3000B4A1344191D9868FFF7C8FF4B
:102DD000D6E704EB4403DA00064B134404221A75C9
:102DE000CEE704EB4403DA00024B134402221A75C7
:102DF000C6E710BD503D002070B582B005460E46B6
:102E0000144602EB4202254B03EBC2031B7D022B4F
:102E100011D004EB4403DB000833204A13444FF481
:102E200000620092043305F12A023146284604F07C
:102E300081FC02B070BD194B03EBC2035B8AB3F592
:102E40008E7F1AD8B3F5877FE3D304EB4401134B8D
:102E500003EBC10104EB4402D20008321A440432ED
:102E60000431FFF711FF0028D3D104EB44020B4BD0
:102E700003EBC20303221A75CBE7084901EBC20139
:102E80000431FFF76DFF0028C3D104EB4402034B6C
:102E900003EBC20303221A75BBE700BF503D0020BD
:102EA0002DE9F04383B005460E46174600F12A0887
:102EB0000146306800F013FC00287DD1336803F030
:102EC000F002E02A7BD0002B7CD02A46012130463C
:102ED000FFF79EFD031E2EDBDCB204EB44023C4BED
:102EE00003EBC2031B7D43BB394B03EBC20301223F
:102EF0001A759D60914631462846FFF731FF38B973
:102F000004EB4402324B03EBC2031B7D012B1BD0AD
:102F100097B304EB44022E4B03EBC2031B7D012B42
:102F20001BD8012B28D13B4653B31A7B12F0400F1C
:102F300025D11B68F8E758B21EE017B14FF0FF30FB
:102F4000E7E74FF00009D6E7B9F1000FE0D1204BD9
:102F500003EBC20300225A82DAE71E4B1C70D30037
:102F600008331B4A13444FF4006200920433424674
:102F70003946284604F0DEFB03B0BDE8F0830123A8
:102F8000B3B13A464FF420710E2001F0B9FC074668
:102F9000DFB104EB44030E4A52F8330008B101F0EC
:102FA000C8FA04EB44040A4B43F834700020E3E70A
:102FB000384601F0A5FBEBE76FF00F00DCE76FF0A0
:102FC0000F00D9E76FF00F00D6E74FF0FF30D3E7DF
:102FD000503D00204C3D0020F0B585B005460F4621
:102FE00016460146106800F07AFB00286CD10346B3
:102FF000326802F0F001E0292CD06968A8685140DD
:10300000014209D092B24FF6A9618A4204D0EA681F
:10301000002A65D005F10C06334A127802EB420013
:10302000324901EBC001097D01292BD92F4901EB60
:10303000C0018968A94225D1306802EB42042B49BE
:1030400001EBC401496888421CD139462846FFF784
:10305000D3FE43E001238DF8083000238DF80930BA
:103060005E238DF80A30737803F07F038DF80B3000
:10307000B3788DF80C30F3788DF80D3002AB24E086
:103080000133DBB2092B19D803EB430C174C04EBCB
:10309000CC0C9CF81420012AF2D9DCF80820AA42B2
:1030A000EED13068DCF804209042E9D10E4A13706A
:1030B0001A4639462846FFF79FFE0FE03A4631464A
:1030C0002846FFF7EDFE09E0094B4FF4006200923D
:1030D00005F12A023946284604F02CFB05B0F0BD64
:1030E0006FF00300FAE700BF4C3D0020503D002088
:1030F000B09600082DE9F04786B00546894690460F
:1031000006891B2E00D91C2606F108034FF42072F5
:1031100099B2222001F03AFA074670B3D5F804A01C
:10312000446884F8009084F801800023237163715F
:10313000A371E371406832466968083005F01BF9F5
:10314000DAF80C30059305A800F0F2F8064688B1CD
:103150000025A570E57079892046FEF704FB6080A4
:103160000296012301930095FF2305AA29463846BC
:1031700000F0A0FA384601F0DCF906B0BDE8F087AF
:103180002DE9F04385B00546544B9E68347804F031
:103190000F04A400132C16D90F464389032B12D910
:1031A00043681B78082B40F091804C4B586900F025
:1031B000F003E02B1DD0494B196800F090FAC0B91C
:1031C0002B89072B05D8284601F0B3F905B0BDE8D7
:1031D000F0832846FEF7CDFA78B904F10E0841468F
:1031E000284601F06FF9C0B32B89191989B28B42B7
:1031F00007D9284601F09DF9E8E7284601F099F93A
:10320000E4E74FF420720E2001F0C0F98046002858
:10321000EFD0428904F108039A4213D32246314683
:10322000406805F0A8F82146404601F051F960B920
:103230002946404601F016FB58B9284601F079F9B5
:10324000454610E001F075F9D3E7404601F071F909
:10325000CFE7404601F06DF9CBE74146284601F043
:1032600037F90028C5D1D5F804802146284601F059
:1032700029F958BB6E68194B5A69F2601B693361B2
:10328000002388F80030B8F802304FF6F772934206
:1032900020D90933A8F802304FF0FF0986F80890CA
:1032A0004FF0000886F80A8086F80B8021463046E9
:1032B000FEF759FA7081029701230193CDF800803F
:1032C0004B4642460649284600F0F4F9284601F0EC
:1032D00030F97BE70833A8F80230DDE7043D002031
:1032E000183D002008B50A460321FFF703FF08BD7B
:1032F00008B50A460B21FFF7FDFE08BD08B590F89A
:10330000313013F0010F0DD00146436863B1074A15
:103310005069834204D000F0E2F908B9002002E0CD
:10332000012000E0002008BD0020FCE7043D002053
:1033300084462A4B18682FE00068B8B190F8313005
:1033400013F0010FF8D013F0040FF5D04268002AF3
:10335000F2D0DCF800104A408468224218D013F002
:10336000020FE9D1C3689942E6D111E01C4B1B68FA
:1033700073B193F8312012F0010F09D012F0040F4D
:1033800006D05A6822B19CF800207F2A00D0184647
:103390005DF8044B7047006860B190F8313013F06D
:1033A000010FF8D013F0040FF5D04268002AF2D0D4
:1033B00010B4CEE70A4B1B687BB193F8312012F0B2
:1033C000010F0AD012F0040F07D05A682AB19CF8F6
:1033D00000207F2A01D01846704770477CD5002016
:1033E00078D500202DE9F041044647683B781A095A
:1033F000042A04D001F09DF80020BDE8F0810E46BB
:1034000003F00F039D007888FEF71CF9804623899E
:1034100083420BD86389AB4204D32389434501D34C
:10342000132D08D8204601F084F8E5E70146204630
:1034300001F030F9EEE729463846FEF794F998B9DD
:103440003B69574A5361F968116103F0F003E02BBF
:103450000ED196F8313013F0010F27D07368002B8E
:1034600072D14FF0000823E0204601F062F8C3E774
:103470003046FFF743FFA0B9494B1B7D7F2B59D046
:10348000484BD3F8008001E0D8F80080B8F1000F75
:1034900008D04645F8D04046FFF730FF0028F3D06B
:1034A00000E0B046B8F1000F05D101E04FF0000890
:1034B0007B7A112B41D03A4B1869002846D1B8F1DC
:1034C000000F51D0FB8833F0C00306D0204600F037
:1034D000A7FA044600288FD04768314AC2F8008016
:1034E000566097603B7803F00F039B009381294659
:1034F000204600F0EDFF7B7A062B3ED0112B37D013
:10350000012B3FD04146264B586900F0E8F828B916
:10351000234B5B6903F0F003E02B38D1204601F028
:1035200008F81F4B00221A605A609A609A811A614B
:103530005A6161E74FF00008BAE77B195B88B3F581
:10354000884FB8D1B046BAE7B046B4E7314600F08C
:10355000C6F828B9124B1B6903F0F003E02BAED17B
:10356000204600F0E6FF47E7204600F0E2FF43E791
:103570003146204603F01AFED3E73146204602F0DA
:10358000DDFDCEE731462046FFF7FAFDC9E72946C3
:10359000204600F0C9FF02212046FFF7A3FEBDE749
:1035A000043D00207CD500202DE9F04F83B0044677
:1035B0009DF830909DF834B00E9E002A62D0884667
:1035C0009A461746142100F07DFF002868D16568EF
:1035D00085F808A085F809B04BEA0A2B4FEA1B23AF
:1035E00043EA0B233A682A6191B211FA83F303EBA1
:1035F000124345222A7085F8019049F48A424FF01F
:10360000450949EA02290FFA89F91FFA89F999440B
:103610002089FEF717F8688000EB090A0023AB71D8
:10362000EB71DFF88C90B9F80000FEF70BF8A8807A
:1036300000EB0A03B9F800200132A9F80020B8F124
:10364000000F1BD0D8F80020EA60EA6813FA82F372
:1036500003EB12439AB202EB134303EB1343DB4336
:103660006B81338D13B12289934213D373693A4628
:1036700021463046984703B0BDE8F08F0B4A1268E8
:10368000EA60E2E74389132B0DD943681B69019374
:1036900001AFE6E73A463146204600F0A3FAEAE7F2
:1036A0006FF00100E7E76FF00100E4E7A095000884
:1036B000403E002010B584B0089C94461AB109B170
:1036C0000A6802B9211D02949DF81C2001929DF800
:1036D000182000926246FFF767FF04B010BD034652
:1036E000421E12F1030F12D891F8310010F00200BF
:1036F00014D04A689A420CD089685A400A420AD1CA
:10370000CA4323EA01039A4207D0002070470120F0
:10371000704700207047002070470120704700006C
:1037200008B5074B1B68834206D003680B6001464F
:10373000042000F019FD08BD0268014B1A60F6E78D
:10374000443E00202DE9F0410746884644686368FE
:103750009A8812B100257C6823E01B684360636887
:103760008268C568006979691A605D609860D9608F
:10377000BA691A6101212046FFF7BAFD204600F020
:10378000B6FF0546204600F0D4FEE4E763681E68F5
:10379000204600F0ACFF284485B2204600F0C9FE68
:1037A0003446002CF2D141463846FFF7B9FF034AB0
:1037B00013885B1B13802846BDE8F081423E002041
:1037C000F8B505460F4600262BE09A69D5F810E0BB
:1037D000724511D1B3F80CE0AA8896450CD101E0EE
:1037E000614618461A6892B19C4613468BB15A69D5
:1037F000D5F80CE07245E8D001340028F0D093F8F9
:103800001FE0C27F9645EDD861461846EAE7634659
:10381000EAE710B1FFF796FF0644BE4208DA012C32
:1038200006DD044B1B6800242146A4462046DDE744
:103830003046F8BD443E002008B50146052000F0A2
:1038400093FC08BD10B50446406908B100F071FE54
:103850002046FFF7F1FF10BD2DE9F84380460F46E3
:1038600016464C686088FDF7EDFE237803F00F03E1
:10387000B0EB830F03D24FF0FF30BDE8F8839A001E
:10388000801A85B2E088FDF7DDFEC0F30C0C4FEA2C
:10389000CC0C796800230B704B708B70CB70A1F847
:1038A00004C005EB0C001FFA80F9C880E14559D32C
:1038B000D8F8044001201D461DE00C609DB1EA8847
:1038C000624552D89B88994552D82F608B889A427E
:1038D00000D0002014B366BB98F81E3013F0010F1F
:1038E00027D13046C9E79B88994544D8C8F8047069
:1038F000F0E71C681D46002CECD06368B3F804E0C8
:10390000E645DAD8E64539D0DA88624539D8002D5F
:10391000EFD0EA889645ECD00020EAE735B12F6079
:10392000EA888B889A42D6D00020D4E7C8F8047081
:10393000D1E790B1D8F8043063B15B689B885BB97C
:103940000A6852B15368C9889A88914208D11A68A6
:103950001946F6E7002000E00020C0F300008CE7E5
:103960000020FAE74FF0FF3087E74FF0FF3084E7A1
:103970004FF0FF3081E74FF0FF307EE74FF0FF3030
:103980007BE74FF0FF3078E708B5052000F0DAFB61
:1039900008BD000070B505460E46042000F0D2FBBD
:1039A0000446B0B120220021204604F06FFC0F2312
:1039B000E3770F4B1A6822601C602B686868A9685F
:1039C000EA68A360E060216162612B69A36120461F
:1039D00070BD31462846FFF7F3FEB04202DA002CF4
:1039E000E0D1F4E7042000F0ADFB0446F7E700BFA8
:1039F000443E002038B5094B1868002404E00568EF
:103A00002146FFF79FFE284638B1C37F002BF6D032
:103A1000013BC37704460068F6E738BD443E00200A
:103A20002DE9F843064645682B7803F00F03052B74
:103A300040F0C880E888FDF705FEC0F30C084FEAA7
:103A4000C8086888FDF7FEFD2B7803F00F039A0085
:103A5000B0EB830FC0F0B680801A87B2304600F01A
:103A600046FE81465D4B1B8803440A2B02DC5C4BFF
:103A70001C680DE001462846FFF7A2FE002800F072
:103A8000A180564B1B884B440A2BF0DD9AE024683A
:103A90005CB16269EB689A42F9D1A2692B699A42DA
:103AA000F5D1A289AB889A42F1D174B3E888FDF7C9
:103AB000C9FDC0F30C0080B3ED8805F02005002D92
:103AC0000CBF0122002208D108EB07039BB29845E6
:103AD00076D84FF6EB718B4272D831462046FFF70D
:103AE000BBFEB0F1FF3F6BD03C4B1A889144A3F86A
:103AF000009035B9B844A4F81C80A37F43F00103BB
:103B0000A37701281BD0002560E049462846FFF72F
:103B100041FF04460028CFD154E0E089FDF792FD33
:103B2000C0F30C000028C7D02B686868A968EA6851
:103B3000A360E060216162612B69A361BCE7A08B97
:103B4000143063685D682E68A368E768216962695C
:103B50002B606F60A960EA60A3692B6180B2FDF7FA
:103B600071FD68800023AB71EB71AB72EB721421B5
:103B70002846FDF7F8FD6881656809E0776814213B
:103B8000304600F0A5FC3146284600F0BFFD3E68F7
:103B9000002EF3D1124B19688C4205D029B10B6865
:103BA0009C4202D01946F9E731462046FFF7B8FD9E
:103BB000284600F09CFD094A13881B1A138005E073
:103BC000636833B1304600F0B4FC00252846BDE8F8
:103BD000F88300212046FFF7A3FDF3E7423E0020D3
:103BE000443E00202DE9F04F8BB005460691089227
:103BF0000B8D143B21D4C3F3CF030593D5F8048078
:103C000098F8003003F00F03052B40F0BA806B8961
:103C1000132B14D9B8F80600FDF714FDC0F30C03FC
:103C2000049300F4005309932B89143B9BB214278F
:103C30000024CDF8088098467CE00733DBE7544841
:103C400004F0BEFA6FF0050030E0FFF79DFE8246FB
:103C500038B36B6801943B440093034641222146EC
:103C6000002000F010FC804618B3284600F048FD04
:103C7000CAF81450474BCAF810304146484600F085
:103C800045FD361BB6B2EEB12D680027D6B16C8962
:103C9000E41BA4B2B44228BF3446002CD5D12D6811
:103CA000F3E7484600F045FC4FF0FF300BB0BDE8AD
:103CB000F08F5046FFF7C0FD484600F03AFC4FF049
:103CC000FF30F3E7DDF81C802744BFB2069B1B8D55
:103CD000133B049AC2F30C00434501DD099B0BB171
:103CE00040F40050FDF7AEFCABF80600039E06F171
:103CF000140080B2FDF7A6FCABF8020000238BF89D
:103D00000A308BF80B3014215846FDF72CFDABF828
:103D10000A0006984369089A49469847484600F0C1
:103D200008FCA8EB06031FFA83F8049B059A1344CA
:103D30009BB20493B8F1000F21D0059BDB009BB22E
:103D4000434528BF434603934FF4207214210E20AD
:103D500000F01CFC8146B8B1436802990A684E68BD
:103D60008868C9681A605E609860D96002990A69BB
:103D70001A61D9F804B0039ECDF81C8086E70020B4
:103D800094E76FF0050091E74FF0FF308EE700BF3A
:103D9000D08F000845380008014B1B681844704755
:103DA000503E0020024B1B68C01A80B2704700BF13
:103DB000503E002038B504460088FFF7EDFF8442EE
:103DC00015D003799BB9194B1B6883420FD0184B50
:103DD0001B68834224D000882080B0F5A04F06D015
:103DE000FFF7DAFF05462046FFF7DCFF68806088B2
:103DF000FFF7D2FF0546844211D003797BB90C4B03
:103E00001B68A3420FD020882880B0F5A04F06D0B1
:103E1000FFF7C2FF04462846FFF7C4FF608038BDA5
:103E2000034B1C60D7E7024B1860ECE74C3E0020C8
:103E3000483E0020F8B50446FFF7B4FF0746258842
:103E40002846FFF7A9FF064664882046FFF7A4FF2F
:103E5000B5F5A04F10D8B4F5A04F0FD8BC4202D092
:103E60000388BB420CD1094B1B68B3420AD073884C
:103E7000BB4209D1012000E00020F8BD0020FCE792
:103E80000020FAE70120F8E70020F6E74C3E00208A
:103E900038B50B4C24F003040A4B1C604FF4A045CA
:103EA00025800023638023712846FFF775FF064BAA
:103EB00018600123037105804580044B1C6038BDE8
:103EC000573E0020503E00204C3E0020483E00203F
:103ED00020B338B5044610F0030F1ED1A0F1080539
:103EE0000F4B1B68AB4218D800F10C030D4A126847
:103EF000934212D810F8043C7BB12846FFF79AFF92
:103F000058B1002304F8043C074B1B68AB4201D9AD
:103F1000054B1D602846FFF74DFF38BD704700BFB9
:103F2000503E00204C3E0020483E0020F8B504469C
:103F3000CB1C9BB223F003030B2B05D99DB2B5F527
:103F4000A04F02D900245EE00C258D425AD3304B9D
:103F50001B68A34257D82F4B1B68A34253D9A4F127
:103F60000800FFF71FFF074634F8080CC61BB6B25F
:103F7000083EB6B2B54248D845D0FFF70DFF0379E9
:103F8000FBB906883D44ADB20835ADB2224B1B6883
:103F9000834210D02846FFF7FFFE002303710680FE
:103FA000478024F8085C0088B0F5A04F2BD0FFF7BD
:103FB000F3FE458027E02846FFF7EEFE164B18601B
:103FC000E8E705F11403B3421DD83D44ADB208350E
:103FD000ADB22846FFF7E0FE0F4B1B68834201D9C4
:103FE0000D4B18600023037134F8083C03804780B0
:103FF00024F8085C0088B0F5A04F04D0FFF7CCFE91
:10400000458000E000242046F8BD0024FBE700BF07
:10401000503E00204C3E0020483E0020002859D051
:10402000F8B50246C31C9BB223F003039EB20B2BD0
:1040300004D9B6F5A04F02D900204AE00C269642DA
:104040004AD3264B1F683846FFF7ACFE054614E0FE
:1040500001230371A74206D004F1080039E0388833
:10406000FFF79AFE07463B791BB11D4B1B68BB420D
:10407000F5D11A4B1F60EFE72588C6F5A0439D4296
:1040800026D22846FFF788FE04460379002BF3D199
:1040900003885B1B083BB342EED306F11402934244
:1040A000D6D32E44B6B20836B6B23046FFF774FE09
:1040B0000023037123880380458026800123237118
:1040C0000088B0F5A04FC5D0FFF766FE4680C1E777
:1040D0000020F8BD002070470020FAE7483E00208D
:1040E0004C3E0020C368186808B102681A60704727
:1040F000C3681B680B60C36819607047C3680022FF
:104100001A608368033323F0030307E0C16809687A
:104110001960C1680B6081880B440132C1889142EB
:10412000F4DC704710B5002406E0054B53F824007A
:10413000FFF7E4FF0134A4B2082CF6D910BD00BF8C
:10414000A495000808B5082805D8054B53F82000A9
:10415000FFF7C8FF08BD034804F032F80020F9E774
:10416000A4950008EC8F000808B5082806D821B1EE
:10417000044B53F82000FFF7BBFF08BD024804F0D2
:104180001FF8FAE7A49500080C9000080B688268F5
:10419000934202D0836001207047002070470B6873
:1041A000C268934202D0C36001207047002070476C
:1041B0006FF00B00704738B504460D4601F02AF940
:1041C0002946204603F046FA38BD08B590F831304C
:1041D00013F0040F0AD013F0010F07D011F0010FF4
:1041E00004D0426812B113F0080F00D108BD011DC0
:1041F000FEF7B6FDFAE730B583B00D4609684368AF
:10420000994202D1002003B030BD044601911360F1
:1042100001A91046FFF7CFFF5DB12B686360012154
:104220002046FFF7D2FFE3690BB1204698470120F3
:10423000E9E70023F2E770472DE9F04182B0044638
:1042400016461D460F46D9B1E6B1EDB10FB13B6838
:10425000E3B901AA39462046FFF7CDFF4FF0010828
:10426000002231462046FFF791FF002229462046D2
:10427000FFF795FFB8F1000F0BD002B0BDE8F08159
:10428000074FE1E7064EE0E7054DDFE74FF0000896
:10429000E6E701AA39462046FFF7ADFFEDE700BF8C
:1042A000A095000870B5059D0446F0B115B331B373
:1042B0003AB343B300206060A060E060274E6661BF
:1042C000208584F831006062E0610498206224480F
:1042D000007884F83400069820612046FFF7ACFF90
:1042E0002046A847C8B1002033E01E4803F068FF0D
:1042F00020462EE01C4803F063FF002029E01B4904
:10430000D6E71A4AD5E7194BD4E7002384F83430AE
:1043100007E0013284F8342083B194F83430FF2B65
:10432000F3D0134B18680346002BF5D093F83410E4
:1043300094F834209142ECD01B68F5E794F83430BF
:10434000FE2B07D00133064A13702060084B1C6017
:10435000204670BD024B00221A70F6E7B1410008FA
:1043600077D5002090900008AC900008A095000838
:104370007CD50020014B1860704700BF78D5002025
:1043800010B588B1044690F8313013F0010F0AD10E
:1043900043F0010380F83130C36903B1984703212A
:1043A0002046FFF712FF10BD014803F009FFFAE7AE
:1043B000D0900008024658B1064B186838B190F802
:1043C00034300133DBB2934203D00068F6E7704724
:1043D000002070477CD5002010B4002404604160A8
:1043E000028143819DF8043003739DF808304373C4
:1043F00001238373C4735DF8044B704720B30346F5
:10440000B1F5803F22D219B31FFA81FC00896044C4
:1044100080B260451ED300B593F90CE0BEF1000FE9
:104420000ADBCAB15A68511A59605A8962445A81E2
:10443000188100205DF804FB5A68511A03F110023C
:104440008A42F1D90120F5E7012070470120704729
:1044500000207047012070470120EBE7F0B583B0E2
:1044600005460C4616460720FFF76CFE074638B196
:10447000002301930096234622462946FFF7ACFF0E
:10448000384603B0F0BD10B582B084468E4618465B
:1044900004990CF1030C2CF0030C0EEB0C04BDF88A
:1044A00014309C420CD801B16144044602230193AC
:1044B000009273467246FFF78FFF204602B010BD90
:1044C0000024FAE708B50022FFF798FF08BD0000B6
:1044D000C0B10346B1F5803F16D2B9B110B588B26C
:1044E0005A89824209D35C6821445960121A5A8160
:1044F0001A89121A1A81002010BD054803F060FEC7
:104500000120F9E701207047012070470020704723
:10451000EC90000808B5002902DBFFF76FFF08BD2B
:104520004942FFF7D5FFFAE708B50122FFF7F2FF8E
:1045300008BD38B538B3002407E0022B16D0012B94
:1045400019D0EBB10134E4B22846E8B1837B013BDA
:10455000DBB28373C3B90568037B03F00F03427BAF
:1045600012F0020FE9D003699847EBE701460820F3
:10457000FFF7FAFDE6E701460720FFF7F5FDE1E763
:10458000FFF7A6FCDEE70024204638BD2DE9F04702
:1045900082B00E469046B2F5C17F3DD0044606D8A3
:1045A000012A2FD0412A2DD04FF0000930E0B2F57A
:1045B000207F24D1C11C01F4FE71F21C93B223F0C0
:1045C00003030B449BB203F1100080B222F00302FC
:1045D000934259D382425AD8FFF720FD8146B8B1A1
:1045E00004F110010144033100230193CDF8008050
:1045F0003346324621F00301FFF7EEFE08E04FF0AC
:10460000000905E0424631460020FFF727FF8146BA
:10461000484602B0BDE8F08705460027B9460DE0E0
:10462000B9F1000F02D04846FFF783FFB946EFE724
:10463000B946341BA6B20025002EE9D0BA460820A0
:10464000FFF780FD07460028EAD0EB1C23F00303A8
:104650009BB2C3F5BB6304339CB2B44228BF34465B
:1046600005F110010144033100230193CDF80080CE
:104670002346324621F00301FFF7AEFEB9F1000FE9
:10468000D6D0CAF80070D4E74FF00009C0E74FF069
:104690000009BDE738B50446008988421DD90D469A
:1046A00006E0EB1A9DB223890A1A13442381246879
:1046B0006389AB42F5D3227B12F00F0F05D1AB42D9
:1046C00003D0637B13F0020F08D065812581206839
:1046D00008B1FFF72EFF0023236038BD63681B1B62
:1046E000E91889B22046FFF721FC0446EDE70346AE
:1046F000002002E0013080B21B68002BFAD1704725
:1047000010B1837B013383737047000008B508B193
:10471000034649B9094803F053FD0DE01A89B1F881
:1047200008C062441A81034618680028F6D11A8925
:10473000088902441A81196008BD00BF0C91000865
:1047400010B50C46FFF7E2FF2046FFF7D9FF10BD7A
:104750002DE9F84369B10646914698460D460A8907
:104760004A4506D358B102894B449A4207DB0027D9
:1047700021E0374803F024FD6FF00F0065E0354875
:1047800003F01EFD6FF00F005FE04C461EE0B9F134
:10479000000F30D100277389434532D01DB16A899B
:1047A0002B899A423ED01EB1728933899A4242D0F7
:1047B000B9F1000F48D07489A4EB08046B89DB1BA6
:1047C0009C4200D31C46A145DFD3A4B2706869683F
:1047D00022463944404403F0CEFDA0442744A9EBCF
:1047E00004041FFA84F96B89BB42D4D82D68002DCC
:1047F000CDD00027CFE7184803F0E2FC6FF00F00A0
:1048000023E0366816B14FF00008C7E7B9F1000F92
:1048100002D14FF00008C1E7104803F0D1FC6FF05F
:104820000F0012E02B68002BBDD00D4803F0C8FC30
:104830006FF0050009E03368002BB9D0084803F099
:10484000BFFC6FF0050000E00020BDE8F88300BF6A
:104850004491000878910008A8910008B8910008D8
:10486000C891000808B521B100230A89FFF770FF3D
:1048700008BD034803F0A4FC6FF00F00F8E700BF89
:10488000009200082DE9F84330B18846914605466C
:1048900049B100273E4622E0174803F091FC00276B
:1048A0003846BDE8F883154803F08AFC0027F7E78F
:1048B0006C89E41AA4B2A14500D24C46696822462C
:1048C000194408EB060003F056FD2744BFB2264406
:1048D000B6B2A9EB04041FFA84F900232D68B9F1DC
:1048E000000FDDD0002DDBD0002BE1D06A899A4289
:1048F000DED89B1A9BB2F1E71C9200083C9200089C
:1049000038B514460A462189FFF740FE054610B126
:104910002146FFF7A7FF284638BD02E00023836742
:10492000C06818B1836F8B42FAD1F7E77047000077
:1049300038B50546012407E0054B53F824302946D5
:104940001868FFF7EAFF0134032CF5D938BD00BF22
:104950005896000808B501460220FFF705FC08BD7F
:1049600038B50446037D042B0ED0072B13D0032B40
:1049700021D102F066F80546A0B90523237520462B
:1049800002F068F9284638BD02F05BF8054648B9E0
:1049900005232375F3E702F054F8054610B90923FF
:1049A0002375ECE7B5F1FF3FECD1638B43F00803CF
:1049B00063830025E6E70025E4E70000094B18685B
:1049C00078B110B501E0204654B1C468438B13F0B0
:1049D000080FF8D023F008034383FFF7C1FFF2E785
:1049E00010BD704788D50020704708B501460120EA
:1049F000FFF7BAFB08BD30B5446AB0F828C004EB35
:104A00000C03C16A458E40F2B45E754594BF4A19E5
:104A100001EB0E029A1A002A03DBA0F82AC0581AEA
:104A200030BD631A002B03DD002343850020F7E728
:104A3000091B4185FAE7000010B5A0B10446038DBB
:104A4000194489B240F66832914201D88B420ED99E
:104A500040F6683323852046FFF7CDFF40F2D92387
:104A6000984206D810BD074803F0AAFBFAE7018573
:104A7000F1E7638B43F002036383204602F0EAF818
:104A8000F0E700BF6092000850B110B504464068DE
:104A900008B1FFF74EFD21460320FFF765FB10BD6F
:104AA000704738B110B50468FFF7EEFF2046002CC0
:104AB000F9D110BD7047000010B5D8B10446037D90
:104AC000BBB10A2B15D0012B13D0406F18B1FFF7E3
:104AD00030FD002363674FF6FF732386E06EFFF718
:104AE000E0FF206FFFF7DDFF0023E3662367A4F8F4
:104AF000683010BD014803F063FBFAE778920008C4
:104B00002DE9F04184B09D4A1368013313609C4A3B
:104B10001378013313709B4B1C6800273EE1274636
:104B2000E4683BE194F84230052B40F243810125D3
:104B300067E0204601F08DFE60B1002384F89430D8
:104B400094F89530062B00F29380013384F8953069
:104B5000002556E0204602F07DF80028EDD1002522
:104B60004FE0B4F930309BB247F6FE72934201D861
:104B700001332386B4F93020B4F940309A4240DB47
:104B8000204601F080FF20B1236F002B39D1E36E66
:104B9000BBB3237D022B14D094F842200C2A28BFEB
:104BA0000C22B4F93C10B4F93E3003EBE103764932
:104BB0008A5C934047F6FE7293421EDC1BB2A4F857
:104BC000403000232386B4F86030B4F84820934284
:104BD00028BF13465B08A4F84A30618E4A0092B29F
:104BE000934201D2A4F84A20A4F848100023A4F864
:104BF0006A30204602F050F903E047F6FF73DEE723
:104C00000125227D062A35D0637A13F0080604D0E8
:104C1000042A3CD0072A3AD00026237D032B64D0F7
:104C2000092B6BD0002D72D1E568237F0133DBB2F5
:104C30002377627F9342C0F0AF8000232377534AEB
:104C40001370D4F88830002B00F090802146206942
:104C500098474E4B1B78002B7FF45DAF002800F087
:104C6000878027462C4699E00125CAE70025C8E73A
:104C70000025C6E7638B13F0100FC5D0216A3F4BA8
:104C80001B685B1A282BBFD90135EDB2BCE73B4B43
:104C90001A68236AD21AD4F8901001F5242303F677
:104CA000B8433B48A0FB0303B2EB531F03D90135C4
:104CB000EDB20126B1E794F89730364800FB0311B6
:104CC000334BA3FB0131B2EB511F01D80026A4E7FF
:104CD000204602F0F6F830B994F89730013384F8A2
:104CE0009730002699E7002697E7216A234A126841
:104CF000521A282A94D90135EDB291E7226A1F4B46
:104D00001B689B1AF02B8DD90135EDB28AE7D4F8D8
:104D10008C502046FFF7D0FEBFB1E368FB60C6B9F8
:104D2000D4F81080E6682046FFF75FFE174B00229C
:104D30001A701DB16FF00C014046A847134B1B7849
:104D4000002B7FF4E8AE344628E0E2680D4B1A6091
:104D5000E5E7231D626A216D208B0290E08A0190B5
:104D600000932346204601F02EFFD9E7002070E78C
:104D7000204601F06FFF27462C460FE094D5002017
:104D800080D5002088D500207096000882D50020AC
:104D9000D34D6210F824010027462C46ACB3A27F05
:104DA000294B1B789A423FF4BAAEA377237D022B9E
:104DB0003FF4B8AE94F842300B2B3FF621AF94F895
:104DC0009550002D3FF4CDAE94F896300B2B3FF666
:104DD0004BAF013D1D4B5A5D94F89430934202D283
:104DE000013384F8943094F894309342FFF43EAF4A
:104DF000B4F8601000297FF49CAE204602F078F8E9
:104E000000283FF49AAE0025FBE6114B1D680AE02E
:104E10002846FFF751FE84B1EB68E360EE68284650
:104E2000FFF7E3FD354665B12A6A0A4B1B689B1AFA
:104E3000F02BEDD82C46ED68F5E7EA68044B1A60D4
:104E4000ECE704B0BDE8F08180D50020689600084A
:104E500084D5002094D5002010B50C4603688B4201
:104E600005D04BB1DA68A24204D01346F9E7DB68FB
:104E7000036001E0E268DA600023E3602046FFF7A8
:104E80001BFE237D0A2B05D0012B03D0638B13F06F
:104E9000010F03D100232375E38210BD43F0020309
:104EA0006383204601F0D6FEF4E7000010B584B01D
:104EB000044621B1037D042B16D0072B14D0237D8B
:104EC000012B56D0022B60D0002B6AD1E38A002B35
:104ED00049D0364B1B68A3423DD0002B41D0DA6845
:104EE000A2423CD01346F8E7636F23B9228D40F607
:104EF00068339A42E3D0231D228B0292E28A019208
:104F000000932346626A216D204601F05CFE204634
:104F1000FFF7D2FD264B1B68A34205D053B1DA68D8
:104F2000A24205D01346F9E7DA68214B1A6001E086
:104F3000E268DA600023E3601E4B01221A701E4B08
:104F40001B68A34204D02046FFF74FFD00200EE06F
:104F500001F030FBFAE7DA68144B1A6001E0E2680E
:104F6000DA600023E3602046FFF73FFD002004B035
:104F700010BD2046FFF7DCFC21461048FFF76CFF10
:104F80002046FFF7E7FC0020F1E721460848FFF73D
:104F900063FF084B01221A702046FFF726FD002010
:104FA000E5E72046FFF7DCFCE1E700BF90D50020F5
:104FB00088D5002082D5002098D500208CD50020EF
:104FC00008B560B10346027D012A03D0428B42F04E
:104FD0001002428301211846FFF768FF08BD03480D
:104FE00003F0EEF86FF00F00F8E700BF94920008AE
:104FF00010B551B1144608466AB11189FFF71CFD7E
:105000002046FFF796FA002010BD064803F0D8F8B6
:105010006FF00F00F8E70BB10020F5E7FFF7D0FFC6
:10502000F2E700BFAC920008F8B520B30446466F23
:10503000777B00234367D0F8805015B33246014692
:105040000069A847054625BB17F0200F27D0238D00
:1050500040F66832934201D001332385D4F8806052
:10506000EEB100231A4621462069B04710F10D0F1A
:1050700015D1054613E00B4803F0A2F86FF00F05B9
:105080000DE00023324601461846FFF7B1FF054602
:10509000D9E715F10D0F02D066676FF004052846B9
:1050A000F8BD00BFC892000870B51C4A13780133E0
:1050B00013701B4B1C6813E043F00203638320460C
:1050C00001F0C8FD638B23F00303638313E023F037
:1050D000080363832046FFF743FC10E0E5682C4695
:1050E000DCB1A27F0D4B1B789A42F7D0A377638B7C
:1050F00013F0010FE0D1638B13F0080FE7D1E568DF
:10510000636F002BEBD0074E002333702046FFF770
:105110008BFF3378002BE2D0CBE770BD80D5002029
:1051200088D5002082D5002008B5FFF7BDFF064ACC
:1051300013780133DBB2137013F0010F00D108BDF7
:10514000FFF7DEFCFBE700BF81D500202DE9F0472B
:1051500084B0E0B10D460446037D0A2B1BD0D0F885
:105160005080D0F82490D0F88C600769002B37D19C
:10517000B0F816A0BAF1000F3CD0264B1B68834252
:1051800011D0B3B1DA68A24211D01346F9E7224830
:1051900003F016F821E001462048FFF75DFE2046A7
:1051A000FFF723FC19E0DA681A4B1A6001E0E268A5
:1051B000DA600025E560AA46206F08B1FFF771FCB0
:1051C000E06E08B1FFF76DFCB5B92046FFF70DFCA6
:1051D0001EB16FF00C013846B04704B0BDE8F0874F
:1051E000B0F816A001460E48FFF736FE0D4B01221F
:1051F0001A70E1E70025DFE7231D228B0292CDF82C
:1052000004A0009323464A464146204601F0DBFCB9
:10521000DBE700BF90D50020F092000884D5002085
:1052200088D5002082D5002008B50121FFF78EFF28
:1052300008BD000008B50A4B1B684FF0000C604623
:1052400000E0DB6843B1196A064A1268521A6245E7
:10525000F7D394461846F4E708B1FFF7E5FF08BD19
:1052600084D5002094D5002010F0800F01D108B91A
:1052700070477F2038B50138C2B20F4B1B684FF022
:10528000000C604607E00D4A1268186AA2EB000C99
:105290000A461846DB685BB1597D9142F3D3F9D1D8
:1052A000064C24681D6AA4EB050EE645F2D3EAE736
:1052B00008B1FFF7B9FF38BD88D5002094D500208C
:1052C00038B50446084603E0C568FFF7ADFF284639
:1052D00028B1026823689A42F6D0C068F8E738BD62
:1052E00010B501460C4B1B684FF0000C604600E007
:1052F000DB685BB11A7D8A42FAD1084A12681C6ADF
:10530000121B6245F4D394461846F1E710B1002110
:10531000FFF71CFF10BD00BF88D5002094D50020EA
:1053200038B505460120FEF70DFF044650B398221C
:105330000021204602F0AAFF657540F66833A4F804
:10534000643063852385FF22E2724FF40672628621
:105350000622A4F84020E2874FF6FF72228601223F
:10536000A4F848201A4A126822621A4A1278A277D0
:10537000A4F84A30184BC4F88030184BC4F8903069
:10538000204638BDFFF71AFBFFF754FF0120FEF758
:10539000D9FE04460028CAD10920FFF7A1FF012049
:1053A000FEF7D0FE04460028C1D10820FFF798FF81
:1053B0000120FEF7C7FE04460028B8D12846FFF7B3
:1053C00053FF0120FEF7BEFE04460028AFD1D7E709
:1053D00094D5002080D50020F14F000800DD6D003D
:1053E000034B1868034A126810441860704700BFE6
:1053F0000C00002094D5002041B10B8D33B1282B37
:1054000005D9283B9BB2984228BF18467047002315
:10541000F9E7000000B338B50D460446036803B948
:1054200038BD0E4B1968FFF74BFF0D4B196820462E
:10543000FFF746FF002DF3D02B68002BF0D0094B6F
:105440001B6800E0DB68002BEAD0196822689142F3
:10545000F8D12A681A60F5E7704700BF88D50020A8
:1054600090D500208CD500200A4A1388591C118041
:10547000094A116819B1094A1288934204D2084AAC
:1054800012681344187D7047DBB2D2B29B1ADBB2AC
:10549000C85C7047B0D50020B4D50020B8D5002036
:1054A000BCD5002038B51F4B1B88002B38D00446D4
:1054B0001D4B00221A801C4B1A881A4B1B889A42DB
:1054C0002ED2FFF7D1FF0128F5D002280BD038B338
:1054D000FFF7CAFF0346012822D9134A11880B445B
:1054E000023B1380E7E7FFF7BFFF042818D10E4BFC
:1054F0001B8801330B4A1288934211DAFFF7B4FF7D
:105500000502ADB2FFF7B0FF284380B2431E9BB245
:1055100040F2B352934201D940F2B4506086CAE7D8
:1055200038BD00BFBAD50020B0D500200E4B1B7887
:1055300013F0100F01D10020704710B50446438BC3
:1055400013F0100F06D1D0F88C301BB16FF00E01A4
:105550000069984721460548FFF77EFC2046FFF783
:1055600044FA012010BD00BFA0D5002088D500203E
:105570001D4B1B7813F0040F34D110B584B013F019
:10558000020F21D0194B1A68436AD11A002904DB93
:10559000018D0B44D31A002B04DD154B1B88D3B9A6
:1055A00004B010BD134B1968134B114CB4F800C074
:1055B0000C88029449880191191F009162440F4997
:1055C000096801F000FBEBE713F0010FE5D00C4B8D
:1055D0001B680362E1E7438B43F00203438301F05E
:1055E00039FBDDE7704700BFA1D50020ACD5002016
:1055F000A2D50020BCD50020183D0020A8D5002051
:1056000094D50020414B1B7813F0040F7CD1F0B5EA
:1056100085B0054613F0100F04D113F0020F15D119
:1056200005B0F0BD3A4B19683A4B3B4A10883B4AEB
:1056300012680C88029449880191191F0091024454
:1056400037490968284601F0BEFAE9E7407DFFF7CF
:1056500067FE0446002849D0324B5A6902601B6934
:105660004360EB8AC3822A4E33681B88038303237B
:1056700003752A4F3B6801334362C362FFF7B0FEF4
:10568000A06520656064E0653B68013B63652B694C
:105690002361A5676B7A03F00C0363722B7A237284
:1056A000214B1A68E2601C6001F0D2FC1F4B012202
:1056B0001A702046FFF7F6FE3368DB89A4F86030E5
:1056C000A4F86230668E251D2846FDF731FE01469E
:1056D0002A463046FFF790FE60861221204601F0F0
:1056E00061F960B9204601F0B5FA99E7AB69002B82
:1056F00096D04FF0FF3200212869984790E70021AB
:105700002046FFF723FD8BE7704700BFA1D500209F
:10571000BCD50020183D0020A2D50020ACD500202B
:10572000A8D50020043D002088D5002082D5002087
:10573000F8B506460C4619E000233B441D44144BC3
:105740001B68ED1A002D21DC25686068FEF7CFFF8D
:10575000B6F866301B1AA6F8663023890D4A118800
:105760000B4413802046FFF78FF92C4674B1236950
:105770005868FBF76CFF0546278923699889FBF772
:1057800061FF10F0030FD7D00123D6E72046F8BD04
:10579000A8D50020A4D5002070B50446A14B1B78E5
:1057A00013F0100F3FD0B0F86000A26D00EB020EB6
:1057B000616D9D4B1B68A1EB030CBCF1000F0ADB74
:1057C00099425AD0994909688A4214D1984A126874
:1057D000D28990420FD2964A1268D28990B2A4F828
:1057E0006020B4F86210884201D9A4F86220636591
:1057F0008E4B1B68A3658D4B1B68616C5A1A002A7F
:1058000041DD012A03D4226D9A1A002A6DDD20465B
:1058100001F0FBF9636B33B1A26B84490968521A3A
:10582000002AC0F21E81834B1B88002B00F0EB8105
:10583000227D062A00F2E781606A7B4A1268811A9B
:10584000012905D41344C31A0133002B40F33481DA
:10585000121A002AC0F24C81734B1968626A8B1AC3
:10586000002B06DB238D1344CB1A0133002B40F3AE
:105870004481204601F0C9F9D5E16C490968511A03
:1058800000299FDAA7E76B4A12882AB9A26DB4F8FB
:1058900060000244724503D0002384F84330B9E726
:1058A000B4F93020002AF7DB8B42F5D194F843306D
:1058B000FF2B02D0013384F8433094F84330032B9C
:1058C00008D9B4F84810628E0A4492B2914207D8BF
:1058D000A4F84820022B9DD9204601F047F999E70A
:1058E0004FF6FF72A4F84820F4E7628B12F0040F21
:1058F00009D022F004026283B4F84A20A4F84820B8
:105900000022A4F86A20002084F84200B4F93C5038
:10591000E28F02EBE502A4F840209AB289B2521A53
:1059200092B284F843006364237D032B17D9B4F843
:105930004830B4F84A108B424BD2618B11F4006F9F
:1059400040D00121608E11FB00F189B2914294BFD9
:105950005818981882B2934236D8A4F84820E36EBB
:10596000354A216F2046FFF7E3FE03462067334A9E
:10597000E16E2046FFF7DCFEE066226F002A49D088
:105980000023238600232377002847D0B4F864300F
:105990002B4909880B44A4F86430638B13F4006F1F
:1059A0003FF438AF002A4DD0E56C13695868FBF717
:1059B0004EFE2D1A002D3FF72DAF638B23F40063AD
:1059C000638327E70221BDE74FF6FF73A4F8483051
:1059D000C5E7B4F86A100A4492B2914210D8A4F80C
:1059E0006A20B4F86A209342B9D8D21AA4F86A207F
:1059F000628E1A4492B2934207D8A4F84820AEE7C8
:105A00004FF6FF72A4F86A20EBE74FF6FF73A4F895
:105A10004830A4E74FF6FF732386B3E7A4F8683055
:105A2000B4E700BFA1D50020ACD50020A8D5002048
:105A3000BCD50020A2D500200C93000814930008C8
:105A4000A4D5002040B1E56C03695868FBF7FFFD61
:105A50002D1A002D3FF7DEAE638B23F400636383C2
:105A6000D8E6714AB2F800E09BB2AEEB030292B204
:105A7000B4F93C00C0F3CF0CA2EB0C0211B280B21F
:105A800010FA82F212B2A28700290FDBB4F93E307D
:105A9000A1EBA3019BB213FA81F1E187D21012FAB4
:105AA00081F1A4F8401000236363BCE6A3EB0E036E
:105AB0009C440FFA8CF1E9E75C4B586889B21A896B
:105AC000521A1A810289521A92B205E0C91A89B291
:105AD000028100234381006843898B42F6D3FEF79D
