:020000040800F2
:10000000F8120020793B0008CD020008CF0200085A
:10001000D1020008D3020008D50200080000000049
:10002000000000000000000000000000C13B0008CC
:10003000C13B000800000000C13B0008210300088C
:10004000C13B0008C13B0008C13B0008C13B0008A0
:10005000C13B0008C13B0008C13B0008C13B000890
:10006000C13B0008C13B0008C13B0008C13B000880
:10007000C13B0008C13B0008C13B0008C13B000870
:10008000C13B0008C13B0008C13B0008C13B000860
:10009000C13B0008C13B0008C13B0008C13B000850
:1000A000C13B0008C13B0008C13B0008C13B000840
:1000B000C13B0008C13B0008C13B0008C13B000830
:1000C000C13B0008C13B0008C13B0008C13B000820
:1000D000C13B0008C13B0008C13B0008C13B000810
:1000E000C13B0008C13B0008C13B0008C13B000800
:1000F000C13B0008C13B0008C13B0008C13B0008F0
:10010000C13B0008C13B0008C13B0008C13B0008DF
:10011000C13B0008C13B0008C13B0008C13B0008CF
:10012000C13B0008C13B0008C13B0008C13B0008BF
:10013000C13B0008C13B0008C13B0008C13B0008AF
:10014000C13B0008C13B0008C13B0008D7020008C2
:10015000C13B0008C13B0008C13B0008C13B00088F
:10016000C13B0008C13B0008C13B0008C13B00087F
:10017000C13B0008C13B0008C13B00080000000073
:08018000C13B0008C13B00086F
:10019000034613F8012B002AFBD1181A01387047C7
:1001A00001F0FF01102A2BDB10F0070F08D010F828
:1001B000013B013A8B422DD010F0070F42B3F6D12C
:1001C000F0B441EA012141EA014122F007047FF045
:1001D00000070023F0E80256083C85EA010586EA9C
:1001E000010685FA47F5A3FA87F586FA47F6A5FAD8
:1001F00087F68EB9EED1F0BC01F0FF0102F00702E4
:1002000032B110F8013B013A83EA010313B1F8D18E
:100210000020704701387047002D06BF354603386F
:10022000073815F0010F07D1013015F4807F02BFA8
:10023000013015F4C03F0130F0BC0138704700BFF9
:100240000348044B834202D0034B03B11847704765
:100250007400002074000020000000000548064BD8
:100260001B1AD90F01EBA301491002D0034B03B1B4
:100270001847704774000020740000200000000040
:1002800010B5064C237843B9FFF7DAFF044B13B1DE
:100290000448AFF300800123237010BDCC0400207C
:1002A00000000000C84A000808B5054B1BB105490D
:1002B0000548AFF30080BDE80840FFF7CFBF00BF9F
:1002C00000000000D0040020C84A00087047FEE784
:1002D000FEE7FEE7FEE708B5002002F023FE08BDBA
:1002E0000C4B1B680C4AA2FB03235B09013BB3F1D7
:1002F000807F0DD24FF0E0225361084BF02183F84C
:100300002310002090610720106183F823107047AC
:10031000FEE700BF000000201F85EB5100ED00E06C
:1003200008B5034A13680133136003F0F9FA08BDF6
:10033000E804002008B54FF4A06003F0D9F80021CC
:100340004FF0006003F036F900F052F9FFF7C8FFF4
:1003500008BD0000104B1B68104AA2FB032C4FEA9B
:100360009C4C00FB0CFC4FF0E0239B69002107E054
:100370004FF0E0204069C01A02441144614509D29F
:100380001A464FF0E0239B699A42FAD0F0D9D21A6C
:100390001144F3E7704700BF0000002083DE1B43D9
:1003A00008B54FF47A7303FB00F0FFF7D3FF08BDE5
:1003B00010B500221146432003F0A4F841F20E10BC
:1003C00003F004F94FF4406003F000F90F4C4FF4D0
:1003D000C05300220221204602F0FCFF4FF4C0531C
:1003E00003220021204603F01EF84FF4C0520A21D8
:1003F000204603F040F8002003F01CF9002003F031
:100400000DF940F6075003F0E1F810BD000002407E
:1004100008B5FFF78FFF03F049FB4FF0A041002024
:1004200001F0B2FB002001F0F3FB4FF47A70FFF70C
:10043000B7FFF7E7394AD2F8003843F48033C2F8FF
:100440000038002300E00B46344AD2F8002812F4AA
:10045000003F04D1591C4FF6FF729342F3D12F4B4A
:10046000D3F8003813F4003F05D12C4BD3F80038F3
:1004700013F4003FF9D0294BD3F8402842F08052C2
:10048000C3F8402826490A6842F440420A60D3F87B
:100490000828C3F80828D3F8082842F40042C3F813
:1004A0000828D3F8082842F4A052C3F808281D4AA7
:1004B000C3F80428D3F8002842F08072C3F800285B
:1004C000164BD3F8003813F0007FF9D0144A1368A4
:1004D00043F480331360124B5B6813F4803FFAD00F
:1004E0000F4A136843F4003313600D4B5B6813F439
:1004F000003FFAD0094BD3F8082822F00302C3F8D2
:100500000828D3F8082842F00202C3F80828034B51
:10051000D3F8083813F0080FF9D0704700300240C4
:10052000007000400854400708B5FFF783FF08BD7E
:1005300000B583B02B4AD2F8883043F47003C2F878
:100540008830294AD2F8003843F00103C2F8003855
:10055000254BD3F8003813F0020FF9D0224AD2F815
:10056000083843F08003C2F808380023019302E002
:10057000019B01330193019B4F2BF9D91A4AD2F801
:10058000083843F09003C2F808380023019302E0D2
:10059000019B01330193019B4F2BF9D9124BD3F8E7
:1005A000082822F00302C3F80828D3F8002822F014
:1005B000847222F48032C3F80028D3F8002822F491
:1005C0008022C3F800280022C3F80828D3F80818AE
:1005D0000649C3F80418C3F80C28FFF7A5FF03B0B9
:1005E0005DF804FB00ED00E0003002401030002414
:1005F00084B0254B0FCB0DF1100C0CE90F00234BF1
:10060000D3F80838C3F38103012B15D0022B17D080
:10061000002B35D11E4B1F4A1A601C4BD3F80838EB
:10062000C3F3031310336B4413F8101C184A1368F8
:10063000CB40136004B07047154B174A1A60ECE7C3
:10064000124BD3F8040800F03F00D3F80418C1F3AC
:100650008811D3F80428C2F3014201325200D3F8C2
:10066000043813F4800F09D00B4BB3FBF0F301FBFC
:1006700003F3B3FBF2F3064A1360CEE7054BF4E74E
:10068000034B044A1A60C8E7E04A00080030024001
:10069000000000200024F40000127A0010B480EA68
:1006A000010313F0030F19D0034631E011F8014B99
:1006B00003F8014B013A13F0030F01D0002AF5D1E2
:1006C0000F2A12D90C681C604C685C608C689C60B6
:1006D000CC68DC60103A10311033F1E70346EAE7EA
:1006E00051F8044B43F8044B043A032AF8D804E0C9
:1006F00011F8012B03F8012B2246541E002AF7D1D2
:100700005DF8044B704711F8014B03F8014B013AB7
:1007100012B111F0030FF6D10F2A42D90C681C70E8
:100720004FEA142C83F801C04FEA144C83F802C03E
:10073000240EDC704C681C714FEA142C83F805C041
:100740004FEA144C83F806C0240EDC718C681C72CE
:100750004FEA142C83F809C04FEA144C83F80AC0FE
:10076000240EDC72CC681C734FEA142C83F80DC085
:100770004FEA144C83F80EC0240EDC731033103A89
:100780001031C9E751F8044B1C704FEA142C83F860
:1007900001C04FEA144C83F802C0240EDC7004330D
:1007A000043A032AEED804E011F8012B03F8012BD8
:1007B0002246541E002AF7D1A2E700000846034B48
:1007C0000B6000234B608B60CB607047F50700081F
:1007D000704700236FF07F0111706FF07B01517043
:1007E0001E219170D370082191715371137170475C
:1007F000704770472DE9F04182B005460C46174618
:1008000098468E88F6B291F801C0ACF1200CBCF18C
:10081000030F33D8DFE80CF0021F102DCA883968A7
:100820006846FFF73BFF6A4631462846FFF7D0FF90
:10083000002002B0BDE8F0814A88C2F3400402F013
:100840000102314601F0D8F9224631462846FFF729
:10085000CFFF0020EDE76A463146FFF7BAFF0722D7
:1008600069463868FFF71AFF0723C8F800300020F0
:10087000DFE73146FFF7BDFF0020DAE7064803F067
:1008800065FA6178054803F061FA054803F05EFAFD
:100890004FF0FF30CDE700BF084B0008184B0008B1
:1008A000404B000810B480EA010313F0030F19D085
:1008B000034631E011F8014B03F8014B013A13F004
:1008C000030F01D0002AF5D10F2A12D90C681C6041
:1008D0004C685C608C689C60CC68DC60103A1031BD
:1008E0001033F1E70346EAE751F8044B43F8044BB1
:1008F000043A032AF8D804E011F8012B03F8012B7D
:100900002246541E002AF7D15DF8044B704711F8B7
:10091000014B03F8014B013A12B111F0030FF6D16C
:100920000F2A42D90C681C704FEA142C83F801C0BE
:100930004FEA144C83F802C0240EDC704C681C7122
:100940004FEA142C83F805C04FEA144C83F806C014
:10095000240EDC718C681C724FEA142C83F809C0D9
:100960004FEA144C83F80AC0240EDC72CC681C7366
:100970004FEA142C83F80DC04FEA144C83F80EC0D4
:10098000240EDC731033103A1031C9E751F8044BD0
:100990001C704FEA142C83F801C04FEA144C83F802
:1009A00002C0240EDC700433043A032AEED804E0BB
:1009B00011F8012B03F8012B2246541E002AF7D10F
:1009C000A2E70000054B4FF4437202FB003393F89B
:1009D0001C02003818BF0120704700BF74000020BF
:1009E00070B50C7804F00304012C27D0022C2AD116
:1009F0004FF0000E2EE00134E4B2254D4FF4437C5D
:100A00000CFB005C9CF87452A54219D900EB400C19
:100A10000CEB8C1CA4440CF1880C1D4D05EB8C05D3
:100A20006D68002DE7D02E68002EE4D095F818C030
:100A30008D88EDB2AC45DED1B04728E00024DCE77C
:100A40004FF0FF3023E04FF0FF3020E00EF1010EB9
:100A50005FFA8EFE0E4C4FF4437505FB004C9CF87C
:100A60007442744511D900EB400C0CEB8C1CF4441F
:100A70000CF1880C064C04EB8C046468002CE5D067
:100A80006468002CE2D0A04701E04FF0FF3070BD59
:100A9000740000202DE9F04105460F46164600245B
:100AA00008E02BB1DB681BB132463946284698472F
:100AB0000134E4B2134B4FF4437202FB053393F855
:100AC0007432A3421BD905EB450303EB8313234484
:100AD00088330C4A02EB83035B68002EE1D0002BC5
:100AE000E6D0D3F80C80B8F1000FE1D0B2781B7ECD
:100AF0009A42DDD1324639462846C047D8E7BDE89C
:100B0000F08100BF7400002010B58B7891F90220AD
:100B1000002A25DBB1F804C003F07F03CCF30A0CF4
:100B2000204C03EB43034FF4437200FB02F202EB51
:100B300083032344A3F8C2C2B1F804C08B7803F046
:100B40007F03CCF3C12C03EB430302EB8302144479
:100B500084F8C1C201F008FDB0FA80F0400910BD70
:100B6000B1F804C003F07F03CCF30A0C0D4C03EB87
:100B700043034FF4437200FB02F202EB830323446E
:100B8000A3F87AC2B1F804C08B7803F07F03CCF3EA
:100B9000C12C03EB430302EB8302144484F879C2B3
:100BA000D8E700BF740000202DE9F84F8246884640
:100BB00093461B4B4FF4437202FB00339A69526811
:100BC00093F823029047044600252E462846FF2727
:100BD000B94607E094F8039023781D441C44AE42C4
:100BE00000D8DEB92378CBB16378042BF2D0052B83
:100BF0000BD0022BF0D16779B845EDD1A678E37818
:100C000046EA032600250120E6E74745E4D1D94519
:100C1000E2D121465046FFF777FFDDE7BDE8F88FC8
:100C20007400002010B582B00446094803F08EF825
:100C3000A388E2880192009363886278217805484E
:100C400003F084F8044803F081F802B010BD00BF3F
:100C5000484B00085C4B0008404B00082DE9F84366
:100C600005460E4617469846594B4FF4437202FB11
:100C700000339B695A69002A41D04878117988422B
:100C800009D0DB69002B00F09C8071781A789142C2
:100C900059D0002471E0B388042B0DD0052B1BD054
:100CA0004C4803F053F84C4803F0B8F84B4803F0B5
:100CB0004DF84FF0FF3388E092681378517803EBDA
:100CC0000123917803EB0143D17803EB01633A6090
:100CD000C8F80030002378E0D368728853F82220E7
:100CE0001378517803EB0123917803EB0143D1781A
:100CF00003EB01633A60C8F80030002365E09A69AD
:100D0000002ABED0487891798842BAD1B388072B9F
:100D10000DD113683B602E4B4FF4437202FB053339
:100D20009B699B699B88C8F8003000234DE02948E7
:100D300003F00CF8284803F071F8284803F006F88F
:100D40004FF0FF3341E0B288022A08D1D3F80520E2
:100D5000D3F801303B60C8F80020002335E01D487F
:100D600002F0F4FF1C4803F059F81C4802F0EEFFB3
:100D70004FF0FF3329E00134E4B2154B4FF44372D6
:100D800002FB053393F87432A3421CD905EB450CE2
:100D90000CEB8C1CA4440CF1880C0D4B03EB8C0366
:100DA0005B68002BE7D0D3F80890B9F1000FE2D0D0
:100DB00043463A4631462846C84703460028DAD11A
:100DC00003E00024D9E74FF0FF331846BDE8F8836D
:100DD00074000020BC4B0008D04B0008404B0008BA
:100DE00008B5944626494FF4437303FB00118A6803
:100DF00062448A60CB68A3EB0C03CB6023BB204B1F
:100E00004FF4437202FB00331B7D0BBB1C4B4FF4B2
:100E1000437202FB0033DB8833B1134600FB03F35C
:100E2000174AD356002B1DDB154B4FF4437202FBC0
:100E3000003393F81E32032B09D1114B02FB003310
:100E4000002283F81E2202E0802101F0EDFD08BDA2
:100E50000B4B02FB003300221A751346802101F070
:100E6000E3FDF4E713464FF4437202FB0033042220
:100E700083F81E2200231A46194601F01FFFE6E7F9
:100E8000740000202DE9F041054690461E460F0AE9
:100E9000CCB2791E0E2900F2E280DFE811F00F00DB
:100EA00024004E00E000E000EE00BA00E000E000A8
:100EB000E000E000E000E000E000D10001F044FBD1
:100EC0006F4B4FF4437202FB053383F823029B6997
:100ED0001B68002B00F0C38098470346002800F0F1
:100EE000BE800278B6E0664B4FF4437202FB0033DB
:100EF0009B695A68002A00F0B280614B4FF443713D
:100F000001FB003393F8230290470346002800F0CA
:100F1000A6808278C17842EA0122C079C0F38010AD
:100F200057494FF4437404FB051181F81F02D87927
:100F3000C0F3401081F820028CE0EE2C2CD0504BF6
:100F40004FF4437202FB00339B691A69002A00F0D8
:100F500086804B4B4FF4437101FB0033214693F8DD
:100F6000230290470546002879D00CB3FFF710F90B
:100F700087B207F1010C4FEA4C0C1FFA8CFCBCF550
:100F8000007F28D8D8F8003083F800C0D8F80030A7
:100F900003225A70002336E0394B4FF4437202FBB0
:100FA00000339B695B69002B59D01B681A7851E0AC
:100FB000D8F8002004231370D8F8002003215170C2
:100FC000D8F8002001789170D8F800204178D170CD
:100FD000336001204FE02B4802F0B8FE2A4802F0AF
:100FE0001DFF2A4802F0B2FE002044E0D8F80000BD
:100FF0005A00911CEC5C4454D8F8001003320020D5
:10100000885401339BB2BB42F0D3C6F800C0012024
:1010100031E01B4B4FF4437202FB00339B69DA68EB
:10102000EAB1174B4FF4437101FB003393F82302ED
:101030009047034698B18278C17842EA012209E0DC
:101040000F4B4FF4437202FB00339B691A6A32B1B3
:1010500013685268C8F80030326001200BE009487C
:1010600002F074FE22463946094802F06FFE074836
:1010700002F06CFE0020BDE8F0810020FBE700BF1D
:1010800074000020BC4B0008E84B0008404B0008EF
:10109000004C00082DE9F04104461E464F88487870
:1010A000092800F29F80DFE800F005299D299D4F67
:1010B0005E9D65711368002119704B4B4FF44371AD
:1010C00001FB043393F81F3223B111680B7843F00E
:1010D00001030B70444B4FF4437101FB043393F84D
:1010E000213223B111680B7843F002030B701368AF
:1010F00000225A7002233360012504E0012F05D03D
:101100000023336001252846BDE8F08103280DD077
:10111000354B4FF4437202FB0433002283F8212243
:10112000D3F808330A2120469847E9E72E4B4FF4BD
:10113000437202FB0433012283F82122D3F80833DF
:10114000092120469847DBE7F9B2274B4FF4437259
:1011500002FB043383F81D12204601F0DDF9002361
:1011600033600125CFE7334639462046FFF78AFE34
:101170000546C8E712681C4B4FF4437101FB04336A
:1011800093F81C32137001253560BCE717F0FF0F90
:101190000BD1154B4FF4437202FB0433002283F84A
:1011A0001C22012500233360ADE7FFB2002239463F
:1011B0002046FFF7F9FC05460028F3D00A4B4FF410
:1011C000437202FB043888F81C72002288F822223D
:1011D00007212046FFF75EFCD8F808330721204698
:1011E0009847DFE700258EE77400002008B589786E
:1011F00001F096FAB0FA80F0400908BD2DE9F04FF1
:1012000083B0834688469146254B4FF4437202FBD8
:1012100000339A69526893F82302904704460025E8
:101220002E460095FF27BA4601950AE0A678E37896
:1012300046EA0326002523781D441C44AE4200D80C
:101240002EBB23781BB36378042B04D0052B0BD063
:10125000022BF0D1EAE794F803A0A778B845EAD1C9
:10126000D145E8D10194E6E74745E4D1B9F1000F53
:1012700007D0CA45DFD121465846FFF745FC00900C
:10128000D9E721465846FFF7B1FF0090D3E7019A0E
:1012900008215846FFF7FEFB009803B0BDE8F08F29
:1012A000740000202DE9F84F05460C4690461F4675
:1012B000B1F802908E8856494FF4437303FB001136
:1012C0008B695B6891F82302984782462846FFF7AE
:1012D00079FB8346002800F094804FEA1929F6B282
:1012E00063780B2B00F28B80DFE803F00689898995
:1012F0008989108989896876D8F8002000231370BD
:10130000D8F80020537002233B607AE0B9F1210F36
:1013100028D0B9F1220F4CD04FF0000B71E09AF8B1
:1013200002401A449A44904201D800286CD19AF89D
:101330000030DBB19AF801100429F0D0212909D03E
:101340000229EED19AF802009AF8032040EA02201E
:101350000022E6E7B442E4D1C8F800A09AF80030D1
:101360003B604EE0FF2400221046E0E74FF0000B08
:1013700047E00132D2B2264B4FF4437101FB0533F3
:1013800093F87432934216D905EB450303EB8313AC
:10139000134488331E4901EB83035B68002BE8D0BC
:1013A000197EB142E5D11A69C8F800205B693B603B
:1013B00027E00022DFE74FF0000B22E0D8F8002002
:1013C000134B4FF4437101FB0533334493F86432FC
:1013D000137001233B6014E062880D4B4FF443719E
:1013E00001FB0533334483F86422A1886288D2B2BA
:1013F000C9B22846FFF702FF00233B6001E04FF02F
:10140000000B5846BDE8F88F4FF0000BF9E700BF1E
:10141000740000202DE9F04383B080460C46174647
:101420001D468988CEB2FFF7CDFA8146B8B1637800
:10143000012B1CD0032B2FD0002B43D10DF1070221
:101440003146404601F0C6FA9DF807305BB13B6873
:1014500001221A703B6800225A7002232B60484612
:1014600003B0BDE8F0833B6800221A70F2E763889E
:101470001BB100232B609946F1E7144802F066FC8B
:101480003146134802F062FC124802F05FFC31461C
:10149000404601F047FAE2E7638823B14FF00009C4
:1014A00000232B60DBE7094802F050FC31460A4874
:1014B00002F04CFC074802F049FC3146404601F07E
:1014C000E9F9EDE74FF00009C9E700BFBC4B0008A0
:1014D0002C4C0008404B0008444C000810B50C7818
:1014E00004F00304012C07D0022C0AD074B9FFF7D2
:1014F000D1FD70B100200BE0FFF7D4FE60B10020F9
:1015000006E0FFF787FF50B1002001E04FF0FF3009
:1015100010BD4FF0FF30FBE74FF0FF30F8E74FF022
:10152000FF30F5E738B50D460C7804F06004202C48
:101530001ED0402C30D0002C42D1FFF7CFFF002826
:1015400001DB01203DE06B78062B03D16B88B3F5FE
:10155000C06F37D01C4802F0F9FB1C4802F05EFC5B
:101560001B4802F0F3FB2846FFF75CFB002028E055
:10157000FFF736FA002801DB012022E0124802F0D2
:10158000E5FB144802F04AFC114802F0DFFB284654
:10159000FFF748FB002014E0FFF760FB002801DBA9
:1015A00001200EE0084802F0D1FB0B4802F036FCA7
:1015B000074802F0CBFB2846FFF734FB002000E091
:1015C000002038BD0020FCE7BC4B0008584C000848
:1015D000404B0008704C0008884C000870B582B081
:1015E00005460C460846FFF71DFBE388B3F5007F70
:1015F00003D994F90030002B62DA4FF4437105FBF4
:1016000001F101F11802534B1A4404320B449A6061
:10161000E188D960E1881961002119750192E38898
:101620001BB194F900308B4258DA4FF4437305FB39
:1016300003F31033474A134401AA21462846FFF713
:1016400071FF002859D0E288424B4FF4437101FBEF
:10165000053319698A4228BF0A46DA60B2F5007F6D
:1016600058D83C4B4FF4437101FB053398680199FE
:10167000884201D0FFF716F9364B4FF4437202FB54
:101680000533DB68002B5BD0324A4FF4437101FB1A
:101690000522012182F81E122E4E4FF4437202FBE6
:1016A0000566B2688021284601F0BEF9E2883369F8
:1016B0009A4220D913F03F0F1DD1012232751AE052
:1016C000254802F043FB254802F0A8FB244802F01D
:1016D0003DFB8021284601F0DDF80CE01D4B4FF466
:1016E000437101FB0533022183F81E12E3880021B8
:1016F000284601F0E3FA02B070BD164B4FF4437276
:1017000002FB0533002283F81E228021284601F0C7
:10171000C1F8F0E7104802F019FB104802F07EFB18
:101720000F4802F013FB0B4B4FF4437202FB0533DF
:10173000002283F81E228021284601F0ABF8DAE768
:10174000044A4FF4437101FB0522032182F81E1263
:10175000A2E700BF74000020BC4B0008A04C0008AA
:10176000404B000810B504464FF44373254903FB72
:101770000011002A3CD094468A6862448A60CB6893
:10178000A3EB0C03CB6073BB4FF4437004FB00F07E
:1017900000F118031B4A134404338B6000F110035B
:1017A0000830134402442046FFF7BCFE70B1154BCD
:1017B0004FF4437202FB0433032283F81E220023FA
:1017C0001A468021204601F02FF919E00D4B4FF405
:1017D000437202FB0433002283F81E22802120463C
:1017E00001F058F80CE00021204601F067FA07E00C
:1017F000044B4FF4437202FB0033002283F81E2295
:1018000010BD00BF7400002008B5064B4FF44372B2
:1018100002FB0033002283F82222D3F8083306218A
:10182000984708BD7400002008B5094B4FF4437277
:1018300002FB003393F81D324BB1054B02FB003322
:10184000012283F82222D3F808330521984708BDE6
:1018500074000020F0B583B00546002100F05CFE66
:10186000194E4FF4437303FB0566002486F81D42AE
:1018700086F81C4286F81E4286F8234207238DF81C
:10188000003005238DF801304023ADF804308DF889
:10189000034080238DF802308DF8064069462846C3
:1018A00000F062FE8DF802406946284600F05CFEBA
:1018B000224601212846FFF7EDF8D6F8083301212A
:1018C0002846984703B0F0BD7400002038B50446A0
:1018D0004FF44373054D03FB005508222846FEF7DD
:1018E000E1FF29462046FFF779FE38BD740000204D
:1018F00010B501F07F0303EB430C4FF4437300FB7F
:1019000003F303EB8C03034C2344D3F8803203B17D
:10191000984710BD7400002010B501F07F0303EB61
:10192000430C4FF4437300FB03F303EB8C03034CB2
:101930002344D3F8C83203B1984710BD7400002087
:1019400038B50D464FF443720B4C02FB00440021A6
:10195000204602F041FBA561002384F87432802206
:1019600084F87822054AC4F8802284F8C032044BF7
:10197000C4F8C83238BD00BF74000020E10D000873
:101980006517000810B40B4C4FF4437202FB004281
:1019900092F874320B7600EB400000EB8010184494
:1019A000883004EB80046160013382F874325DF8A2
:1019B000044B70477400002010B591F800C091F9F5
:1019C0000030002B16DB0CF07F03164C03EB4302B8
:1019D0004FF4437E0EFB00F000EB8202224482F8BB
:1019E000C0C24A6803EB430300EB83000444C4F81D
:1019F000C82210BD0CF07F030A4C03EB43024FF4E6
:101A0000437E0EFB00F000EB8202224482F878C293
:101A10004A6803EB430300EB83000444C4F88022CC
:101A2000E7E700BF7400002011F0800F0ED101F035
:101A30007F0101EB41014FF4437303FB00F000EB26
:101A400081000A4B0344B3F8C202704701F07F01E2
:101A500001EB41014FF4437303FB00F000EB810005
:101A6000024B0344B3F87A02704700BF74000020B1
:101A700070B548B1124802F069F9124802F0CEF987
:101A8000114802F063F9FEE70446104B03EBC00374
:101A900059600F4D4FF4437303FB0055C5F80823FD
:101AA00000F0E6FB064600220B212046FEF7F2FF7F
:101AB000D5F808330B2120469847304670BD00BF4B
:101AC000BC4B0008BC4C0008404B0008EC04002054
:101AD000740000200048704780500008004870479C
:101AE000345000080048704728500008032903D8E4
:101AF000024B53F821007047002070471450000833
:101B000010B504461146054802F020F94023044A66
:101B10000221204601F0D2F810BD00BFCC4C0008D5
:101B2000C0030020072900D0704708B5044B0022ED
:101B30001A704023034A022101F0C0F808BD00BF1B
:101B400030050020C003002070B505460E4614463F
:101B500011460B4802F0FAF831462846FFF764FFB9
:101B6000B4FBF0F300FB134303B91CB9054B00228F
:101B70001A7070BD1A468121284600F055FFF8E71B
:101B8000E04C00083005002038B504460D464022E0
:101B90006121124802F020FA11492046FFF7D0FED9
:101BA00010492046FEF70AFE01462046FFF7EAFEEE
:101BB0000D492046FEF702FE01462046FFF7E2FEF1
:101BC0000A492046FFF7F8FE09492046FFF7F4FED0
:101BD000084A29462046FFF74BFF38BD8003002006
:101BE000F04F000814050020F80400200C0000202D
:101BF00004000020251B00081AB1044B01221A70B2
:101C00007047024B00221A70704700BFF404002096
:101C100008B5084B1B7803B908BD074B01221A70A1
:101C20003F23064A812100F0FFFE034B1B78002B67
:101C3000FBD1F1E7F40400203005002080030020F0
:101C400082B000230193019B01330193124A934216
:101C50001AD8124B03EBC0035B681A69002AF2DA48
:101C60000022019210221A61019B013301930A4A5A
:101C700093420DD8094B03EBC0035B681B6913F05B
:101C8000100FF1D1002001E04FF0FF3002B070479B
:101C90004FF0FF30FAE700BF400D0300EC040020D6
:101CA00082B000230193019B01330193134A9342B5
:101CB0001CD8134B03EBC0035B681A69002AF2DAE5
:101CC00000220192890141F020011961019B013339
:101CD00001930A4A93420DD8094B03EBC0035B689A
:101CE0001B6913F0200FF1D1002001E04FF0FF300D
:101CF00002B070474FF0FF30FAE700BF400D03001D
:101D0000EC040020032A13D009212D4B03EBC00063
:101D10004268D36843F00703D3604268D36823F472
:101D20007053D3604268D36843EA8123D36070471D
:101D3000244B0B44244A93422FD9244B0B44244A6E
:101D400093422CD9A1F57403A3F51053214A934271
:101D500027D9A1F18373A3F5E7431F4A934222D306
:101D60001E4B0B441E4A93421FD91E4B0B441E4A66
:101D700093421CD31D4B0B441D4A934219D3A1F12E
:101D8000B773A3F558531B4A934214D31A4B0B4411
:101D90001A4A934211D20721B7E70F21B5E70E2166
:101DA000B3E70D21B1E70C21AFE70B21ADE70A2125
:101DB000ABE70921A9E70821A7E70621A5E700BFAE
:101DC000EC040020405327FFFF340C00401E1BFF93
:101DD0003F420F007F4F120020D6130060B6E5FE91
:101DE0005FE3160000D3CEFE40771B00C05BB3FE5E
:101DF000C091210020753800E05459FEE09C41005C
:101E00000A4B03EBC0035B6803F500639B6803F0B8
:101E10000603022B04D0062B04D02BB900207047F8
:101E200003207047032070470F207047EC04002008
:101E30000E4B03EBC00043680022C3F8102B43682D
:101E4000D3F8102B42F40022C3F8102B4368D3F8C8
:101E5000102B42F01802C3F8102B4368D3F8102B54
:101E600042F0C042C3F8102B704700BFEC040020C2
:101E7000074A02EBC002536803EB4111D1F8080B8B
:101E8000C1F8080B536803F500635B69184070479D
:101E9000EC0400200B4B03EBC0035A68D2F8100887
:101EA000D2F8343801F00F0C23FA0CF3DB01DBB26B
:101EB000034302EB4111D1F80809C1F808091840A1
:101EC000704700BFEC04002070B51646174B03EBBB
:101ED000C0035A68546A0D4679B944EA06439362CE
:101EE000134801F033FF234632462946114801F0DA
:101EF0002DFF114801F02AFF70BD936A04EB1344D3
:101F0000002308E003F1400102EB8101496804EB82
:101F100011440133DBB2691E8B42F3D344EA06431A
:101F200005F13F0102EB81025360D9E7EC04002088
:101F3000204D0008304D0008404B000800B583B02C
:101F400000230193019B01330193304A934258D8F7
:101F50002F4B03EBC0035B681A69002AF2DA0022F8
:101F600001921A6942F001021A612A4BCC2202FB4B
:101F700000339A68284B9A421BD8019B0133019386
:101F8000224A934209D8224B03EBC0035B681B69CA
:101F900013F0010FF1D1002035E0204801F0D6FE0A
:101FA0001F4801F03BFF1F4801F0D0FE4FF0FF300B
:101FB00029E0019B01330193144A934215D8144B35
:101FC00003EBC0035B681A6912F0005FF1D01A6975
:101FD00022F001021A610E4B03EBC0035A68136929
:101FE00043F00053136100200DE00C4801F0AEFEF9
:101FF0000B4801F013FF0B4801F0A8FE4FF0FF3033
:1020000001E04FF0FF3003B05DF804FB400D03002A
:10201000EC040020000400200942544F504D0008F9
:10202000604D0008404B000808B5054B03EBC003AA
:102030005A68D36843F04003D360FFF77FFF08BDC1
:10204000EC04002008B5104B03EBC0035A68D368BA
:1020500023F0C043D360012909D081B90A4B03EBB7
:10206000C0035A68D36843F08043D36007E0064B4F
:1020700003EBC0035A68D36843F00053D3603220A7
:1020800001F094F908BD00BFEC04002010B5DC1C81
:10209000A4084FF0000E0EE0084B03EBC00CDCF878
:1020A000043003EB013C0CF5805C52F8043BCCF8A7
:1020B00000300EF1010EA645EED310BDEC04002059
:1020C0002DE9F04705460C465C49621CCC2300FB19
:1020D00003F303EB02120A4450689268821A03EB7E
:1020E000041319448F89974200D317460337BF085A
:1020F00026E0CC2305FB03F303EB04134F4E3344DC
:102100009B7B012B45D0DFF83491CC2605FB06F6EE
:1021100006EB041ACA441FFA88F3DAF810202146A5
:102120002846FFF7B3FFDAF810304344CAF81030FE
:10213000631C06EB031309EB0306B3684344B36067
:102140003F4B03EBC5035A68600102EB4411D1F821
:1021500018399BB2BB4258D3661CCC2305FB03F352
:1021600003EB0613354E33449E685B689E424CD2A7
:10217000002B4AD09B1BCC2605FB06F606EB04166B
:10218000DFF8B8C06644B6F80C809845B1D39846DD
:10219000AFE7D2F8083813F4807F24D1D1F80039A2
:1021A00023F08053C1F80039254B03EBC5035B686E
:1021B0000344D3F8002942F00052C3F80029204A12
:1021C00002EBC50253680344D3F8101921F0C04153
:1021D000C3F8101953680344D3F8102942F0005291
:1021E000C3F810298FE7D1F8003923F00053C1F864
:1021F0000039134B03EBC5035B680344D3F8002994
:1022000042F08052C3F80029D9E7631CCC2101FBBE
:1022100005F505EB0315094B2B4459689B6899425A
:1022200009D804F00F040121A140D2F8343823EA80
:102230000103C2F83438BDE8F08700BF0004002075
:10224000EC040020033292084FF0000C0AE0074B28
:1022500003EBC0035B6803F580531B6841F8043B44
:102260000CF1010C9445F2D3704700BFEC04002040
:102270002DE9F04F83B00446CC22984B02FB003A84
:102280000021504601F0A8FE2046FEF791F8944D3B
:1022900005EBC4056B689A6CC2F3012B9A6CC2F310
:1022A00081199A6CC2F3C10201929B6CC3F383281B
:1022B00008F101088B4F384601F048FD8A4801F0CB
:1022C000ADFD8A4E304601F041FD384601F03EFD3D
:1022D0006B68D96B864801F039FD304601F036FD58
:1022E000384601F033FD6B68196C824801F02EFD11
:1022F000304601F02BFD384601F028FD6B68596C23
:102300007D4801F023FD304601F020FD384601F004
:102310001DFD6B68996C794801F018FD304601F09D
:1023200015FD384601F012FD6B68D96C744801F058
:102330000DFD304601F00AFD384601F007FD6B68DF
:10234000196D704801F002FD304601F0FFFC38467F
:1023500001F0FCFC019B4A4659466B4801F0F6FC33
:10236000304601F0F3FC384601F0F0FC6B68DA6CA3
:102370000623120C4146654801F0E8FC304601F0A6
:10238000E5FC384601F0E2FC614801F047FD3046CB
:1023900001F0DCFC6B681A6CCAF80820D3F804283A
:1023A00042F00202C3F804286A68936823F001032C
:1023B00093606D68284600F0F5FFA8632046FFF79C
:1023C00033FE00212046FFF73DFE00230BE0444A88
:1023D00002EBC402526803F1400102EB81020021CA
:1023E00051600133DBB20E2BF1D93D4B03EBC4033B
:1023F0005A680021C2F8001E5A68D2F8003823F04B
:102400000303C2F80038B9F1000F5BD1344B03EB82
:10241000C4035A68D2F8003843F00303C2F8003806
:102420002F4D05EBC4056B680021C3F810186B68CD
:10243000C3F814186B68C3F81C186B6899616B6853
:102440006FF080425A616B68324A9A616A68936998
:1024500043F0100393616B684FF480725A6210224C
:102460002046FFF731FD102201212046FFF72CFD09
:10247000102202212046FFF727FD102203212046CB
:10248000FFF722FD102204212046FFF71DFD102238
:1024900005212046FFF718FD10212046FFF700FC1C
:1024A0002046FFF7CDFB6A68936843F00103936011
:1024B0006B68D3F8042822F00202C3F8042803B0A2
:1024C000BDE8F08F064B03EBC4035A68D2F800381E
:1024D00043F00103C2F80038A2E700BF0004002067
:1024E000EC040020204D0008744D0008404B00080B
:1024F0009C4D0008A84D0008B84D0008C84D0008C4
:10250000D84D0008E84D0008F84D00082C4E000892
:10251000884E000800380C800A4B03EBC00042686C
:10252000D2F8003823F4FE63C2F800384268D2F8CB
:102530000038090101F4FE610B43C2F800380020A5
:10254000704700BFEC040020064B03EBC0035B6840
:1025500003F500639B6813F0060F01D10320704759
:1025600002207047EC04002070B50C468B7803F015
:102570007F0105293DD813F0800F54D1A588C5F3FC
:102580000A05CC2300FB03F303EB01135A4A13445F
:10259000A3F86C50E27802F0030283F86E20574AE9
:1025A00002EBC0025068D0F81C5801F1100601235C
:1025B000B3406FF30F032B43C0F81C38536803EB91
:1025C0004113D3F8002B12F4004F10D1D3F8002B95
:1025D000A188C1F30A01E078800400F4402001439F
:1025E0000A4342F0805242F40042C3F8002B00201C
:1025F00070BD434E304601F0A9FB4FF43673414A9B
:102600004149424801F0A2FB414D284601F09EFBA2
:10261000304601F09BFBA1783E4801F097FB28462D
:1026200001F094FBFEE7002941D1344B03EBC003DA
:102630005B689A6A120CA388C3F30A03B3EB820F98
:1026400040DCCC2200FB02F202EB01122A4D2A44AC
:102650009381E37803F003039373284A02EBC002EB
:102660005568D5F81C6801238B409BB23343C5F8ED
:102670001C38536803EB4113D3F8002912F4004FC0
:1026800012D1D3F80029A588C5F30A05E478A4047B
:1026900004F440242C4344EA8154224342F0805203
:1026A00042F40042C3F80029FFF7FAFA9FE7134B00
:1026B00003EBC0035B6801F13F0203EB82035A683E
:1026C000120CB8E70E4E304601F040FB40F2EE230C
:1026D0000C4A11490D4801F039FB0D4D284601F017
:1026E00035FB304601F032FBA1780C4801F02EFB9F
:1026F000284601F02BFBFEE700040020EC0400203C
:10270000504D0008AC4E0008FC4E00081C4F00085D
:10271000404B0008384F0008504F0008904F000809
:1027200030B482B001F07F030022019211F0800FDB
:1027300058D1574A02EBC00254685A0104EB4313C4
:10274000D3F8004B002C1FDB514B03EBC003586840
:1027500000F5006CD0F83C4801F0070101208840EA
:1027600024EA0044CCF83C405968D1F81C4824EADB
:102770000040C1F81C085B681A440023C2F8003B03
:10278000002002B030BC7047D3F8004B44F0006426
:10279000C3F8004B3E4B03EBC0035B681344D3F814
:1027A000004B44F08044C3F8004B00230193019B8D
:1027B000013301934CF2503C63450AD8344B03EB90
:1027C000C0035B68134403F530639B6813F0020F8A
:1027D000EDD02F4B03EBC0035B6813440224C3F816
:1027E000084BB1E72A4A02EBC00254685A0104EBD5
:1027F0004313D3F80049002C1BDB254B03EBC0002F
:102800004468D4F83C5801F0070101238B409BB287
:1028100025EA0305C4F83C584168D1F81C4824EA6D
:102820000303C1F81C3843681A440023C2F8003976
:10283000A6E7D3F8004944F00064C3F80049144BFC
:1028400003EBC0035B681344D3F8004944F08044B1
:10285000C3F8004900230193019B013301934CF21B
:10286000503C63450AD80A4B03EBC0035B68134432
:1028700003F510639B6813F0020FEDD0044B03EBDC
:10288000C0035B6813440224C3F80849B5E700BFDE
:10289000EC04002010B401F07F0311F0800F20D170
:1028A0001F4A02EBC00251685A0101EB4311D1F8F3
:1028B000004B002C06DB2BB1D1F8003B23F080430A
:1028C000C1F8003B164B03EBC0035B681344D3F81D
:1028D000002B42F40012C3F8002B00205DF8044BDB
:1028E00070470F4A02EBC00251685A0101EB4311D5
:1028F000D1F80049002C06DB2BB1D1F8003923F0C8
:102900008043C1F80039064B03EBC0035B681344F6
:10291000D3F8002942F40012C3F80029DDE700BF14
:10292000EC04002001F07F0311F0800F28D1274A2A
:1029300002EBC00252684FEA431C02EB4312D2F88A
:10294000001B21F40011C2F8001BCC2200FB02F294
:1029500002EB03131E4A134493F86E30023BDBB2C2
:10296000012B01D900207047184B03EBC0035B68B3
:102970009C44DCF8003B43F08053CCF8003BF1E78B
:10298000124A02EBC00252684FEA431C02EB4312A8
:10299000D2F8001921F40011C2F80019CC2200FB72
:1029A00002F202EB03130A4A13449B7B023BDBB2A5
:1029B000012BD7D8054B03EBC0035B689C44DCF8C4
:1029C000003943F08053CCF80039CBE7EC04002009
:1029D0000004002001F07F0C11F0800F11D1114B89
:1029E00003EBC0035B6803EB4C13D3F8003B13F419
:1029F000001F03D0012313700020704700231370C1
:102A0000FAE7084B03EBC0035B6803EB4C13D3F806
:102A1000003913F4001F02D001231370ECE70023E8
:102A20001370E9E7EC040020F8B58C46114612F06B
:102A3000030F40F091801A460CF07F03002900F04C
:102A4000A48063B1944C04EBC004646804EB4314A9
:102A5000D4F80049C4F30A04002C00F017818F4C0D
:102A60004FF0CC0E0EFB00FE0EEB03152544296142
:102A7000591C0EEB011E04EB0E014A6000248C6011
:102A8000854C04EBC00461684FEA431E01EB43111F
:102A9000D1F810596FF3DC45C1F81059616801EBAA
:102AA0004311D1F810496FF31204C1F81049002AFC
:102AB00071D0002B40F08480CC2100FB01F101EBB0
:102AC0000311764C21448989914200D311465C1C44
:102AD000CC2200FB02F202EB0412704C2244516043
:102AE0006D4C04EBC00462687244D2F8105945F48E
:102AF0000025C2F8105962687244D2F81049C1F337
:102B000012052C43C2F81049CC2200FB02F202EB62
:102B10000313624A13449B7B012B75D05E4B03EB7E
:102B2000C0035B689E44DEF8003943F00443CEF8EE
:102B30000039002900F0AD80574B03EBC0035B6800
:102B4000D3F834280CF00F0C012101FA0CF10A43E0
:102B5000C3F83428002032E0514D284601F0F6F841
:102B600040F275334F4A5049504801F0EFF8504C4D
:102B7000204601F0EBF8284601F0E8F84D4801F056
:102B80004DF9204601F0E2F8FEE7002A3FF459AF84
:102B90004FF0FF3013E0404A02EBC0025368734429
:102BA000D3F8101941F40021C3F810195368734485
:102BB000D3F8002942F00442C3F800290020F8BDF0
:102BC000CC2100FB01F101EB0311344C2144898934
:102BD0008C18013CB4FBF1F42F4D05EBC00569687E
:102BE0007144D1F81069344F07EAC4443443C1F842
:102BF000104969687144D1F81049C2F312052C4399
:102C0000C1F8104911467FE7234B03EBC0035B6813
:102C1000D3F8082812F4807F25D17344D3F8002913
:102C200022F08052C3F800291B4B03EBC0035B6802
:102C30007344D3F8002942F00052C3F80029164A21
:102C400002EBC00253687344D3F8104924F0C04427
:102C5000C3F8104953687344D3F8102942F0005266
:102C6000C3F810295AE77344D3F8002922F0005220
:102C7000C3F80029084B03EBC0035B687344D3F827
:102C8000002942F08052C3F80029D8E76FF0010014
:102C900095E7002093E700BFEC040020000400202B
:102CA000504D0008AC4E0008B04F00081C4F000803
:102CB000404B0008CC4F00080000F81F70B512F020
:102CC000030F40F0818001F07F01002A00F0958021
:102CD00061B18B4C04EBC004646804EB4114D4F87C
:102CE000004BC4F30A04002C00F00681854C4FF021
:102CF000CC0C0CFB00FC0CEB011525442A67CA1D0B
:102D00000CEB021C04EB0C025360002494607C4C1E
:102D100004EBC00462684FEA411C02EB4112D2F896
:102D2000105B6FF3DC45C2F8105B626802EB411286
:102D3000D2F8104B6FF31204C2F8104B002B62D084
:102D4000002940F08580CC2200FB02F202EB011248
:102D50006C4C2244B2F86C209A4200D31A46CC1D27
:102D6000CC2300FB03F303EB0413664C23445A60AB
:102D7000634C04EBC00463686344D3F8105B45F410
:102D80000025C3F8105B63686344D3F8104BC2F3AB
:102D900012022243C3F8102BCC2300FB03F303EBF6
:102DA0000113584A134493F86E30012B75D0544BDD
:102DB00003EBC0035B689C44DCF8003B43F0044336
:102DC000CCF8003B002070BD4F4D284600F0BEFF00
:102DD00040F2BE334D4A4E494E4800F0B7FF4E4CCC
:102DE000204600F0B3FF284600F0B0FF4B4801F04A
:102DF00015F8204600F0AAFFFEE7002B3FF468AF6D
:102E00004FF0FF30DFE73E4A02EBC00253686344F5
:102E1000D3F8104B44F40024C3F8104B53686344B8
:102E2000D3F8105BCC2404FB00F000EB0111354813
:102E30000144B1F86C102943C3F8101B5368634474
:102E4000D3F8002B42F00442C3F8002B0020BAE76D
:102E5000CC2200FB02F202EB01122A4C2244B2F80F
:102E60006C20D418013CB4FBF2F4254D05EBC005F1
:102E70006A686244D2F810EB294E06EAC4444EEA6E
:102E80000404C2F8104B6A686244D2F8104BC3F3D2
:102E900012032343C2F8103B7EE7194B03EBC00338
:102EA0005B68D3F8082812F4807F12D16344D3F80A
:102EB000002B22F08052C3F8002B114B03EBC00310
:102EC0005B686344D3F8002B42F00052C3F8002B38
:102ED0006DE76344D3F8002B22F00052C3F8002BB7
:102EE000074B03EBC0035B686344D3F8002B42F04D
:102EF0008052C3F8002B5AE76FF0010063E700BF70
:102F0000EC04002000040020504D0008AC4E0008E6
:102F1000B04F00081C4F0008404B0008CC4F000881
:102F20000000F81F2DE9F84FBB4B03EBC0035B68B3
:102F30005E699A6916405D6915F0010540F06A8185
:102F40000446002E00F0668116F0100F1AD09A6920
:102F500022F010029A61B04B03EBC0035B681F6A5A
:102F600007F00F0107F4F013B3F5802F1BD0B3F572
:102F7000402F2FD0A84B03EBC4035A68936943F04A
:102F80001003936116F4002F00F09A80A24B03EB1C
:102F9000C4035B68D3F8187803F50063DB691F404E
:102FA0003F0CA84640E0C7F30A17002FE2D0CC221E
:102FB00000FB02F202EB0112984B03EB02083A46C7
:102FC000D8F87010FFF73EF9D8F870303B44C8F8D5
:102FD0007030CFE7C7F30A12CC21904B01FB0031D0
:102FE000FFF730F9C6E78C4B03EBC4035B6803EBD8
:102FF000481303F530631B69C3F31203D21A08F1B7
:103000000701CC2304FB03F303EB011383490B44B7
:103010009A60002159602046FEF77EFC1AF0080FE6
:1030200046D17F0808F10108002F49D017F0010FA1
:10303000F7D05FFA88F949462046FEF719FF824625
:1030400010F0010FEAD0B8F1000F13D108F1070218
:10305000CC2304FB03F303EB0213704A13445A68B6
:10306000002AC0D1CC216D4B01FB04312046FEF774
:10307000DFFED3E708F10702CC2304FB03F303EBE5
:103080000213664919444A68634B03EBC4035B6847
:1030900003EB481303F530631B69C3F31203D21A21
:1030A0008A6000234B6049462046FEF735FCB5E7B1
:1030B000CC215A4B01FB04312046FEF707FCB0E758
:1030C00016F4802F79D0544B03EBC4035B68D3F81C
:1030D000187803F50063DB691F40BFB226E0514654
:1030E0002046FEF7A5FE1CE06A1CCC2304FB03F37C
:1030F00003EB0213494919444A68474B03EBC403E5
:103100005B6803EB451303F510631B69C3F31203FC
:10311000D21A8A6000234B6049F080012046FEF7F6
:10312000E7FB18F0800F43D17F080135002F44D012
:1031300017F0010FF8D05FFA85F949462046FEF7EF
:10314000A9FE804610F0010FEBD0002DCCD1DFF8A6
:10315000CCA06B1C4FF0CC0B0BFB04FB0BEB031355
:1031600053445A682C4901EBC401496801EB4511ED
:1031700001F510610969C1F31201521A9A60002128
:10318000596080212046FEF7B3FBDA44BAF80630D6
:1031900023B1224911F90B20002AA0DA002BC0D15B
:1031A000CC211E4B01FB04312046FEF741FEB8E75F
:1031B00049462046FEF784FFB6E716F4805F2FD11C
:1031C00016F4005F40F0B98016F4001F06D0124BD1
:1031D00003EBC4035B684FF400125A6116F4801FBE
:1031E00006D00D4B03EBC4035B684FF480125A61A9
:1031F00016F4006F40F0BA80002EC0F2C28016F0C4
:10320000040F07D0044B03EBC4035B6859685A688A
:103210000A435A60BDE8F88FEC0400200004002047
:103220005D4B03EBC4035A684FF4805151615B68F6
:10323000D3F8042822F00102C3F804281021204604
:10324000FEF72EFD2046FEF7FBFC002333E0524A3A
:1032500002EBC402516801EB43114FF00060C1F86A
:103260000009526802EB4312C2F8000B07E04FF06E
:103270009040C1F8000930E00021C2F8001B464927
:1032800001EBC4014A6802EB43120025C2F8105951
:103290004A6802EB43124FF6FF30C2F808094A6849
:1032A00002EB4312C2F8105B4A6802EB4312C2F809
:1032B000080B0133DBB2052B1DD8002BC7D0364AD3
:1032C00002EBC40251685A0101EB4311D1F8000925
:1032D0000028CCDB0020C1F800092F4901EBC40114
:1032E00049680A44D2F8001B0029C5DA4FF0904122
:1032F000C2F8001BC3E7284B03EBC4035A68D2F89B
:103300001C1841F00111C2F81C185A680921C2F8B2
:1033100014185B680122C3F81028CC221F4D02FB51
:1033200004550021284600F057FE2046FEF792FA89
:1033300029462046FEF77CFD42E7174D05EBC40504
:103340006B684FF400525A61154B1F682046FEF718
:1033500057FD024639462046FEF7D4FC6B68D3F889
:10336000042842F48072C3F804282DE70A4B03EBCB
:10337000C4035B684FF400625A612046FEF754FABA
:103380003AE7054B03EBC4035B684FF000425A6118
:103390002046FEF739FA32E7EC0400200004002052
:1033A000000000204FF4341070470000074B1B68EA
:1033B000074AA2FB03239B0903FB00F001E000BFC7
:1033C0001846431E0028FAD1704700BF00000020B5
:1033D000D34D6210F0B50568C6684FF0000C03E0ED
:1033E0000CF1010C1FFA8CFCBCF10F0F18D84FF038
:1033F000010E0EFA0CFE1EEA030FF1D04FEA4C0448
:103400004FF0030E0EFA04FE25EA0E0501FA04F74A
:103410003D4326EA0E0E02FA04F444EA0E06DFE704
:103420000560C660F0BD10B5012906D0416821EAEB
:10343000030141608468002105E04168194341604F
:10344000F8E7013189B20F2913D84FF0010C0CFABB
:1034500001FC1CEA030FF4D04FEA410C4FF0030EBD
:103460000EFA0CFE24EA0E0402FA0CFC4CEA0404E8
:10347000E7E7846010BD30B5046A456A002301E0C7
:1034800001339BB2072B13D84FF0010C0CFA03FC4D
:103490001CEA020FF4D04FEA830E4FF00F0C0CFA27
:1034A0000EFC24EA0C0401FA0EFE4EEA0404E7E7DF
:1034B000082301E001339BB20F2B15D84FF0010C0C
:1034C0000CFA03FC1CEA020FF4D0A3F1080C4FEA3B
:1034D0008C0C4FF00F0E0EFA0CFE25EA0E0501FAC9
:1034E0000CFC4CEA0505E5E70462456230BD0000CE
:1034F00040F0BF6040F40030014BD860704700BF1F
:1035000000ED00E070B505460E461446274BDB681B
:1035100003F4E063B3F5E06F25D0244BDB6803F4DC
:10352000E063B3F5C06F38D0204BDB6803F4E06391
:10353000B3F5A06F34D01D4BDB6803F4E063B3F543
:10354000806F30D0194BDB6803F4E063B3F5407F44
:1035500002D10023042208E04FF4A060FFF7C8FF67
:1035600002231A4601E004230022C2F1040296401D
:10357000C3F104030F2222FA03F31C403443240155
:10358000E4B20B4A531983F8004305F01F016D099B
:1035900001238B4042F8253070BD03230122E4E76C
:1035A00002231A46E1E701230322DEE700ED00E0F3
:1035B00000E100E021F0604121F07F010143024B76
:1035C0009960BFF34F8F704700ED00E0830903F16E
:1035D000804303F50E331A6800F01F00012181407B
:1035E0000A431A607047830903F1804303F50E33E1
:1035F0001A6800F01F00012181400A431A607047D9
:10360000830903F1804303F50E331A6800F01F00AD
:103610000121814022EA01021A607047044AD2F86F
:10362000C03823F001030343C2F8C038704700BF1D
:1036300000300240044AD2F8C03823F002030343AA
:10364000C2F8C038704700BF0030024010B588B0E3
:103650008446344C94E80F000DF1200E0EE90F0063
:1036600002AB103494E8030083E80300CDE90001C5
:103670002D4BD3F80838C3F38103012B1FD0022B45
:1036800044D1294AD2F8044804F03F04D2F804187F
:10369000C1F38811D2F80438C3F3014301335B004E
:1036A000D2F8042812F4800F07D02048B0FBF4F0C1
:1036B00001FB00F0B0FBF3F002E01D48F6E71B4809
:1036C0001949D1F80838C3F3031320336B4413F8B6
:1036D000102C20FA02F2D1F80838C3F382232033E9
:1036E0006B4413F8183C22FA03F4D1F80838C3F3FA
:1036F000423320336B4413F8203C22FA03F3BCF12D
:10370000030F05D8DFE80CF00706090B0848D7E7D8
:10371000002000E0104608B010BD2046FBE7184628
:10372000F9E700BFF04A00080030024000127A00BA
:103730000024F40008B5334B98425AD021D8A3F5A1
:10374000305398424CD010D8A3F50063984235D03E
:1037500003F58063984230D140F61200FFF743FF33
:1037600040F61200FFF74CFF27E0274B984224D188
:1037700040F61400FFF737FF40F61400FFF740FF54
:103780001BE0224B984210D003F5806398421ED074
:10379000A3F51843984210D140F61F00FFF723FF0E
:1037A00040F61F00FFF72CFF07E040F60410FFF77C
:1037B0001AFF40F60410FFF723FF08BD40F6110082
:1037C000FFF711FF40F61100FFF71AFFF5E740F68B
:1037D0000510FFF708FF40F60510FFF711FFECE7B3
:1037E00040F61300FFF7FFFE40F61300FFF708FF57
:1037F000E3E740F61E00FFF7F6FE40F61E00FFF777
:10380000FFFEDAE700780040005000400010014061
:1038100038B504460D462E4B98424DD01BD8A3F523
:103820003053984244D00DD8A3F5006398423BD062
:1038300003F58063984203D10220FFF707FF1EE0E3
:1038400000201CE0234B984203D10220FFF7FEFE2C
:1038500015E0002013E0204B98420DD003F5806363
:1038600098421DD0A3F51843984203D10220FFF7D8
:10387000EDFE04E0002002E00320FFF7E7FEE3682E
:1038800013F4004F1CD06B0803EB4003B3FBF5F3BC
:103890004FF6F0721A40C3F342031343A36038BDDE
:1038A0000320FFF7D3FEEAE70220FFF7CFFEE6E7AB
:1038B0000220FFF7CBFEE2E70220FFF7C7FEDEE7BC
:1038C00000EB5500B0FBF5F080B2A060E7E700BF69
:1038D000007800400050004000100140C36843F4ED
:1038E0000053C3607047C36823F008030B43C360F1
:1038F0007047C36823F004030B43C3607047C1F3F0
:103900000801416070478B091B5801F01F01CB4033
:1039100013F0010F01D00120704700207047000014
:10392000002301E00133DBB2092B1AD80D4803EB69
:103930004302910000EB010C425801324250DCF886
:1039400004108A42EED301218CF808109CF809205B
:10395000002AE7D003EB43018A000146002088508B
:10396000E0E77047340500202DE9F0410446434B61
:1039700033F81000FFF72AFE414B33F81400FFF72D
:1039800025FE404B33F81400FFF720FE3E4B53F862
:1039900024703E4B53F8248042463D4B53F824108C
:1039A0003846FFF768FD3B4B53F824503A4B53F829
:1039B00024603246394B53F824102846FFF75BFD4C
:1039C0004346012202213846FFF704FD4346022206
:1039D00000213846FFF727FD334601220221284601
:1039E000FFF7F8FC3346022200212846FFF71BFDB3
:1039F0002B4B53F824502846FFF79CFE294B53F8D5
:103A000024102846FFF704FF04212846FFF771FF22
:103A100008212846FFF767FF2846FFF75FFF032CC2
:103A200024D8DFE804F0020B131B1F4B18570022A9
:103A30000221C0B2FFF766FDBDE8F0811A4B1857AE
:103A400000220221C0B2FFF75DFDF5E7164B1857C3
:103A500000221146C0B2FFF755FDEDE7124B185793
:103A600000220121C0B2FFF74DFDE5E7002202214F
:103A70000D4B185DFFF746FDDEE700BF0C51000857
:103A8000D450000814510008EC500008DC50000825
:103A9000FC500008B4500008A4500008C4500008AE
:103AA00020510008945000081C51000810B5002453
:103AB00004E02046FFF758FF0134E4B2032CF8D9A4
:103AC00010BD000008B501460448FFF718FF0721A4
:103AD0000248FFF718FF0028F9D008BD0010014088
:103AE00010B50446C0B2FFF7EDFF204610BD000040
:103AF0000346094A10680344084A934205D3084A1A
:103B0000934205D8044A136070474FF0FF30704766
:103B10004FF0FF30704700BF14000020F80600206F
:103B2000F80A002070B50C461646002504E014F88B
:103B3000010BFFF7D5FF0135B542F8DB304670BD0C
:103B40004FF0FF3070474FF400534B600020704738
:103B5000012070470020704770B50C4616460025BE
:103B600006E0AFF30080214601F8010B01350C4659
:103B7000B542F6DB304670BD002103E00B4B5B58CD
:103B8000435004310A480B4B42189A42F6D30A4A72
:103B900002E0002342F8043B084B9A42F9D3FCF7B9
:103BA000C7FC00F067FAFCF733FC7047745100085B
:103BB0000000002074000020CC040020F806002043
:103BC000FEE70000002310B50446C0E90033C0E959
:103BD0000433836081814366C28183611946082270
:103BE0005C3000F0F9F90D4B63620D4BA3620D4B95
:103BF000E3620D4B23630D4B24629C4206D003F11C
:103C00006802944202D0D0339C4205D104F158009E
:103C1000BDE8104000F052BA10BD00BF2D3E0008B4
:103C20004F3E0008873E0008AD3E0008AC0500206E
:103C3000024A0349034800F06BB800BF1800002097
:103C4000594900082800002041680C4B994210B5E2
:103C5000044601D000F080FEA168094B994202D0D1
:103C6000204600F079FEE168064B994204D02046D8
:103C7000BDE8104000F070BE10BD00BFAC050020D4
:103C8000140600207C0600200C4B0D4A0D4810B590
:103C900004211A600022FFF795FF0A4B01221C46FF
:103CA000092103F16800FFF78DFF04F1D000022223
:103CB000BDE810401221FFF785BF00BFE4060020D9
:103CC000313C0008AC050020014800F0F8B900BF05
:103CD000ED060020014800F0F3B900BFED0600201A
:103CE00010B50446FFF7F0FF236A1BB1BDE8104092
:103CF000FFF7F0BF044B2362044B1B68002BF5D188
:103D0000FFF7C2FFF2E700BF493C0008E4060020CD
:103D10002DE9F8430746884614460026D4E9019564
:103D2000B9F1010905D52468002CF7D13046BDE86A
:103D3000F883AB89012B07D9B5F90E30013303D0D5
:103D400029463846C04706436835E9E70FB407B54A
:103D5000064904AB086853F8042B8168019300F00E
:103D6000D3FA03B05DF804EB04B0704724000020E0
:103D7000036A70B5846805460E460BB9FFF7B0FFBD
:103D8000636EDB0705D4A389980502D4A06D00F00B
:103D900096F9A389190702D52369002B35D121464D
:103DA000284600F0C5F880B34FF0FF35636EDA07A0
:103DB00005D4A3899B0502D4A06D00F081F92846A3
:103DC00070BD002B04DAA269934217DB0A2915D0D3
:103DD00023685A1C22601970A36816F8011F013B62
:103DE000A3600029EDD1002B11DA22460A212846D2
:103DF00000F060F80130D7D00A25D7E722462846E0
:103E000000F058F80130E7D1CEE7013EE4E723683F
:103E10005A1C22600A221A70EEE70000024B01468B
:103E20001868FFF7A5BF00BF2400002010B50C469E
:103E3000B1F90E1000F0FAF80028ABBF636DA3894A
:103E40001B1823F48053ACBF6365A38110BD2DE91B
:103E5000F0411F468B89DB0505460C46164605D505
:103E6000B1F90E100223002200F0CEF8A389B4F9B4
:103E70000E1023F48053A38132463B462846BDE80A
:103E8000F04100F0E5B810B50C46B1F90E1000F0A5
:103E9000BBF8B4F90C30421C0BBF23F4805343F43D
:103EA0008053A381A38118BF606510BDB1F90E10C6
:103EB00000F09AB8F8B50E461446054618B1036AE4
:103EC0000BB9FFF70DFFA369A360A3891A0701D5FA
:103ED000236943B92146284600F02AF818B14FF06B
:103EE000FF373846F8BD23682269981A6369F6B22D
:103EF0008342374605DC2146284600F02DFD002888
:103F0000EDD1A368013BA36023685A1C22601E7098
:103F10006269431C9A4204D0A389DB07E1D50A2ECB
:103F2000DFD12146284600F017FD0028D9D0D6E77A
:103F300038B5284B054618680C4618B1036A0BB90A
:103F4000FFF7CEFEB4F90C301A0721D4D80607D4F7
:103F500009222A6043F04003A3814FF0FF3030E094
:103F6000590712D5616B41B104F14403994202D063
:103F7000284600F0A7F8002363630022B4F90C3050
:103F800062602269226023F0240343F00803A381C6
:103F900022693AB99A0501D5180603D52146284663
:103FA00000F026FDB4F90C3013F001020AD0002213
:103FB000A26062695242A261226942B913F0800094
:103FC000C8D138BD990758BF6269A260F4E70020E4
:103FD000F7E700BF2400002002440346934200D1CB
:103FE000704703F8011BF9E738B5064D0023044676
:103FF00008462B60FFF7A4FD431C02D12B6803B1D8
:10400000236038BDE806002038B5074D0446084651
:10401000114600222A601A46FFF79CFD431C02D17C
:104020002B6803B1236038BDE806002038B5074D82
:1040300004460846114600222A601A46FFF78CFD06
:10404000431C02D12B6803B1236038BDE806002071
:1040500038B5074D04460846114600222A601A4624
:10406000FFF760FD431C02D12B6803B1236038BD0C
:10407000E806002070B50D4B0D4D5B1B9C10002613
:10408000A64209D100F020FD0A4D0B4B5B1B9C1092
:104090000026A64205D170BD55F8043B984701366D
:1040A000EEE755F8043B98470136F2E76C510008FB
:1040B0006C5100086C51000870510008704770473F
:1040C0007047000038B50546002941D051F8043C3E
:1040D0000C1F002BB8BFE41800F0E0F81D4A13686D
:1040E00033B9636014602846BDE8384000F0DCB89E
:1040F000A34208D9206821188B4201BF19685B6868
:1041000009182160EDE71A465B680BB1A342FAD9A2
:1041100011685018A0420BD1206801445018834206
:104120001160E0D118685B68536008441060DAE7FA
:1041300002D90C232B60D6E7206821188B4204BFDC
:1041400019685B68636004BF091821605460CAE79E
:1041500038BD00BFF406002070B50F4E0C46316824
:10416000054611B900F0A0FC30602146284600F059
:104170009BFC431C03D14FF0FF34204670BDC41C90
:1041800024F00304A042F8D0211A284600F08CFC49
:104190000130F2D1EFE700BFF00600202DE9F8432F
:1041A000CD1C25F0030508350C2D38BF0C25002D3E
:1041B000064601DBA94204D90C2333600020BDE888
:1041C000F883DFF8D48000F069F8D8F800301C4696
:1041D00044BB29463046FFF7BFFF431C044658D175
:1041E000D8F800402746002F43D1002C4BD023683D
:1041F0003946304604EB030900F056FC814542D1B4
:1042000021686D1A29463046FFF7A6FF01303AD0E3
:1042100023682B442360D8F800305A6862BBC8F882
:1042200000700FE02268521B20D40B2A17D96119A5
:10423000A342256018BF5960636808BFC8F8001022
:1042400062514B60304600F02FF804F10B00231D43
:1042500020F00700C21A1CBF1B1AA350AFE7626808
:10426000A3420CBFC8F800205A60EBE723466468FD
:10427000AEE73C467F68B6E71A465B68A342FBD1CF
:1042800000235360DEE70C233360304600F00CF867
:1042900094E70560D6E700BFF40600200148FFF769
:1042A0000EBF00BFEC0600200148FFF709BF00BFAA
:1042B000EC0600209368013B002B10B4936008DAF1
:1042C0009469A34201DB0A2903D15DF8044BFFF78F
:1042D000F1BD1368581C1060197008465DF8044B56
:1042E0007047F8B506460F461446D518AC4201D1C2
:1042F000002007E014F8011B3A463046FFF7DAFFCA
:10430000431CF3D1F8BD00002DE9F04F0D469DB0E0
:1043100014469846064618B1036A0BB9FFF7E0FC4D
:104320006B6ED90705D4AB899A0502D4A86DFFF747
:10433000C6FEAB891B0701D52B699BB929463046C0
:10434000FFF7F6FD70B16B6EDC0704D54FF0FF3060
:104350001DB0BDE8F08FAB899805F7D4A86DFFF7C5
:10436000AFFEF3E70023099320238DF82930CDF821
:104370000C803023DFF8AC818DF82A304FF0010932
:1043800023469A4613F8012B0AB1252AF9D1BAEB34
:10439000040B0BD05B46224629463046FFF7A1FFAF
:1043A000013000F0A780099A5A4409929AF8003027
:1043B000002B00F09F8000234FF0FF32CDE9052352
:1043C0000AF1010A049307938DF853301A93544667
:1043D000052214F8011B5348FBF7E2FE049AD8B9F2
:1043E000D10644BF20238DF85330130744BF2B233D
:1043F0008DF853309AF800302A2B15D0079A54467E
:1044000000204FF00A0C214611F8013B303B092BEC
:104410004BD9B0B1079214E0A0EB080309FA03F3FB
:1044200013430493A246D2E7039B191D1B68039113
:10443000002BBBBF5B4242F0020207930793B8BF59
:10444000049223782E2B0AD163782A2B32D1039B36
:104450001A1D1B68039243EAE37302340593DFF8E5
:10446000D4A0217803225046FBF79AFE38B1049B72
:10447000A0EB0A004022824013430134049314F855
:10448000011B29488DF828100622FBF789FE002819
:104490003FD0264B1BBB039B073323F00703083396
:1044A0000393099B3B4409936AE70CFB02320C46D9
:1044B0000120A8E700230134059319464FF00A0CA8
:1044C000204610F8012B303A092A03D9002BC6D018
:1044D0000591C4E70CFB012104460123F0E703AB7F
:1044E00000932A46124B04A93046AFF300800746DA
:1044F000781CD6D16B6ED90705D4AB899A0502D446
:10450000A86DFFF7DDFDAB895B063FF51FAF09988E
:104510001EE703AB00932A46054B04A9304600F082
:1045200079F8E4E7305100083A5100080000000033
:10453000E3420008365100082DE9F0471646984638
:104540008A680B69DDF820909342B8BF1346336048
:1045500091F8432007460C460AB1013333602368C3
:10456000990642BF336802333360256815F00605AB
:1045700006D104F1190AE36832689B1AAB4226DCC3
:1045800094F843302268003B18BF012392062BD4D5
:1045900004F1430241463846C84701301ED0236823
:1045A000226903F00603042B02BFE5683368ED1AA5
:1045B000A3680CBF25EAE57500259342C4BF9B1A8A
:1045C000ED1800261A34B5421AD1002008E0012364
:1045D000524641463846C847013003D14FF0FF30BC
:1045E000BDE8F0870135C6E7E1185A1C302081F894
:1045F0004300224494F8451082F843100233C7E781
:104600000123224641463846C8470130E6D00136EC
:10461000D9E700002DE9FF470F7E0C9E782F9146C9
:1046200080460C469A4601F1430207D8622F0AD809
:10463000002F00F0D280582F00F0B78004F142061E
:1046400084F842703AE0A7F16303152BF6D801A174
:1046500051F823F0AD460008C14600083D46000869
:104660003D4600083D4600083D460008C14600089A
:104670003D4600083D4600083D4600083D4600080E
:10468000C1470008EB460008774700083D46000890
:104690003D460008E34700083D460008EB46000899
:1046A0003D4600083D4600087F47000833681A1D54
:1046B0001B68326004F1420684F8423001239DE019
:1046C00033682068191D3160060601D51D6803E0B6
:1046D0004506FBD5B3F90050002D03DA2D236D42BA
:1046E00084F8433059480A2310E0216833680806EB
:1046F00053F8045B02D4490648BFADB26F2F53484C
:10470000336059D10823002184F843106668A660FD
:10471000002E05DB21682E4321F0040121604DD0DD
:104720001646B5FBF3F103FB1157C75D06F8017D93
:104730002F46BB420D46F4D9082B0BD12368DF0767
:1047400008D5236961689942DEBF302306F8013C31
:1047500006F1FF36921B2261CDF800A04B4603AA5A
:1047600021464046FFF7E8FE01304CD14FF0FF30C4
:1047700004B0BDE8F087236843F020032360344889
:10478000782784F84570236831681F0651F8045B68
:1047900002D45F0648BFADB23160D90744BF43F0D1
:1047A000200323601DB11023ADE72848E9E7236803
:1047B00023F020032360F6E70A23A4E71646BBE7AD
:1047C000336825686169181D30602E061B6801D5A5
:1047D000196002E06806FBD51980002323611646A4
:1047E000BAE733681A1D32601E68626800213046DD
:1047F000FBF7D6FC08B1801B60606368236100236F
:1048000084F84330A8E72369324649464046D047FA
:104810000130ABD023689B0713D4E068039B984218
:10482000B8BF1846A4E70123324649464046D04760
:1048300001309BD00135E36803995B1AAB42F2DC8F
:10484000EBE7002504F11906F5E700BF4151000828
:1048500052510008B1F90C202DE9F0411607054628
:104860000C4651D44B68002B02DC0B6C002B49DD4D
:10487000E66A002E46D0002312F480522F682B6087
:1048800031D0626DA389590705D56368D21A636B6D
:104890000BB1236CD21A0023E66A216A2846B0477E
:1048A000421CB4F90C3006D129681D2946D8294A82
:1048B000CA40D60742D500226260D904226922602C
:1048C00004D5421C01D12B6803B96065616B2F6070
:1048D000C1B104F14403994202D02846FFF7F2FB2C
:1048E000002363630EE0216A01232846B047024695
:1048F000501CC7D12B68002BC4D01D2B01D0162B08
:104900001AD12F6000201EE00F69002FFAD0930704
:104910000E6808BF4B690F6018BF0023A6EB07089D
:104920008B60B8F1000FEDDD216AA66A43463A4676
:104930002846B047002808DCB4F90C3043F04003A7
:10494000A3814FF0FF30BDE8F0810744A8EB0008D9
:10495000E7E700BF0100402038B50B6905460C466B
:1049600013B90025284638BD18B1036A0BB9FFF703
:10497000B7F9B4F90C30002BF3D0626ED00704D431
:10498000990502D4A06DFFF79AFB28462146FFF750
:1049900061FF636EDA070546E4D4A3899B05E1D481
:1049A000A06DFFF78DFBDDE770B50C46B1F90E1079
:1049B000002996B015461E460ADAA18911F0800139
:1049C00013D14FF48062002031602A6016B070BDB0
:1049D0006A4600F047F80028EFDB019901F47041C6
:1049E000A1F5005359425941EBE700214022EAE783
:1049F0008B8973B59E0705460C4607D504F147031E
:104A0000236023610123636102B070BD01AB6A467C
:104A1000FFF7CAFF009E28463146FFF7BFFBB4F9F7
:104A20000C3038B99A05EFD423F0030343F00203A6
:104A3000A381E3E743F08003A381019B2060C4E9E5
:104A40000406002BE0D0B4F90E10284600F01CF844
:104A50000028D9D0A38923F0030343F00103A381E5
:104A6000D2E7000038B5074D00230446084611463A
:104A70002B60FFF768F8431C02D12B6803B1236059
:104A800038BD00BFE806002038B5064D00230446B7
:104A900008462B60FFF75CF8431C02D12B6803B17A
:104AA000236038BDE806002038B5064D00230446D3
:104AB00008462B60FFF71CF8431C02D12B6803B19A
:104AC000236038BDE8060020F8B500BFF8BC08BC7C
:104AD0009E467047F8B500BFF8BC08BC9E467047BC
:104AE000000000000000000001020304060708099E
:104AF000000000000000000001020304060708098E
:104B000000000000010203041B5B33336D5B572F71
:104B10005553425D20000000556E68616E646C65FF
:104B2000642043444320436C617373206252657177
:104B300075657374203078253032780D0A000000D6
:104B40001B5B306D000000001B5B33326D5B492F37
:104B5000757362645F636F72655D20005365747581
:104B6000703A20626D526571756573745479706521
:104B7000203078253032782C20625265717565734B
:104B800074203078253032782C207756616C75652A
:104B9000203078253034782C2077496E6465782071
:104BA0003078253034782C20774C656E6774682017
:104BB0003078253034780D0A000000001B5B33315B
:104BC0006D5B452F757362645F636F72655D200076
:104BD000756E6B6E6F776E2076656E646F72206394
:104BE0006F64650D00000000737472696E67207356
:104BF000697A65206F766572666C6F770D000000CC
:104C000064657363726970746F72203C7479706547
:104C10003A25782C696E6465783A25783E206E6F67
:104C20007420666F756E64210D0A000065703A2568
:104C300030327820636C6561722068616C740D0A93
:104C40000000000065703A253032782073657420CA
:104C500068616C740D0A00007374616E6461726443
:104C60002072657175657374206572726F720D00C4
:104C7000636C6173732072657175657374206572FE
:104C8000726F720D0000000076656E646F722072A4
:104C9000657175657374206572726F720D00000026
:104CA00052657175657374206275666665722074ED
:104CB0006F6F20736D616C6C0D0000006275732066
:104CC0006F766572666C6F770D00000061637475B6
:104CD000616C206F7574206C656E3A25640D0A0056
:104CE00061637475616C20696E206C656E3A256431
:104CF0000D0A000043686572727955534200000046
:104D000043686572727955534220434443204445B9
:104D10004D4F0000323032323132333435360000FC
:104D20001B5B33326D5B492F5553425D2000000001
:104D30006669666F25642073697A653A2530347830
:104D40002C206F66667365743A253034780D0A003E
:104D50001B5B33316D5B452F5553425D20000000D6
:104D6000445743322072657365742074696D656FB2
:104D700075740D003D3D3D3D3D3D3D3D3D3D206457
:104D80007763322075646320706172616D73203DBA
:104D90003D3D3D3D3D3D3D3D3D0D00004349443AD7
:104DA000253038780D0A000047534E505349443A95
:104DB000253038780D0A0000474857434647313AB6
:104DC000253038780D0A0000474857434647323AA5
:104DD000253038780D0A0000474857434647333A94
:104DE000253038780D0A0000474857434647343A83
:104DF000253038780D0A00006477633220667370BE
:104E0000687920747970653A25642C20687370681D
:104E10007920747970653A25642C20646D61207363
:104E20007570706F72743A25640D0A00647763328E
:104E30002068617320256420656E64706F696E74EC
:104E40007320616E6420646669666F2064657074A7
:104E5000682833322D62697420776F726473292059
:104E600069732025642C2064656661756C74206309
:104E70006F6E6669673A20256420656E64706F699D
:104E80006E74730D0A0000003D3D3D3D3D3D3D3DCE
:104E90003D3D3D3D3D3D3D3D3D3D3D3D3D3D3D3D42
:104EA0003D3D3D3D3D3D3D3D3D0D0000453A2F47DB
:104EB0004433322F30312D50726F6A6563742F671F
:104EC0006433325F636D616B652F6C69627261720E
:104ED0006965732F4368657272795553422D312E7F
:104EE000352E302F706F72742F647763322F757385
:104EF000625F64635F647763322E630065705F692D
:104F00006478203C20434F4E4649475F5553424406
:104F100045565F45505F4E554D0000004153534587
:104F20005254204641494C205B25735D204020258A
:104F3000733A25640D0A0000457020616464722094
:104F400025303278206F766572666C6F770D0A00B7
:104F5000286669666F5F73697A65202A2034292084
:104F60003E3D205553425F4745545F4D41585041A7
:104F7000434B455453495A452865702D3E774D6142
:104F8000785061636B657453697A6529000000008D
:104F9000457020616464722025303278206669662D
:104FA0006F206F766572666C6F770D0A00000000E7
:104FB00021282875696E7433325F742964617461C5
:104FC00020252030783034290000000064776332D7
:104FD0002064617461206D75737420626520342DC6
:104FE0006279746520616C69676E65640D0000000C
:104FF000D51A0008DD1A0008E51A000800000000B4
:10500000ED1A000800000000000000000000000091
:105010000000000024500008F44C0008004D000877
:10502000144D0008090400000A06000200000040B8
:105030000000000009024B000201008032080B0052
:10504000020202000009040000010202000205241D
:1050500000100105240100010424020205240600B9
:10506000010705830308000A09040100020A000081
:105070000007050202400000070581024000000011
:1050800012010002EF020140FFFFFFFF00010102D9
:105090000301000000C2010000C2010000C20100C3
:1050A00000000000000400004000000000080000B4
:1050B0000000000000000240000C0240000402401A
:1050C00000000000070000000700000007000000CB
:1050D00000000000000C030C000C000000020000A7
:1050E000200000000004000000000000000002405A
:1050F000000C024000040240000000000700000015
:10510000070000000700000000000000000C000C79
:10511000010C0000041111101210000025262700B8
:105120000010014000440040004800400000000022
:10513000232D302B2000686C4C0065666745464780
:105140000030313233343536373839414243444503
:105150004600303132333435363738396162636472
:045160006566000080
:085164002CB0FF7F01000000E8
:04516C00A90200088C
:0451700081020008B0
:10517400007A030A81000000491B000802000000B5
:10518400011B0008F80600200000000003000000D6
:10519400AC0500202800002000000000AC05002021
:1051A400140600207C06002000000000000000001F
:1051B40000000000000000000000000000000000EB
:1051C40000000000000000000000000000000000DB
:1051D40000000000000000000000000000000000CB
:0451E40000000000C7
:1051E80000000000000000000000000000000000B7
:1051F80000000000000000000000000000000000A7
:105208000000000000000000000000000000000096
:105218000000000000000000000000000000000086
:0400000508003B793B
:00000001FF
