:020000040800F2
:10000000E820002029020008F1020008E9020008A7
:10001000ED020008E50200089D0400080000000051
:100020000000000000000000000000003B0200088B
:100030003D020008000000003F020008890300089C
:10004000430200084302000843020008430200087C
:10005000430200084302000843020008430200086C
:10006000430200084302000843020008430200085C
:10007000430200084302000843020008430200084C
:10008000430200084302000843020008430200083C
:10009000430200084302000843020008430200082C
:1000A000430200084302000843020008430200081C
:1000B000430200084302000843020008430200080C
:1000C00043020008430200084302000843020008FC
:1000D00043020008430200084302000843020008EC
:1000E00043020008430200084302000843020008DC
:1000F00043020008430200084302000843020008CC
:1001000043020008310300084302000843020008CC
:1001100043020008430200084302000843020008AB
:10012000430200084302000843020008430200089B
:10013000430200084302000843020008430200088B
:10014000430200084302000843020008430200087B
:10015000430200084302000843020008430200086B
:10016000430200084302000843020008430200085B
:100170004302000843020008430200080000000098
:10018000430200084302000800F002F800F03CF8C7
:100190000AA090E8000C82448344AAF10107DA45E2
:1001A00001D100F031F8AFF2090EBAE80F0013F0F8
:1001B000010F18BFFB1A43F001031847B0080000F5
:1001C000D0080000103A24BF78C878C1FAD8520786
:1001D00024BF30C830C144BF04680C6070470000C1
:1001E0000023002400250026103A28BF78C1FBD840
:1001F000520728BF30C148BF0B6070471FB500F0E1
:1002000022FC1FBD10B510BD00F031F81146FFF7FC
:10021000F5FF00F0BDFA00F04FF803B4FFF7F2FF6E
:1002200003BC00F057F80000094880470948004720
:10023000FEE7FEE7FEE7FEE7FEE7FEE7FEE7FEE796
:10024000FEE7FEE704480549054A064B70470000F3
:10025000A103000889010008E8000020E820002030
:10026000E8100020E810002070477047704775467E
:1002700000F02CF8AE4605006946534620F0070012
:10028000854618B020B5FFF7DDFFBDE820404FF0F0
:1002900000064FF000074FF000084FF0000BAC468F
:1002A000ACE8C009ACE8C009ACE8C009ACE8C009DA
:1002B00021F007018D46704710B50446AFF300806A
:1002C0002046BDE81040FFF7A8BF00000048704777
:1002D0000800002001491820ABBEFEE726000200FE
:1002E00070470000FFE7FEE7FFE7FEE7FFE7FEE7F6
:1002F0007047000082B0019000910198B0F1FF3F7B
:100300000BDCFFE700980001019901F00F014EF6A8
:100310001452CEF20002885408E0009800010199BE
:100320004EF20042CEF200028854FFE702B070475E
:100330007047000080B582B0009000980138B0F19D
:10034000807F03D3FFE70120019019E00098013876
:100350004EF21401CEF2000108604FF0FF300F2181
:10036000FFF7C8FF4EF21801CEF20001002008602E
:100370004EF21002CEF20002072111600190FFE759
:10038000019802B080BD000080B540F26801C2F261
:10039000000108680130086000F040FA80BD0000EC
:1003A00080B582B04EF68851CEF20001086840F464
:1003B0007000086043F60001C4F20201086840F0D2
:1003C00001000860FFE743F60000C4F20200006885
:1003D0008007002801D4FFE7F5E7FFE743F60801AF
:1003E000C4F20201086840F080000860002001901B
:1003F000FFE701984F2805D8FFE7FFE70198013094
:100400000190F6E743F60801C4F20201086840F0E3
:100410009000086000200190FFE701984F2805D860
:10042000FFE7FFE7019801300190F6E7FFE743F6A9
:100430000801C4F20201086820F00300086043F6D6
:100440000002C4F2020210684FF6FF73CFF6F663A3
:1004500018401060106820F48020106000200860B0
:10046000FFE743F60800C4F202000068012008B963
:10047000FFE7F6E743F60401C4F2020143F210007D
:10048000C2F20040086043F60C01C4F202010020F1
:10049000086000F0BBFA02B080BD0000FFE7FEE795
:1004A00080B54FF4A06000F085F94FF000600021A6
:1004B00000F08EF900F0AEFA80BD000080B584B087
:1004C0000390039940F66020C0F6000050F8210028
:1004D00000F092F9039A40F66820C0F60000009000
:1004E00050F8220040F66421C0F60001019151F855
:1004F000223001210022029200F0B2F80098019906
:10050000029A039B50F8230051F82330114600F063
:10051000F5F804B080BD000080B582B000200190E5
:10052000FFE7019858B9FFE70198FFF7C7FF019867
:1005300000F008F8FFE7019801300190F1E702B000
:1005400080BD000080B582B00190019A40F668201D
:10055000C0F6000050F8220040F66421C0F6000109
:1005600051F8221000F06CF802B080BD80B582B066
:100570000190019A40F66820C0F6000050F8220071
:1005800040F66421C0F6000151F8221000F060F836
:1005900002B080BD80B582B0019001984FF47A71AD
:1005A000484300F003F802B080BD000085B004901D
:1005B00000200090049840F20001C2F20001096896
:1005C0004DF68362C4F21B32A1FB0221890C484321
:1005D00003904EF21800CEF2000000680290FFE790
:1005E0004EF21800CEF200000068019001980299C6
:1005F000884222D0FFE701980299884207D2FFE79C
:1006000002980199411A0098084400900CE04EF2BB
:100610001400CEF2000000680199401A02990144CA
:10062000009808440090FFE7019802900098039911
:10063000884201D3FFE701E0FFE7D1E705B070474B
:1006400082B00190009100980199886202B07047D1
:1006500082B00190009100980199C86202B0704781
:1006600087B0069005910492039306980068019064
:100670000698C06800900020ADF80A00FFE7BDF8BA
:100680000A000F2832D8FFE7BDF80A100398C840C7
:10069000C00720B3FFE7BDF80A004100032000FABD
:1006A00001F20199914301910599BDF80A20520088
:1006B00001FA02F2019911430191BDF80A104900B3
:1006C00000FA01F10098884300900498BDF80A10E0
:1006D000490000FA01F1009808430090FFE7FFE7A6
:1006E000BDF80A000130ADF80A00C8E70198069984
:1006F000086000980699C86007B0704786B00590FA
:100700008DF81310039202939DF81300012806D16F
:10071000FFE7029A059948681043486005E0029A8D
:100720000599486890434860FFE705988068009005
:100730000020ADF80600FFE7BDF806000F2821D81D
:10074000FFE7BDF806100298C840C00798B1FFE760
:10075000BDF806004100032000FA01F1009888432B
:1007600000900398BDF80610490000FA01F10098C6
:1007700008430090FFE7FFE7BDF806000130ADF841
:100780000600D9E700980599886006B07047000018
:1007900080B582B000200190FFF782FEFFF7BCFE1B
:1007A000FFE70020FFF7E2FE4FF4FA70FFF7F2FEDA
:1007B000F7E7000081B0009000980021C0F2FA51E4
:1007C00008434EF60C51CEF20001086001B07047AC
:1007D00082B001900091019800994FF68072C1F6A5
:1007E000FF72114008434EF60851CEF20001086036
:1007F000BFF34F8F02B0704781B00090009800F0B7
:100800001F02012101FA02F3810943F60002C4F23A
:10081000020288581843885001B0704781B0002008
:100820000090FFE70098092839D8FFE7009800EB0F
:10083000400240F26C01C2F2000151F82200013086
:1008400041F82200009A02EB420201EB8201496862
:1008500088421FD3FFE7009800EB400140F26C0094
:10086000C2F2000000EB810201211172009901EB3C
:10087000410100EB8100407A58B1FFE7009800EB9E
:10088000400240F26C01C2F20001002041F8220057
:10089000FFE7FFE7FFE7009801300090C2E701B0F3
:1008A0007047000082B00020019043F60001C4F2BE
:1008B0000201086840F480300860FFE743F600005A
:1008C000C4F20200016800208903002900900AD4C4
:1008D000FFE70198411C01914FF6FF71401A18BFC4
:1008E00001200090FFE70098C00708B1FFE7E5E7A7
:1008F00043F60000C4F202000068800300280CD414
:10090000FFE7FFE743F60000C4F20200006880033F
:10091000002801D4FFE7F5E7FFE743F64001C4F202
:100920000201086840F08050086047F20001C4F2FC
:100930000001086840F44040086043F60801C4F232
:10094000020108680860086840F400400860086810
:1009500040F4A050086043F60401C4F2020145F2DD
:100960000840C0F24070086043F60001C4F2020182
:10097000086840F080700860FFE743F60000C4F2AA
:10098000020000688001002801D4FFE7F5E747F284
:100990000001C4F20001086840F480300860FFE7FD
:1009A00047F20400C4F200000068C003002801D42C
:1009B000FFE7F5E747F20001C4F20001086840F4E0
:1009C00000300860FFE747F20400C4F2000000684E
:1009D0008003002801D4FFE7F5E743F60801C4F2DD
:1009E0000201086820F003000860086840F0020077
:1009F0000860FFE743F60800C4F202000068000741
:100A0000002801D4FFE7F5E702B0704780B5FFF793
:100A100049FF80BD80B540F20000C2F200000068CE
:100A200044F6D351C1F26201A0FB01108009FFF727
:100A300081FC10B1FFE7FFE7FEE74FF0FF300F2129
:100A4000FFF758FC80BDF1EE100A4FF6FF71C0F2BF
:100A5000C03120EA010040F04070E1EE100A70471A
:100A6000010C00000400000000040240900A00088D
:100A70000000002008000000C4010008980A0008D7
:100A800008000020E0200000E00100080000000055
:080A9000007A030A00000000D7
:040000050800018965
:00000001FF
