:020000040800F2
:10000000F020002029020008E1020008D9020008BF
:10001000DD020008D50200085504000800000000B9
:100020000000000000000000000000003B0200088B
:100030003D020008000000003F02000841030008E4
:10004000430200084302000843020008430200087C
:10005000430200084302000843020008430200086C
:10006000430200084302000843020008430200085C
:10007000430200084302000843020008430200084C
:10008000430200084302000843020008430200083C
:10009000430200084302000843020008430200082C
:1000A000430200084302000843020008430200081C
:1000B000430200084302000843020008430200080C
:1000C00043020008430200084302000843020008FC
:1000D00043020008430200084302000843020008EC
:1000E00043020008430200084302000843020008DC
:1000F00043020008430200084302000843020008CC
:1001000043020008E5020008430200084302000819
:1001100043020008430200084302000843020008AB
:10012000430200084302000843020008430200089B
:10013000430200084302000843020008430200088B
:10014000430200084302000843020008430200087B
:10015000430200084302000843020008430200086B
:10016000430200084302000843020008430200085B
:100170004302000843020008430200080000000098
:10018000430200084302000800F002F800F03CF8C7
:100190000AA090E8000C82448344AAF10107DA45E2
:1001A00001D100F031F8AFF2090EBAE80F0013F0F8
:1001B000010F18BFFB1A43F001031847400B000062
:1001C000600B0000103A24BF78C878C1FAD85207F3
:1001D00024BF30C830C144BF04680C6070470000C1
:1001E0000023002400250026103A28BF78C1FBD840
:1001F000520728BF30C148BF0B6070471FB500F0E1
:1002000070FD1FBD10B510BD00F031F81146FFF7AD
:10021000F5FF00F057F900F04FF803B4FFF7F2FFD5
:1002200003BC00F03BF9000009488047094800473B
:10023000FEE7FEE7FEE7FEE7FEE7FEE7FEE7FEE796
:10024000FEE7FEE704480549054A064B70470000F3
:100250005903000889010008F0000020F020002068
:10026000F0100020F010002070477047704775466E
:1002700000F02CF8AE4605006946534620F0070012
:10028000854618B020B5FFF7DDFFBDE820404FF0F0
:1002900000064FF000074FF000084FF0000BAC468F
:1002A000ACE8C009ACE8C009ACE8C009ACE8C009DA
:1002B00021F007018D46704710B50446AFF300806A
:1002C0002046BDE81040FFF7A8BF00000048704777
:1002D00008000020FFE7FEE7FFE7FEE7FFE7FEE795
:1002E0007047000080B500F03DFA80BD80B582B057
:1002F000009000980138B0F1807F03D3FFE7012020
:10030000019019E0009801384EF21401CEF200017C
:1003100008604FF0FF300F2100F09EF84EF21801F8
:10032000CEF20001002008604EF21002CEF2000270
:10033000072111600190FFE7019802B080BD000025
:1003400080B540F26801C2F200010868013008601F
:1003500000F0AAFB80BD000080B582B04EF6885147
:10036000CEF20001086840F47000086043F6000116
:10037000C4F20201086840F001000860FFE743F69C
:100380000000C4F2020000688007002801D4FFE7E3
:10039000F5E7FFE743F60801C4F20201086840F000
:1003A0008000086000200190FFE701984F2805D8E1
:1003B000FFE7FFE7019801300190F6E743F60801F7
:1003C000C4F20201086840F090000860002001902B
:1003D000FFE701984F2805D8FFE7FFE701980130B4
:1003E0000190F6E7FFE743F60801C4F2020108684E
:1003F00020F00300086043F60002C4F20202106815
:100400004FF6FF73CFF6F66318401060106820F4C3
:100410008020106000200860FFE743F60800C4F267
:1004200002000068012008B9FFE7F6E743F604017F
:10043000C4F2020143F21000C2F20040086043F629
:100440000C01C4F202010020086000F02DFC02B093
:1004500080BD0000FFE7FEE782B08DF80700009145
:100460009DF9070000280AD4FFE7009800019DF9D4
:1004700007104EF20042CEF2000288540BE00098C2
:1004800000019DF8071001F00F014EF61452CEF254
:1004900000028854FFE702B07047000081B000906E
:1004A00001B0704780B54FF4A06000F013F84EF62D
:1004B0000851CEF200014FF00060086000F0F8FB38
:1004C00080BD000080B582B000200190FFF7EAFFF8
:1004D000FFE7FEE781B0009000980021C0F2FA51DA
:1004E00008434EF60C51CEF20001086001B070478F
:1004F00080B584B08DF80E001D208DF80D00002011
:100500000290019042F63440C4F20100006802906B
:10051000FFE79DF8080010F0450F07D1FFE742F60E
:100520003440C4F2010000680290F2E79DF8080030
:10053000C00758B1FFE711208DF80D00012000F031
:100540003FFA9DF80D008DF80F0044E09DF808007B
:10055000400700280BD5FFE713208DF80D0004207D
:1005600000F02EFA9DF80D008DF80F0033E0FFE744
:1005700000F0EEF99DF80E10884208D0FFE7082041
:100580008DF80D009DF80D008DF80F0023E040F26E
:10059000FF70C0F2C00000F013FA002000F046FA2D
:1005A000019001984EF20801CFF6F951084208D1A6
:1005B000FFE71D208DF80D009DF80D008DF80F0050
:1005C00009E0019800F00CF88DF80D009DF80D0081
:1005D0008DF80F00FFE79DF80F0004B080BD00000C
:1005E00082B001901C208DF803009DF807000006E2
:1005F000002804D5FFE700208DF80300ADE09DF84A
:1006000007004006002804D5FFE701208DF803000D
:10061000A2E09DF807008006002804D5FFE702202D
:100620008DF8030097E09DF80700C006002804D568
:10063000FFE703208DF803008CE09DF8070000071A
:10064000002804D5FFE704208DF8030081E09DF821
:1006500007004007002804D5FFE705208DF80300B8
:1006600076E09DF80700C00720B1FFE706208DF86F
:1006700003006CE09DF806000006002804D5FFE7A3
:1006800007208DF8030061E09DF806004006002871
:1006900004D5FFE708208DF8030056E09DF806001A
:1006A0008006002804D5FFE709208DF803004BE001
:1006B0009DF80600C006002804D5FFE70A208DF843
:1006C000030040E09DF806000007002804D5FFE77E
:1006D0000B208DF8030035E09DF80600C00720B11F
:1006E000FFE70C208DF803002BE09DF805000006C5
:1006F000002804D5FFE70D208DF8030020E09DF8C9
:1007000005004006002804D5FFE70E208DF8030001
:1007100015E09DF805008006002804D5FFE70F20AE
:100720008DF803000AE09DF804000007002804D5B6
:10073000FFE710208DF80300FFE7FFE7FFE7FFE783
:10074000FFE7FFE7FFE7FFE7FFE7FFE7FFE7FFE779
:10075000FFE7FFE7FFE7FFE7FFE79DF8030002B0D1
:100760007047000080B582B040F20401C2F200017F
:100770001D2008704FF4807000F042F998B3FFE735
:1007800040F27000C2F200000068012808D1FFE7C3
:1007900000F0C4F840F20401C2F20001087006E063
:1007A00040F20401C2F200011D200870FFE74FF47F
:1007B000807000F01BF94CF23A3000F00BF940F277
:1007C000EC01C2F200010120086040F26C01C2F2AB
:1007D00000010020086040F20400C2F2000000782E
:1007E0008DF8070095E0022000F00AF9B8B1FFE7A4
:1007F000022000F0FBF84CF23A3000F0EBF840F247
:100800006C01C2F200010020086040F20400C2F254
:1008100000001221017000788DF8070079E00820AF
:1008200000F0EEF8B8B1FFE7082000F0DFF84CF276
:100830003A3000F0CFF840F26C01C2F20001002023
:10084000086040F20400C2F2000014210170007838
:100850008DF807005DE04FF4007000F0D1F8C0B1F2
:10086000FFE74FF4007000F0C1F84CF23A3000F0AE
:10087000B1F840F26C01C2F200010020086040F2C1
:100880000400C2F200001721017000788DF8070003
:100890003FE0102000F0B4F8B8B1FFE7102000F0FE
:1008A000A5F84CF23A3000F095F840F26C01C2F233
:1008B00000010020086040F20400C2F2000015218F
:1008C000017000788DF8070023E0202000F098F8F0
:1008D000B8B1FFE7202000F089F84CF23A3000F080
:1008E00079F840F26C01C2F200010020086040F289
:1008F0000400C2F200001621017000788DF8070094
:1009000007E040F20400C2F2000000788DF8070012
:10091000FFE79DF8070002B080BD000080B584B0FD
:100920001D208DF80F000C20029000210191402223
:1009300000F016F8019800F0A7F800F037F80298D8
:10094000FFF7D6FD8DF80F009DF80F0004B080BDB5
:1009500042F61040C4F201000068C0B270470000C7
:1009600084B00390029101920020009042F60C4165
:10097000C4F201010A6822F480620A6042F6084269
:10098000C4F20102136810600298106008680090B9
:10099000009820F0FF0000900398019A024300980D
:1009A000104300900098086004B0704742F60C4174
:1009B000C4F20101086840F48060086070470000DC
:1009C00081B00090009842F63841C4F201010860FD
:1009D00001B0704781B00090009A42F63C41C4F2E9
:1009E000010108689043086001B0704781B0009031
:1009F000009842F63841C4F20101086001B0704726
:100A000082B0019000208DF8030042F63440C4F219
:100A1000010000680199084204D0FFE701208DF829
:100A20000300FFE79DF8030002B0704783B0029017
:100A30000020019002980090032820D80099DFE858
:100A400001F00209101742F61440C4F201000068D8
:100A5000019015E042F61840C4F2010000680190D0
:100A60000EE042F61C40C4F201000068019007E06D
:100A700042F62040C4F201000068019000E0FFE768
:100A8000019803B07047000081B0009042F60C411D
:100A9000C4F20101086820F440700860009A0868F8
:100AA0001043086001B0704781B000208DF803004A
:100AB000FFE79DF80300092840DCFFE79DF80300ED
:100AC00000EB400240F27401C2F2000151F8220032
:100AD000013041F822009DF8032002EB420201EBB5
:100AE00082014968884222D3FFE79DF8030000EBAA
:100AF000400140F27400C2F2000000EB81020121CB
:100B000011729DF8031001EB410100EB8100407A66
:100B100060B1FFE79DF8030000EB400240F2740172
:100B2000C2F20001002041F82200FFE7FFE7FFE7E3
:100B30009DF8030001308DF80300BAE701B070475B
:100B400082B00020019043F60001C4F2020108685F
:100B500040F480300860FFE743F60000C4F2020072
:100B6000016800208903002900900AD4FFE701985A
:100B7000411C01914FF6FF71401A18BF01200090EF
:100B8000FFE70098C00708B1FFE7E5E743F600007C
:100B9000C4F202000068800300280CD4FFE7FFE7DE
:100BA00043F60000C4F2020000688003002801D46C
:100BB000FFE7F5E7FFE743F64001C4F202010868EA
:100BC00040F08050086047F20001C4F2000108685C
:100BD00040F44040086043F60801C4F2020108688E
:100BE0000860086840F400400860086840F4A050BD
:100BF000086043F60401C4F2020145F20840C0F265
:100C00004070086043F60001C4F20201086840F039
:100C100080700860FFE743F60000C4F2020000683D
:100C20008001002801D4FFE7F5E747F20001C4F294
:100C30000001086840F480300860FFE747F20400D4
:100C4000C4F200000068C003002801D4FFE7F5E704
:100C500047F20001C4F20001086840F40030086067
:100C6000FFE747F20400C4F2000000688003002898
:100C700001D4FFE7F5E743F60801C4F20201086872
:100C800020F003000860086840F002000860FFE7F9
:100C900043F60800C4F2020000680007002801D4EF
:100CA000FFE7F5E702B0704780B5FFF749FF80BD69
:100CB00080B540F20000C2F20000006844F6D35153
:100CC000C1F26201A0FB01108009FFF70FFB10B118
:100CD000FFE7FFE7FEE74FF0FF300F21FFF7BCFB18
:100CE00080BDF1EE100A4FF6FF71C0F2C03120EA6C
:100CF000010040F04070E1EE100A7047200D00083E
:100D00000000002008000000C4010008280D0008B1
:100D100008000020E8200000E001000800000000BA
:080D2000007A030A1D00000027
:040000050800018965
:00000001FF
