:020000040800F2
:10000000C8F70020E5020008452000083D20000850
:1000100041200008F91F0008B52100080000000079
:10002000000000000000000000000000F7020008CF
:10003000F902000800000000FB020008A1200008EF
:10004000FF020008FF020008FF020008FF0200088C
:10005000FF020008FF020008FF020008FF0200087C
:10006000FF020008FF020008FF020008FF0200086C
:10007000FF020008FF020008FF020008FF0200085C
:10008000FF020008FF020008FF020008FF0200084C
:10009000FF020008FF020008FF020008FF0200083C
:1000A000FF020008FF020008FF020008FF0200082C
:1000B000FF020008FF020008FF020008FF0200081C
:1000C000FF020008FF020008FF020008FF0200080C
:1000D000FF020008FF020008FF020008FF020008FC
:1000E000FF020008FF020008FF020008FF020008EC
:1000F000FF020008FF020008FF020008FF020008DC
:10010000FF02000849200008FF020008FF02000863
:10011000FF020008FF020008FF020008FF020008BB
:10012000FF020008FF020008FF020008FF020008AB
:10013000FF020008FD1F0008FF020008FF02000880
:10014000FF020008FF020008FF020008FF0200088B
:10015000FF020008FF020008FF020008FF0200087B
:10016000FF020008FF020008FF020008FF0200086B
:10017000FF020008FF020008FF0200080000000064
:10018000FF020008FF02000800F002F800F09AF8F1
:100190000AA090E8000C82448344AAF10107DA45E2
:1001A00001D100F08FF8AFF2090EBAE80F0013F09A
:1001B000010F18BFFB1A43F001031847502101003B
:1001C00070210100103A24BF78C878C1FAD85207CC
:1001D00024BF30C830C144BF04680C6070470000C1
:1001E0000023002400250026103A28BF78C1FBD840
:1001F000520728BF30C148BF0B6070476E2900F01E
:100200002782702900F05D83662911F0F283652949
:1002100011F0EF83672911F0EC83612911F0EB8372
:1002200003681B0A28BF41F08001692900F0D481CE
:10023000642900F0D181752900F0CE816F2900F08A
:10024000EB82782900F02983E92900F08582E429EE
:1002500000F08282F52900F07F82EF2900F0E88229
:10026000F82900F028830368DB0928BF41F08001EA
:10027000632901F07780732901F07C80E32901F084
:100280008780F32901F08C80002070471FB511F0A2
:10029000A3FB9DE8030001F099FC00F033F9040092
:1002A0000020002111F06CFB401C60600020002148
:1002B00011F07CFBE06001F07BF81FBD10B501F090
:1002C000E0F810BD01F072F91146FFF7DFFF08F00A
:1002D00051FF01F01BFC03B4FFF7F0FF03BC01F07A
:1002E000F3FD00000948804709480047FEE7FEE7A4
:1002F000FEE7FEE7FEE7FEE7FEE7FEE7FEE7FEE7D6
:1003000004480549054A064B70470000B92000081B
:1003100089010008C8D70020C8F70020C8E70020DE
:10032000C8E7002010B500F0EDF8001D10BD00BFBB
:10033000511601000FB4044910B503AA029800F049
:100340009BF910BC5DF814FB7400002040EA010327
:1003500010B59B070FD1042A0DD310C808C9121F6E
:100360009C42F8D020BA19BA884201D9012010BDA8
:100370004FF0FF3010BD1AB1D30703D0521C07E075
:10038000002010BD10F8013B11F8014B1B1B07D1D9
:1003900010F8013B11F8014B1B1B01D1921EF1D14A
:1003A000184610BD10B5431C02E010F8011B71B1D6
:1003B0008107FAD14FF0013202C88C1A8C4314EA3B
:1003C000C211F9D0C01A0A0603D0C01E10BDC01A4F
:1003D00010BD0A0401D0801E10BD0902FCD0401ED1
:1003E00010BD032A40F2308010F0030C00F015809D
:1003F00011F8013BBCF1020F624498BF11F801CB28
:1004000000F8013B38BF11F8013BA2F1040298BF8C
:1004100000F801CB38BF00F8013B11F0030300F0F6
:100420001F83083AC0F0088051F8043B083A51F89D
:1004300004CBA0E80810F5E7121D5CBF51F8043B9F
:1004400040F8043BAFF30080D20724BF11F8013B12
:1004500011F801CB48BF11F8012B24BF00F8013B74
:1004600000F801CB48BF00F8012B70474FF00002A5
:100470000429C0F0128010F0030C00F01B80CCF1B6
:10048000040CBCF1020F18BF00F8012BA8BF20F824
:10049000022BA1EB0C0100F00DB85FEAC17C24BF78
:1004A00000F8012B00F8012B48BF00F8012B704722
:1004B0004FF0000200B5134694469646203922BFFD
:1004C000A0E80C50A0E80C50B1F12001BFF4F7AF48
:1004D000090728BFA0E80C5048BF0CC05DF804EB2A
:1004E000890028BF40F8042B08BF704748BF20F898
:1004F000022B11F0804F18BF00F8012B7047704796
:1005000070477047004870473C0100200048704722
:100510001C01002070B5044685690068C10601D53C
:10052000302600E02026C00707D070BDD4E90121A5
:1005300030469047206A401C20626D1EF6D570BD83
:1005400070B5044685690078C00707D170BDD4E94D
:10055000012120209047206A401C20626D1EF6D5A4
:1005600070BD09684A0501D540B27047C905FCD580
:1005700000B2704709684A0501D5C0B27047C90585
:10058000FCD580B2704770B50C460546012A05D0EF
:100590002878800600D5EA69002302E0012305E0FF
:1005A0005B1C934202D2E05C0028F9D1A869E618EE
:1005B000C01AA861286A184428622846FFF7AAFFD3
:1005C00004E0D5E9012114F8010B9047B442F8D3B7
:1005D0002846FFF7B5FF70BD2DE9F041064600241F
:1005E00010687529314616A510D0FFF7BAFF00280C
:1005F00002DA404213A507E031688A0701D512A547
:1006000002E0490704D511A5012401E0FFF7B2FF7C
:1006100000210A2206F1240709E0B0FBF2FCB0FB3E
:10062000F2F302FB1C00303078541846491C0028B5
:10063000F3D123462A463046BDE8F04100F08BBA9C
:10064000000000002D0000002B0000002000000032
:1006500011680268006A530501D508700AE0D305E5
:1006600001D5088006E0130603D5C217C1E90002D0
:1006700000E0086001207047074B70B50D467B44D1
:1006800000F053FE0446284600F08EFE10B14FF0F5
:10069000FF3070BD204670BDE11201002DE9FF5F03
:1006A00015468A460446DFF8AC80F8440027D8E9AE
:1006B00000103E46CDE9001010E03AF816106A46E8
:1006C00002A800F011FF411C07D02178890603D54C
:1006D000E269391891420DD80744761C20788006CB
:1006E00002D5E069B84205DDAE42E6DB3AF8160015
:1006F0000028E2D1A069C01BA0612046FFF70AFFD5
:10070000D8E90010CDE90010002017E03AF81810E1
:100710006A4602A800F0E8FEB0F1FF3F81460BD028
:1007200000250DF1080B05E0D4E901211BF80500B7
:1007300090476D1C4D45F7D308F10100B04280464B
:10074000E4DB206A384420622046FFF7F9FEBDE86A
:10075000FF9F00004E1301002DE9F0418046D21D9D
:1007600022F007020025D2E90002F52915A614D0CF
:10077000011E72F1000106DA0023D0EB030063EBE7
:10078000020211A608E0D8F800108B0701D50FA6C9
:1007900002E0490701D50EA601251146002408F103
:1007A000240704E000F092F930323A55641C50EA14
:1007B0000102F7D12B46324621464046BDE8F041C2
:1007C00000F0C9B9000000002D0000002B0000005F
:1007D0002000000030B4002100F1240408E002F001
:1007E0000705D208303542EA4372DB086554491CDC
:1007F00052EA0305F3D10468002310A2250708D5A7
:1008000004F020040C4304D0C46901230CA2641E2C
:10081000C46130BC00F09FB910B504462146106891
:10082000FFF7A8FE02462046BDE810400023D1E7AE
:10083000D21D22F00701D1E90023CBE70000000020
:1008400030000000F0B40D460188090502D5214CA6
:100850007C4402E01F4C7C440E34002100F124064D
:1008600008E002F00F071209E75D42EA03721B0974
:100870007754491C52EA0307F3D102780023120788
:1008800004D5702D06D009B1022311342246F0BCE4
:1008900000F061B901231034F8E770B504460D4645
:1008A00021461068FFF766FE024629462046BDE84D
:1008B00070400023C6E7D21D22F00703D3E90023CE
:1008C000C0E70368126843F0200303600823C36194
:1008D0000023B7E7B01101002DE9F05F8946044617
:1008E0004FF0000ADFF874B1FB44C0F820A02046A6
:1008F000E1688847002874D0252806D0D4E9012172
:100900009047206A401C2062F1E700265F4620469F
:10091000E16888472028054607DB312D05D2781984
:1009200010F8200C08B10643F1E7B00701D526F016
:100930000406C4F81CA00027C4F818A02A2D09D06A
:10094000284611F007F838B304EB8708303DC8F8A3
:10095000185019E059F8041B204604EB87029161F6
:10096000E1688847012F054618D1E069002820DAA0
:1009700026F020061DE0D8F8180000EB800005EBFB
:1009800040003038C8F818002046E168884705461E
:1009900010F0E0FF0028EED1012F0AD02E2D08D153
:1009A0002046E16888477F1C0546022F46F0200656
:1009B000C4DBA069002803DA404246F00106A061CA
:1009C000F00701D026F010066C2D0BD0682D09D051
:1009D0004C2D39D06A2D35D0742D35D07A2D33D0A9
:1009E00016E038E0E1682F4620468847B8420546C1
:1009F00009D16C2F26D04FF48060E1680643204671
:100A00008847054604E06C2F1AD04FF480700643E7
:100A10000DB3A5F14100192802D8203546F400662F
:100A20004A462946204626604E46FFF7E7FB80B13E
:100A300001280BD0F61D26F0070000F1080956E743
:100A40004020E4E78020D8E70020D6E706F104093B
:100A50004DE7284652E7206ABDE8F09F40110100AB
:100A600010B5203AC0F00B80B1E81850A0E818503B
:100A7000B1E81850A0E81850203ABFF4F5AF5FEA8B
:100A8000027C24BFB1E81850A0E8185044BF18C930
:100A900018C0BDE810405FEA827C24BF51F8043BD7
:100AA00040F8043B08BF7047D20728BF31F8023B2B
:100AB00048BF11F8012B28BF20F8023B48BF00F8BF
:100AC000012B7047004870471C01002030B5B0F181
:100AD0000A0271F100034FEA900E4EEA817EB0EBFC
:100AE0000E0061EB91014FEA101E4EEA017E10EB01
:100AF0000E0041EB11114FEA102E4EEA016E10EB81
:100B00000E0041EB11214FEA104E4EEA014E10EB60
:100B10000E0041EB1141401841F100014FEAD000B5
:100B200040EA41704FEAD1014FEA810444EA9074EF
:100B300010EB800544EB01046D1944EB0404521BD7
:100B4000A3414FF0000348BF0A3200D530BD401C1E
:100B500041F1000130BD2DE9F0470D46994692461E
:100B6000044600F124080168880604D5E06921F0F4
:100B70001001216000E00120A84201DD471B00E0D8
:100B80000027A1697A1902EB0900081AA0612078F0
:100B9000C00602D42046FFF7BDFC002608E0D4E9D9
:100BA00001211AF806009047206A401C761C20623A
:100BB0004E45F4DB2078C0060AD52046FFF7AAFC94
:100BC00006E0D4E9012130209047206A401C2062D1
:100BD000381EA7F10107F4DC07E0D4E9012118F879
:100BE00005009047206A401C2062281EA5F10105DF
:100BF000F3DC2046FFF7A4FC2078000602D5022093
:100C0000BDE8F0870120FBE72DE9FF4F0C461E46AB
:100C10004FF0FF378BB0D2E90001DDF860800A9019
:100C20008A46C1F30A5505B93D46002108464FF0F2
:100C30000000BAF1000F00F4400005DA00EB80007C
:100C40004FF4400101EA50004FEA9059B9F1010F09
:100C500000DDB9460A9850EA4A000ED044F610501A
:100C6000A5F2FF3545432F14B8F1000F1ED0754291
:100C7000291E1EDDC9F100021CE0B8F1010F4FF082
:100C8000000001D0302103E0F24305E02154401C74
:100C9000B042FBDB30460022002121540B99C1F801
:100CA0000880C1E900200FB0BDE8F08FBD1B6D1CAE
:100CB000DEE74A4600DA694206A800F003FD06AB0B
:100CC00093E8070003AB83E8070050460A9910F049
:100CD00060FA8DE80700A0F500501F3800900398D7
:100CE000002D0ADD42F21F014A460844002303A9F1
:100CF0000390684610F0CAFC09E0A0F500504A468F
:100D00001F38002303A90390684610F0D4FC8DE837
:100D100007000004000C03D04FF0FF30410800E052
:100D20001046B8F1000F03D00022009215461EE0D5
:100D3000751E05D4FFF7CAFE303262556D1EF9D517
:100D4000B3460122084302D000227F1C04E0207831
:100D5000302801D100227F1E002A099784D01DE08F
:100D6000112D07DAFFF7B2FE303262556D1C50EAE2
:100D70000102F5D1084302D00098C8B10EE000216D
:100D8000681E05E0235C625C63542254401E491CCB
:100D90008142F7DBAB46A81B401E0990002004F8F7
:100DA0000B000B98099AC0F80880C0E9002B7AE77D
:100DB00011264FF0000857E72DE9F04F884604460A
:100DC000D21D22F0070191B0D1E90001CDE90A015D
:100DD00010F0A8FD02460B98C00F01D02D2007E0AF
:100DE0002068810701D52B2002E0202101EAC00004
:100DF000032A099001D0072A05DB03464146204615
:100E000000F020FC0BE12078800601D5E06900E0CD
:100E10000620B8F1650F814606D0B8F1660F18D0EC
:100E2000B8F1670F70D131E00020B9F1110F0090D7
:100E300001DB112301E009F101030AAA01A90CA8B1
:100E4000FFF7E2FEDDE90C70002609F1010583469B
:100E500047E001204B4600904FF000470AAA01A945
:100E60000CA8FFF7D1FEDDE90DB00C995D46002618
:100E700010B909F101000D18B9EB050003D4C0F158
:100E8000FF3609F10105A5EB09002BE0B9F1010FCF
:100E900001DA4FF001090020B9F1110F0090484626
:100EA00001DD112300E003460AAA01A90CA8FFF7FF
:100EB000ABFEDDE90C704D46002683462078000726
:100EC0000AD4AB4500DA5D4601A8012D04DD4119C5
:100ED00011F8011C302907D04F4502DA17F1040F31
:100EE00004DA012082460FE06D1EEEE7002F02DCDF
:100EF000ED1B3E4403E0781CA84200DD7D1CB81BBE
:100F000000F1010A4FF000472078000703D4AA45FA
:100F100001DB4FF0FF3A0021B7F1004F0DF143081C
:100F20008DF8431024D002202B23002F01DA7F42BA
:100F30002D230A21021EA0F1010000DC5FB197FB06
:100F4000F1FC97FBF1F201FB1C7C17460CF1300C15
:100F500008F801CDEEE7A8F101000370218809052A
:100F600001D5452100E06521A0F1010800F8011C30
:100F700009980FA9A1EB0807FF1D00B10120411935
:100F800001EBEA70A1693844081A401EA06120787C
:100F9000C00602D42046FFF7BDFA099828B1D4E96B
:100FA00001219047206A401C20622078C00622D58B
:100FB0002046FFF7AFFA1EE0002E04DBB34502DD4A
:100FC00001A8805D00E03020D4E901219047206A2B
:100FD000401C2062761CAAF101005FEA000A0AD1D7
:100FE000FFF790FAC0680168405CD4E9012190479E
:100FF000206A401C2062281EA5F10105DCDC07E008
:10100000D4E9012118F8010B9047206A401C2062A6
:10101000381EA7F10107F3DC2046FFF791FA032001
:1010200011B041E62DE9F04F04460D46D21D22F0E5
:10103000070089B0D0E900974846394610F072FCA5
:101040000246F80F01D02D2307E02068810701D563
:101050002B2302E0202101EAC0038DF820300BB1E0
:10106000012000E00020032A824601D0072A04DB89
:101070002946204600F0E6FA3FE12078800601D4B8
:101080000D2500E0E569C7F30A560D2D49DA002168
:101090004FEA175B08464FF00000002F00F44000B5
:1010A00007DA00EB80004FF4400100EBD07001EA5A
:1010B00060008115012901DD4FF0FF3100224FEA68
:1010C000850CBCF1180F06D31346ACF118004FF095
:1010D0008052C24003E04FF4801323FA0CF30CF16A
:1010E0000C0CBCF1200F04D3ACF1200C09FA0CF06D
:1010F00001E007FA0CF000294FF0004801DD18B9B3
:101100000FE00ED140450CD319EB02095F4121B924
:10111000404502D19F4329EA0209BBEB175F00D08B
:10112000761C2088000502D57B48784402E07A4886
:101130007844193808AA302302F80A30037C0AF1EF
:101140000101002E0AF1020A53546A4602DC4FF0F4
:10115000300101E04FF031014FF001088DF800102F
:1011600002D0A6F2FF3603E059EA470100D06B4EE9
:10117000002D02DC2178090704D54FF002082E214A
:101180008DF80110C44600210BE0C7F303433F0173
:10119000C35C491C6D1E02F80830052908F10108DE
:1011A00001DA002DF1DC00210CE000EB1973491C81
:1011B0001B786D1E082902F808304FEA091908F15A
:1011C000010801DA002DF0DC21688B0602D516E05B
:1011D000A8F10108E04505DD02EB080313F8013C26
:1011E000302BF5D0B8F1000F09DD02EB080313F83E
:1011F000013C2E2B03D1090701D4A8F10108002DD1
:1012000005DD3E2102F808106D1E08F10108407C42
:10121000002E02F8080008F1010804DA2D207642B9
:1012200002F8080002E02B2002F808000A214FF41F
:101230007A70864208F101080BDB96FBF0F330333D
:1012400002F8083096FBF0F308F1010800FB136682
:1012500001E0642E0CDB642096FBF0F3303302F8DF
:10126000083096FBF0F308F1010800FB136601E07B
:101270000A2E06DB96FBF1F0303002F8080008F188
:10128000010896FBF1F001FB1060303002F8080015
:10129000A16908F1010808EB050202EB0A00081A2F
:1012A000A0612078C00602D42046FFF733F9216AF6
:1012B00008AE01EB0A00206204E0D4E9012116F82F
:1012C000010B9047BAF1010AF7D22078C00602D587
:1012D0002046FFF71FF96E4609E016F8010B3E287D
:1012E0000FD0D4E901219047206A401C2062B8F158
:1012F0000108F2D22046FFF723F909B00320BDE828
:10130000F08F206A2844206203E0D4E901213020D4
:1013100090476D1EEBD3F8E72209010002FCFFFFA6
:1013200001694A1C02610878704700B58FB0CDE9A9
:1013300001310021059105497944CDE90310114699
:101340006846FFF7C9FA0FB000BD0000E5FFFFFFD8
:1013500010B5436913B1AFF3008001E0FFF713F953
:10136000012010BD127800F124010A7000224A7099
:101370000122EDE711684FF0FF32E9E710B543694C
:1013800013B1AFF3008001E0FFF788F9012010BD31
:10139000128800F1240182840022C2840122EDE738
:1013A00011684FF0FF32E9E7007B00F080007047E2
:1013B00010B542485421FFF77BF841485421FFF70C
:1013C00077F840485421FFF773F83F493B483C4ABF
:1013D0003F4B08603D490A603A491960531C036558
:1013E000481C1065012008653B48344A39A17844FF
:1013F00000F0EEFA20B9384878440A3800F08FFB44
:1014000037482F4A35A1784400F0E2FA20B9344831
:1014100078440A3800F083FB32482A4A2FA17844E6
:1014200000F0D6FA20B92F4878440A3800F077FB4C
:1014300040232248DC000021224600F0A6FA20B119
:1014400025487844543800F06AFB1D482246402362
:10145000002100F09AFA20B121487844543800F075
:101460005EFB184822461023002100F08EFA002867
:1014700006D01C487844BDE81040563800F04FBBF9
:1014800010BD104870B5006D20F001040B4800F04D
:1014900017FB0B4800F014FB0A4800F011FB09E0B1
:1014A000206D20F00105204600F00AFB204600F0E8
:1014B000A2F82C46002CF3D170BD000020000020C3
:1014C00074000020C800002000000020040000205C
:1014D0000800002072000000710601007700000083
:1014E0005D060100490601002DE9F04116460C4653
:1014F0000546FEF717FF036893F80101012807D09E
:10150000FF2C12D8185D80B101202C70BDE8F0814D
:10151000D3F807013246214603F20713C7182846BD
:10152000BC46BDE8F041002360474FF0FF30EDE7D7
:1015300030B44FF0013C50F8042B51F8043BCCFA86
:1015400052F4D51A20D1FCB950F8042B51F8043BC1
:10155000CCFA52F4D51A17D1B4B950F8042B51F87B
:10156000043BCCFA52F4D51A0ED16CB950F8042BC6
:1015700051F8043BCCFA52F4D51A05D1002CDAD03C
:1015800030BC4FF00000704729BAB1FA81F111F078
:101590001801D1F120008440F2D1CA40CB4012F0B2
:1015A000FF0213F0FF0330BCD01A70477546FFF7F7
:1015B00089FAAE4605006946534620F00700854685
:1015C00018B020B5FEF79CFEBDE820404FF00006A5
:1015D0004FF000074FF000084FF0000BAC46ACE8AE
:1015E000C009ACE8C009ACE8C009ACE8C00921F00A
:1015F00007018D46704770B50446051F00F0CAFA12
:101600000068002C14BF446870BD002C18BFAC42A9
:101610003CBF20466468F8D301680A18AA4218BF84
:10162000456003D12A6805461144016028684119C4
:10163000A1421CBF6C6070BD61686960216808448C
:10164000286070BD2DE9F0411F460446032601685D
:10165000072A01F4006004DB08B116A505E016A511
:1016600003E008B115A500E015A521F010002060E9
:10167000A069C01EA0610FB1401EA0612046FEF708
:1016800049FF4FB1D4E9012138469047206A401CF8
:101690002062C01C206206E0206AFAE7D4E901213A
:1016A00015F8010B9047761EF8D22046FEF748FF4A
:1016B000BDE8F0814E414E006E616E00494E46001D
:1016C000696E66002DE9F047814616468AB03548B6
:1016D00078440DC88DE80D0032487844801C03AC76
:1016E0000DC884E80D0041F69B300844372190FB7B
:1016F000F1F290FBF1F5A5F1800501FB12041B3C12
:1017000002D56442012000E00020DFF898A0804666
:101710000027FA44AAF1BE0A0EE0E0070AD03246DA
:10172000684607EB470101230AEB81010FF0C3FF75
:101730008DE8070064107F1C002CEED1194F7F4408
:10174000AE3F19E0E80715D007EB04100DF1180AB9
:1017500090E80E008AE80E00C068F04201D19819A6
:1017600008903246012306A903A80FF0A4FF03AB9B
:1017700083E807006D10641C002DE3D14FF00103D6
:1017800032466946B8F1000F03A802D00FF07EFF81
:1017900001E00FF090FFC9E90001C9F808200AB084
:1017A000BDE8F087180401002DE9F05F05461746F3
:1017B0000C46C86820F4201040F48000C860800601
:1017C00002D5084600F03FFBE06841F282014FF08D
:1017D000FF3A0140022903D0204600F0D1FAB9E0D7
:1017E00000F42041B1F5004F0FD1C00306D5616868
:1017F000E06A884200D80846606006E02069E0623E
:101800006060606900F0BFF9A061A0680022EEB2DC
:1018100000280DDAE1688B050AD4C043A06041F4CA
:1018200090302260E0606068411C61600670AAE050
:10183000E0689146226040F40050E060206978BB87
:10184000606900F092F904F124054FF00108A8B195
:10185000A08910F4407F08D0E06900F0E6F920612B
:1018600018B1E06840F4006017E0C4F81C802561FE
:10187000E06820F4407040F480600EE0E06900F021
:10188000D4F900282061F0D0E06840F4006010F442
:10189000407FE06002D140F48070E06020696060C9
:1018A000E06825696FF0010BC1051ED56168E06A2B
:1018B000884200D80846411B04D02246284600F042
:1018C00069FAE8BB1FB1E562C4E9015959E0681C37
:1018D000E0626060E069401EA060E06840F4803033
:1018E000E06030462E70BDE8F09F17B100F4803202
:1018F0000AE06068411C61600670E0680A2E40F4EE
:101900008030E06006D00022E16A6068814203D93D
:101910000B4602E00122F7E70346B4F80CC05B1B5C
:101920005FEA4C5C04D4D4F81CC09C4500DD02B3D3
:10193000814200D80146002BA1EB0008E56200E0DF
:1019400008E0C4E9015907DD22461946284600F09F
:1019500021FA08B15046C6E7B8F1000F09D0A169D5
:10196000E5626560A1EB0800A061E06840F010004E
:10197000E06047B16168A069E562491B08446560A1
:10198000A0615846AFE73046ADE770B5C468A5071B
:1019900013D0650211D4B2F5807F09D0B2F5007F73
:1019A00006D0B2F5806F08D1012300F1240106E0D2
:1019B0005D1E6FF07F46B54201D3012070BD01610D
:1019C000C361416024F470611143C160002070BDA7
:1019D0002DE9F0410C461646070047D0104600F0AE
:1019E0006FF82078611C61280AD0722802D077280D
:1019F0003CD102E00125002405E00225042402E098
:101A0000082448F2020511F8010B2B2806D06228A1
:101A100009D011F8010C74280AD00BE045F0030539
:101A200044F00204EFE745F0040544F00104EAE75E
:101A300044F010043846214600F078F8411C15D0D7
:101A40000021316171604FF40071F560F1617061E6
:101A5000200704D530460222002100F015F9306D30
:101A600040F0010030653046BDE8F0810020FBE722
:101A70002DE9F0410D460646104C206DC10704D0FB
:101A8000410804D020F00104F7E722460EE054207C
:101A900000F0CBF807000ED0206D47F0010108439D
:101AA000542120653846FEF703FD3A462946304664
:101AB000BDE8F0418CE70020D6E7000020000020C0
:101AC0002DE9F04704464FF0FF380026C568D4E9F9
:101AD0000497A80718D0204600F092F9384600F085
:101AE0002FF8002800DA4646280502D54846FFF7B9
:101AF00082FD4C212046FEF7DBFC206D20F001002A
:101B000020653046BDE8F0874046FBE710B5044647
:101B1000AFF300802046BDE81040FEF7DCBB10B5F7
:101B200000F0B8F9BDE8104000F0AEB90EB5CDE94F
:101B30000001FEF737FC029069460120ABBE0EBDE6
:101B400008B5694600900220ABBE08BD1FB58DE800
:101B5000070069460520ABBE04B010BD1FB58DE877
:101B60000F0069460620ABBEF6E708B5694600904F
:101B70000920ABBE08BD1CB5CDE9000169460A20AD
:101B8000ABBE1CBD704708B5694600900C20ABBECB
:101B900008BD0000004870472401002070477047CE
:101BA0007047704738B504460A4600206946AFF3CF
:101BB0000080002808BF38BD02460099204600F08A
:101BC00091F9012038BD012000F0E0B9F8B5AFF37C
:101BD0000080054600200C46102000BF0646A819CC
:101BE000A0420DD9324669460020AFF300800700BD
:101BF00008BF00F0CBF90098A04218BF0546C419F1
:101C0000FFF7C8FF05600746F01D20F007004619E2
:101C1000284600F060F9B44208BFF8BDA21B314667
:101C20003868BDE8F84000F05DB970B50646FFF7CA
:101C3000B1FF056806F10B0020F00704B4429CBF19
:101C4000002070BD2B466A68BAB11068A04210D35C
:101C500004F1080188423CBF5068586007D35168BE
:101C6000101941601168091B016058601460101D53
:101C700070BD13465268002AE7D121462846FFF777
:101C800091FF0028DED170BD2DE9F04104461646D3
:101C90000D464769007B80072ED03846FFF765FF69
:101CA00050BB3EB3012E02D0022E25D104E02046C7
:101CB00000F032F905441DE03846FFF764FFE168A3
:101CC000002841F01001E16005DA204600F058F8E4
:101CD0000120BDE8F081C9030BD56268E16A914239
:101CE00000D81146A26911442269891A814200DD97
:101CF00008460544002D01DA0220EAE7E16A60683F
:101D0000E268814206D29103E06203D522F40031F9
:101D100041F01002A6690027AE4213DCE16A81425D
:101D200001D90B4600E0034603EB060C2369ACEB3C
:101D3000030CAC4506DD814201D98C4600E08446A7
:101D40009C4505D1A760276042F02000A5620DE008
:101D5000AD1BE669AE1B8142A66000D90846C01AD9
:101D6000281A20605819606022F0200003490840BA
:101D7000E060002084F84870ABE70000BFCFD7FFD9
:101D8000C16821F4001141F08001C160002181602F
:101D9000016070472DE9F74F15460C464FF0FF3BA9
:101DA0003848D768D2F814A0074209D05046A9692C
:101DB000FFF7E1FE002819DB3248C0430740EF601F
:101DC0004FF000496FF000484C4501D3464600E013
:101DD000264600993B4650463246FFF7B7FEA969B2
:101DE00020F00042B21A1144A96128B12846FFF739
:101DF000C7FF5846BDE8FE8FA41BE5D10020F9E7D8
:101E000070B504460569C06A6168884200D8084612
:101E1000E16821F42011E160C90312D5A84208D07D
:101E20002246411B2846FFF7B5FF10B14FF0FF30A7
:101E300070BD0020E562C4E90150E06820F4803004
:101E4000E060002070BD10B50446C06820F020009E
:101E5000E060A16AA06988420DD02046FFF7D0FF5C
:101E6000E06820F4405040F01000E060A06AA061FB
:101E70002069E062606044F24001E0688843E0600D
:101E800010BD000010000200002801D000F01CB8B6
:101E90007047000010B5014602A000F05EF8012076
:101EA00010BD000053494752545245443A205265F0
:101EB0006469726563743A2063616E2774206F7081
:101EC000656E3A200000000001491820ABBEFEE715
:101ED00026000200704700210160C0E90110704730
:101EE00010207047034640688C46002818BF88427F
:101EF0003CBF03464068F8D318681844884207D0AE
:101F00000CF1030020F00700001D411A521A01468F
:101F1000081D0A60FFF76FBB10B50146C268900745
:101F200003D0900607D5886A0AE0FEF7EFFA012190
:101F30000160881E10BD8B69486818440B69C01A7F
:101F400091F848301BB191F84910401A10BD1103A7
:101F5000FCD50028FADD401E10BD70B505460C46C4
:101F60000A2000E06D1C00F018F835B12878002830
:101F7000F8D102E0641C00F010F814B120780028B9
:101F8000F8D1BDE870400A2000F007B810B500F0A5
:101F90000BF8BDE81040FFF777BF08B569468DF82C
:101FA00000000320ABBE08BD10B5012805D00021FC
:101FB00003A0FFF7D2FF012010BD09A1F8E7000040
:101FC00053494752544D454D3A204F7574206F6622
:101FD0002068656170206D656D6F7279000000008A
:101FE0003A2048656170206D656D6F727920636F6E
:101FF0007272757074656400FFE7FEE780B582B0A9
:1020000040F20650C0F2040003F0B4F940F2105060
:10201000C0F2040003F0AEF9FFE703F0DFFB01902C
:102020000198022803D3FFE707F048F8FFE7FFE72E
:1020300001980028F1D1FFE702B080BDFFE7FEE77D
:10204000FFE7FEE7704700007047000080B582B0F0
:10205000009000980138B0F1807F03D3FFE70120A2
:10206000019019E0009801384EF21401CEF20001FF
:1020700008604FF0FF300F2100F09EF84EF218017B
:10208000CEF20001002008604EF21002CEF20002F3
:10209000072111600190FFE7019802B080BD0000A8
:1020A00080B540F20031C2F20001086801300860DA
:1020B00008F0C4FF80BD000080B582B04EF68851A4
:1020C000CEF20001086840F47000086043F6000199
:1020D000C4F20201086840F001000860FFE743F61F
:1020E0000000C4F2020000688007002801D4FFE766
:1020F000F5E7FFE743F60801C4F20201086840F083
:102100008000086000200190FFE701984F2805D863
:10211000FFE7FFE7019801300190F6E743F6080179
:10212000C4F20201086840F09000086000200190AD
:10213000FFE701984F2805D8FFE7FFE70198013036
:102140000190F6E7FFE743F60801C4F202010868D0
:1021500020F00300086043F60002C4F20202106897
:102160004FF6FF73CFF6F66318401060106820F446
:102170008020106000200860FFE743F60800C4F2EA
:1021800002000068012008B9FFE7F6E743F6040102
:10219000C4F2020143F21000C2F20040086043F6AC
:1021A0000C01C4F202010020086009F00FF902B02E
:1021B00080BD0000FFE7FEE782B08DF807000091C8
:1021C0009DF9070000280AD4FFE7009800019DF957
:1021D00007104EF20042CEF2000288540BE0009845
:1021E00000019DF8071001F00F014EF61452CEF2D7
:1021F00000028854FFE702B07047000080B54FF43A
:10220000A06007F0E1FE4FF00060002107F0EAFE59
:1022100009F0E0F880BD000080B584B08DF80F00B3
:102220009DF80F1041F6A030C0F6010030F8110003
:1022300008F0B4FE9DF80F2041F6A830C0F601006A
:10224000009050F8220041F6A431C0F6010101913E
:1022500051F8223001210022029204F063FD00981F
:102260000199029A9DF80F3050F8230051F823305D
:10227000114604F0A5FD04B080BD000080B582B019
:1022800000208DF80700FFE79DF8070000280FDC0D
:10229000FFE79DF80700FFF7BFFF9DF8070000F07C
:1022A00009F8FFE79DF8070001308DF80700EBE71C
:1022B00002B080BD80B582B08DF807009DF8072080
:1022C00041F6A830C0F6010050F8220041F6A431D2
:1022D000C0F6010151F8221004F01CFD02B080BDCF
:1022E00080B582B000208DF80700FFE79DF8070059
:1022F00003280BDCFFE79DF8070000F009F8FFE773
:102300009DF8070001308DF80700EFE702B080BDAF
:1023100080B58AB08DF827009DF8271041F67830F7
:10232000C0F6010030F8110008F038FE9DF82710C3
:1023300041F64030C0F6010030F8110008F02EFEE2
:102340009DF8271041F62430C0F6010030F8110046
:1023500008F024FE9DF8273041F69030C0F60100C9
:10236000019050F8230041F66831C0F6010151F8A0
:10237000231041F68032C0F60102029252F8232067
:1023800004F05EFC9DF8273041F65830C0F601009D
:10239000049050F8230041F63031C0F6010151F8A5
:1023A000231041F64832C0F60102059252F823206C
:1023B00004F046FC019802999DF8272050F822006D
:1023C00051F82230022107910122039204F0AAFC65
:1023D00001980299079A9DF8273050F8230051F888
:1023E00023300021069104F0EBFC039A0498059B2E
:1023F00007999DF827C050F82C0053F82C3004F0B2
:1024000091FC0498059B0699079A9DF827C050F8FF
:102410002C0053F82C3004F0D3FC9DF8271041F623
:102420000430C0F60100089050F821000EF0BAFD0B
:1024300008989DF8272050F8220041F61431C0F684
:10244000010151F822100EF0F5FC08989DF82710B4
:1024500050F8210004210EF05DFE08989DF8271029
:1024600050F8210008210EF06BFE08989DF8271007
:1024700050F821000EF026FE9DF8270060B9FFE716
:102480009DF8271041F62C30C0F60100405C022177
:10249000002207F003FD41E09DF8270001280CD140
:1024A000FFE79DF8271041F62C30C0F60100405C94
:1024B0000221002207F0F2FC2FE09DF827000228FD
:1024C0000CD1FFE79DF8271041F62C30C0F6010033
:1024D000405C0022114607F0E1FC1DE09DF827005A
:1024E00003280CD1FFE79DF8271041F62C30C0F6E9
:1024F0000100405C0121002207F0D0FC0BE09DF8B8
:10250000271041F62C30C0F60100405C0221002269
:1025100007F0C4FCFFE7FFE7FFE7FFE70AB080BD75
:1025200080B582B0019001984FF47A71484300F071
:1025300003F802B080BD000085B004900020009038
:10254000049840F20C01C2F2000109684DF6836262
:10255000C4F21B32A1FB0221890C484303904EF2C6
:102560001800CEF2000000680290FFE74EF218005B
:10257000CEF200000068019001980299884222D0B2
:10258000FFE701980299884207D2FFE70298019974
:10259000411A0098084400900CE04EF21400CEF26C
:1025A000000000680199401A02990144009808440B
:1025B0000090FFE70198029000980399884201D3A8
:1025C000FFE701E0FFE7D1E705B0704780B584B0D1
:1025D00003900291FFE7039848B9FFE7FFE742F253
:1025E0006D20C0F60100FDF7A5FEFFE71DE0FFE747
:1025F0000398406A0190FFE7FFE70198A8B1FFE761
:1026000001984079082810D1FFE7FFE7FFE702981B
:1026100000680199C969884206D1FFE7FFE7FFE733
:10262000039800F08FFAFFE7FFE704B080BD0000D9
:1026300080B586B00590FFE7059848B9FFE7FFE74A
:1026400042F22820C0F60100FDF774FEFFE7DAE051
:10265000FFE70598406A0390FFE7039848B9FFE752
:10266000FFE742F27B20C0F60100FDF763FEFFE7C3
:10267000C9E0FFE7FFE7FFE70399002048820398DE
:10268000806A013020B3FFE7FFE7FFE70398806A25
:102690001E3048F68901C8F68801A0FB01104009E8
:1026A00004900498B0F5803F04D3FFE74FF6FF7025
:1026B0000490FFE70498039988820398808A20B9E0
:1026C000FFE7039901208882FFE7FFE7FFE7FFE7C5
:1026D0000398C06A013038B3FFE7FFE7FFE70398CC
:1026E000C06A1E3048F68901C8F68801A0FB0110B7
:1026F000400904900498B0F5803F04D3FFE74FF6FB
:10270000FF700490FFE7049803994881039840897B
:1027100020B9FFE7039901204881FFE7FFE7FFE7C2
:1027200003994889C881FFE70398006B013038B3EB
:10273000FFE7FFE7FFE70398006B1E3048F68901CB
:10274000C8F68801A0FB0110400904900498B0F578
:10275000803F04D3FFE74FF6FF700490FFE7049833
:10276000039988810398808920B9FFE703990120A4
:102770008881FFE7FFE7FFE7039988890882FFE781
:10278000039948898989884209DBFFE70398808992
:10279000012804DBFFE7039900204881FFE7039845
:1027A000C07920B1FFE70398006A02901AE003980D
:1027B000007F8DF803009DF803007F2803DCFFE70E
:1027C000FF2002900DE09DF80300C02804DBFFE726
:1027D0006FF07F40029003E04FF6FF700290FFE73A
:1027E000FFE7FFE70398406A0190FFE7FFE70398E0
:1027F0000A2101F09BFC059803991C3102AA01AB48
:1028000007F0A2FAFFE706B080BD000080B584B0F3
:1028100003900398406A0290FFE7FFE702980821BF
:1028200001F084FC039802991C31002203F050FD52
:102830008DF807009DF9070018B1FFE7FFE7FFE7F4
:10284000FFE702988079FE2805DCFFE70299887986
:1028500001308871FFE74FF4FA70ADF80400BDF85D
:10286000040000F2F31044F6D351C1F2620150FBB0
:1028700001F0400902990881FFE7FFE704B080BD3D
:1028800080B582B0FFE7FFE744F69820C2F200006F
:1028900000680190FFE7019800284CD0FFE70198FD
:1028A000406A00900098002840D0FFE700984079E7
:1028B000E0B3FFE70098808A98B1FFE70099488A63
:1028C0000130488280B20099898A884209D1FFE7A5
:1028D000FFE7FFE7019801F0D3F9019801F03EFC12
:1028E00023E00098008A68B1FFE7009A108A411E31
:1028F0001182012806D1FFE7FFE7FFE7019801F009
:102900002FFD11E00098C08968B1FFE7009AD089D7
:10291000411ED181012806D1FFE7FFE7FFE70198BB
:1029200001F0ECFCFFE7FFE7FFE7FFE7FFE70198B7
:1029300000680190AFE702B080BD000080B58AB0AA
:10294000089007918DF81B200593FFE7089858B968
:10295000FFE7FFE742F24120C0F60100FDF7EAFC85
:10296000FFE700200990C3E0FFE7FFE7079858B9A9
:10297000FFE7FFE742F29320C0F60100FDF7DAFC23
:10298000FFE700200990B3E0FFE736204FF49A718B
:102990004FF4207207F0B8FB0390039828B9FFE7C3
:1029A000FFE7FFE700200990A2E0FFE703984089D6
:1029B00080084C2801D8FFE7FFE7FFE79DF81B00E0
:1029C000032805D1FFE707984079032814D1FFE7D2
:1029D0000798807940B9FFE740F21001C2F2000188
:1029E000086801300860FFE740F21000C2F2000002
:1029F000006807990860FFE7FFE7FFE70398406872
:102A0000029002984FF49A71FDF730FD029901206F
:102A1000087002994870089890F830000299887000
:102A20000798006806F0F0FA029948609DF81B00CC
:102A3000082819D0FFE79DF81B00042814D0FFE7F1
:102A40009DF81B0007280FD0FFE79DF81B00032807
:102A50000FD1FFE707984079052805D0FFE70798D1
:102A60004079042805D1FFE7089840680299C860BA
:102A7000FFE70020ADF81200FFE7BDF812000528BF
:102A800010D8FFE70898BDF81220104490F82A00EB
:102A9000029911440877FFE7BDF812000130ADF844
:102AA0001200EAE7029948F26320C6F25330C1F8F7
:102AB000EC00029800F1F00100203522012300F023
:102AC000C3FAADF80600BDF806000299F0319DF892
:102AD0001B2000F0E3FAADF80600059828B1FFE7E7
:102AE000BDF8060005990880FFE703980990FFE705
:102AF00009980AB080BD000080B582B0FFE740F2BF
:102B00007C20C2F200000078002801DCFFE7FFE72C
:102B1000FFE740F27C20C2F2000001780139017029
:102B2000007860B9FFE740F27820C2F2000001901F
:102B300000680DF08DFF019900200860FFE702B0EA
:102B400080BD000080B58AB009900998406A08905D
:102B5000FFE7FFE708980C2101F0E8FA09980899C7
:102B600004220DF11603FFF7E9FE069006980028EF
:102B700043D0FFE7069840680490BDF8160004991A
:102B8000F0313222042300F05FFAADF81600BDF8F0
:102B9000160003900498F03002900898C06906F07F
:102BA00033FA02990246039800F094FAADF8160041
:102BB000BDF816000499F031069A00F0E7FA40F2E9
:102BC0007820C2F2000000680699099A41F6B83CE4
:102BD000C0F6010C6B46C3F804C01A6041F6BC3263
:102BE000C0F6010243230DF0FFFF8DF81F00069889
:102BF00007F092FEFFE7FFE705E0FFE7FFE7FF20B2
:102C00008DF81F00FFE708988079FE2805DCFFE7B4
:102C10000899887901308871FFE742F21070ADF8A9
:102C20001C00BDF81C0000F2F31044F6D351C1F2B1
:102C3000620150FB01F0400908990881FFE7FFE7B6
:102C40009DF91F000AB080BD80B58AB0099009982F
:102C5000406A089000208DF81F00FFE7FFE7089901
:102C60000020C8610898062101F060FA09980899C7
:102C700001220DF11203FFF761FE0590059800286F
:102C800069D0FFE7059840680390FFE7FFE7BDF8CC
:102C900012000399F0313922022300F0D5F9ADF882
:102CA0001200BDF812000399F031099A128D00F05C
:102CB00047FAADF81200BDF812000399F03137223F
:102CC000032300F0C1F9ADF8120000208DF81B00BD
:102CD000FFE79DF81B00022816D8FFE7BDF8120099
:102CE0000399F0319DF81B3040F21402C2F2000249
:102CF000D25C00F0D3F9ADF81200FFE79DF81B009D
:102D000001308DF81B00E4E7BDF812000399F031A3
:102D1000059A00F03BFAFFE7FFE740F27820C2F2A5
:102D2000000000680599099A41F6B83CC0F6010C0C
:102D30006B46C3F804C01A6041F6BC32C0F601020B
:102D400043230DF051FFFFE7FFE7059807F0E4FD8F
:102D5000FFE7FFE702E0FFE7FFE7FFE7089880797A
:102D6000FE2805DCFFE70899887901308871FFE7C4
:102D700008988079052806DCFFE70898817901200A
:102D80008840029002E03C200290FFE702984FF456
:102D90007A714843ADF81C00BDF81C0000F2F31036
:102DA00044F6D351C1F2620150FB01F04009089989
:102DB0000881FFE7FFE79DF91F000AB080BD000012
:102DC00080B582B044F69820C2F2000000680190FD
:102DD000FFE7019830B3FFE70198406A0090009840
:102DE000D8B1FFE700980089022805DBFFE70099CA
:102DF0000889013808810FE00098008901280AD16C
:102E0000FFE70099088901380881FFE7FFE701988B
:102E100001F0DEFAFFE7FFE7FFE7FFE70198006850
:102E20000190D6E702B080BD80B584B003900291D6
:102E30000398406A01900199002008620199486254
:102E400040F27D20C2F20000C07840B1FFE740F2BE
:102E50008820C2F20000C06801998862FFE740F252
:102E60007D20C2F20000007940B1FFE740F28820E7
:102E7000C2F2000000690199C86204E00199886A01
:102E80004008C862FFE740F27D20C2F200004079AE
:102E900040B1FFE740F28820C2F20000406901998A
:102EA000086306E00199886AC0EBC000C0080863A7
:102EB000FFE7029800690199C86140F27D20C2F2E3
:102EC0000000807968B1FFE740F28820C2F200007C
:102ED000806906F099F80199086201990120C8718A
:102EE00003E001990020C871FFE740F27D20C2F2A3
:102EF0000000C07950B1FFE740F28820C2F2000024
:102F0000C06906F081F801994862FFE704B080BD0E
:102F100080B582B001900198406A0090FFE7FFE71A
:102F200000980C2101F002F9019841F6B833C0F67F
:102F3000010319461A4606F007FF0198FFF784FEC1
:102F400002B080BD80B584B0039002910398406ABE
:102F50000190FFE7FFE740F27D20C2F20000807899
:102F6000C0B1FFE701990020088140F28820C2F239
:102F70000000806806F048F801998861FFE7FFE7E4
:102F8000029800690199C861FFE7FFE7039800F024
:102F9000B9FF02E0FFE7FFE7FFE704B080BD0000F4
:102FA00080B584B040F27C20C2F200000078E0BB23
:102FB000FFE7FFE740F27820C2F20000006808B1A6
:102FC000FFE7FFE7FFE70DF0BDFC014640F2782088
:102FD000C2F200000160006820B9FFE7FF208DF811
:102FE0000F002DE040F27820C2F20000029002684B
:102FF000517A41F020015172006841F6B831C0F6B3
:103000000101019144220DF065F9019902980068CF
:1030100043220DF019FA0298006843F67921C0F6B0
:10302000000100220DF0F8FCFFE740F27C21C2F223
:10303000000108780130087000208DF80F00FFE7CC
:103040009DF90F0004B080BD83B0ADF80A00019176
:103050008DF803208DF80230FFE7BDF80A009DF8D7
:10306000021008440230452801D3FFE7FFE7FFE7DD
:103070009DF803000199BDF80A20531CADF80A30F1
:1030800088549DF802000199BDF80A20531CADF840
:103090000A308854BDF80A0003B0704783B0ADF819
:1030A0000A0001918DF80320FFE7BDF80A004428CB
:1030B00001D3FFE7FFE7FFE79DF803000199BDF8A3
:1030C0000A20531CADF80A308854BDF80A0003B03A
:1030D0007047000083B0ADF80A0001910092FFE74D
:1030E000BDF80A000430452801D3FFE7FFE7FFE7FA
:1030F0009DF803000199BDF80A20531CADF80A3071
:103100008854BDF802000199BDF80A20531CADF89F
:103110000A3088540098000A0199BDF80A20531C0F
:10312000ADF80A30885400980199BDF80A20531C64
:10313000ADF80A308854BDF80A0003B070470000AB
:1031400083B0ADF80A000191ADF80220FFE7BDF8A9
:103150000A000230452801D3FFE7FFE7FFE79DF8AB
:1031600003000199BDF80A20531CADF80A308854B9
:10317000BDF802000199BDF80A20531CADF80A30D1
:103180008854BDF80A0003B07047000080B584B0D1
:10319000ADF80E00029101920299BDF80E20501C6C
:1031A000ADF80E00FF208854FFE7BDF80E0044285C
:1031B00007D3FFE7BDF80E1000208907009041B14A
:1031C000FFE7BDF80E100020442938BF0120009011
:1031D000FFE70098C00748B1FFE70299BDF80E204D
:1031E000501CADF80E0000208854DEE70198BDF8B1
:1031F0000E10F03189B207F079FC04B080BD0000F8
:1032000080B596B01490139100200D900C9040F270
:103210007D21C2F2000148600860149840892B2883
:1032200004D8FFE7FE208DF85700A9E21498406803
:103230000B90F020ADF8400014980089ADF83E00E6
:10324000FFE714980E90BDF84000ADF84200FFE78C
:103250000E990020049051B1FFE7BDF840100E9880
:10326000428900209142A8BF01200490FFE7049802
:10327000C00790B1FFE7BDF840000E994989401A98
:10328000ADF84000BDF83E000E994989401AADF8EE
:103290003E000E9800680E90DAE70E9820B9FFE71E
:1032A000FE208DF857006BE2BDF84000ADF84600F7
:1032B000BDF83E00ADF844000E9840681290FFE75C
:1032C0000E990020039091B1FFE7BDF84610BDF8BC
:1032D000442000209142039009DAFFE71298BDF8DC
:1032E0004610405CFF3818BF01200390FFE70398A9
:1032F000C007002800F0F281FFE71298BDF84610E1
:10330000405C8DF82B0000208DF829004FF0FF3035
:103310000990BDF846000230ADF82200BDF8220049
:10332000BDF84610884204DAFFE7FE208DF857000A
:1033300026E2BDF8460001300E994989884208DA34
:10334000FFE71299BDF84600084440788DF82A003E
:1033500010E00E98006830B1FFE70E9800684068F2
:103360000078029002E000200290FFE702988DF8BA
:103370002A00FFE79DF82A008DF829009DF82B0010
:10338000014601913B2800F2A7800199DFE801F096
:103390001E24A432A4A4A4A4A4A4A4A4A4A4A4A465
:1033A000A4A4A4A4A4A4A4A4A4A4A4A4A4A4A4A4DD
:1033B000A4A4A4A4A4A4A4A4A4A4A4A4A4A4A4A4CD
:1033C000A4A4A445536C7AA4A4A4889600208DF8E4
:1033D0002A008DF8290087E0FFE79DF82A000428DD
:1033E00004D0FFE7FA208DF85700C9E1FFE7062077
:1033F000099079E004208DF82900FFE79DF82A0064
:103400009DF82910884204DAFFE7FA208DF857006A
:10341000B6E1FFE70720099066E0FFE79DF82A0084
:10342000042804D0FFE7FA208DF85700A8E1FFE751
:103430000320099058E0FFE79DF82A00012804D0F6
:10344000FFE7FA208DF857009AE1FFE7FFE7BDF8A4
:103450004200F02804D0FFE7FA208DF857008FE1F2
:10346000FFE7002009903FE0FFE79DF82A000128D0
:1034700004D0FFE7FA208DF8570081E1FFE7012033
:10348000099031E0FFE79DF82A00042804D0FFE707
:10349000FA208DF8570073E1FFE70220099023E03E
:1034A000FFE79DF82A00042804D0FFE7FA208DF8F2
:1034B000570065E1FFE70420099015E0FFE79DF85C
:1034C0002A00042804D0FFE7FA208DF8570057E1BE
:1034D000FFE70520099007E000208DF82900FFE7AD
:1034E000FFE7FFE7FFE7FFE79DF82B0030B9FFE7B5
:1034F000BDF846000130ADF84600BDE0BDF846001D
:103500009DF82A1008440230B0F5803F04DBFFE745
:10351000FE208DF8570033E1BDF846009DF82A10D3
:1035200008440230ADF846009DF829000128C0F299
:10353000A280FFE700200790FFE7FFE70998002837
:1035400004D4FFE70998082801DBFFE7FFE7FFE75E
:10355000099940F27D20C2F20000405C002840F052
:103560008980FFE79DF82900032804DCFFE79DF828
:103570002900009002E004200090FFE70098ADF8D9
:103580001A000E98BDF81A20BDF8223007A907F0DE
:1035900001F8BDF81A10884204D0FFE7FE208DF82C
:1035A0005700EDE09DF82900052839DBFFE7FFE72C
:1035B0009DF82900800720B1FFE7FA208DF8570019
:1035C000DEE0FFE7099A40F27D21C2F2000101200E
:1035D0008854079805F018FD099A40F28821C2F234
:1035E000000141F822009DF8290004388DF82900D7
:1035F000BDF822000430ADF81800BDF81800BDF881
:103600002210884204DAFFE7FE208DF85700B7E069
:10361000BDF81800ADF822000998013009908CE738
:103620009DF82900042805D1FFE7079805F0ECFC78
:1036300007900EE0FFE79DF82900012804D0FFE77E
:10364000FA208DF857009BE0FFE79DF81C000790DB
:10365000FFE7FFE7099A40F27D21C2F20001012055
:1036600088540798099A40F28821C2F2000141F873
:103670002200FFE7FFE7FFE7BDF846000E99498902
:1036800088422ADBFFE7BDF846000E994989401AB7
:10369000ADF84600BDF844000E994989401AADF8CE
:1036A0004400BDF84600BDF84410884210DAFFE738
:1036B0000E9800680E90FFE70E9820B9FFE7FA20F9
:1036C0008DF857005CE0FFE70E984068129003E029
:1036D000FE208DF8570053E0FFE7F1E540F27D2032
:1036E000C2F20000007870B3FFE740F28820C2F217
:1036F00000000068059040F27D21C2F20001002028
:1037000008700598012805D1FFE701200D90FFE71B
:10371000FFE717E00598022805D1FFE701200C908C
:10372000FFE7FFE70DE00598032806D1FFE701203A
:103730000C900D90FFE7FFE702E0FFE7FFE7FFE7F0
:10374000FFE7FFE7FFE70D9848B1FFE700200D9086
:103750006C20ADF84000EC20ADF83E0071E50C980F
:1037600048B1FFE700200C902C20ADF840006C2001
:10377000ADF83E0065E5FFE700208DF85700FFE754
:103780009DF9570016B080BD80B58AB009900998A0
:10379000406A0890FFE7FFE70898042100F0C6FCA4
:1037A0000998089903220DF11203FFF7C7F8059055
:1037B000059800285FD0FFE7059840680390BDF8A2
:1037C00012000399F03139220223FFF73DFCADF8D6
:1037D0001200BDF812000399F031099A128DFFF71B
:1037E000AFFCADF81200BDF812000399F03137229A
:1037F0000323FFF729FCADF8120000208DF81B0011
:10380000FFE79DF81B00022816D8FFE7BDF812005D
:103810000399F0319DF81B3040F21402C2F200020D
:10382000D25CFFF73BFCADF81200FFE79DF81B00F0
:1038300001308DF81B00E4E7BDF812000399F03168
:10384000059AFFF7A3FC40F27820C2F2000000685E
:103850000599099A6B461A6041F6BC32C0F601021E
:1038600043230DF03DF98DF81F00059807F054F83B
:10387000FFE7FFE705E0FFE7FFE7FF208DF81F0008
:10388000FFE708988079FE2805DCFFE7089988792A
:1038900001308871FFE708988079092807DCFFE785
:1038A000089880794FF47A714843029003E042F21D
:1038B00010700290FFE70298ADF81C00BDF81C00E4
:1038C00000F2F31044F6D351C1F2620150FB01F053
:1038D000400908990881FFE7FFE79DF91F000AB03A
:1038E00080BD000080B58CB00B900B98406A0A90A8
:1038F000FFE7FFE70A980321049100F017FC049A00
:103900000B980A990DF11A03FFF718F8079007981A
:1039100000287AD0FFE7079840680590BDF81A00A4
:103920000599F03139220223FFF78EFBADF81A001A
:10393000BDF81A000599F0314FF41072FFF700FC42
:10394000ADF81A00BDF81A000599F03132220423AF
:10395000FFF77AFBADF81A00BDF81A00039005983E
:10396000F03002900A98C06905F04EFB02990246B9
:103970000398FFF7AFFBADF81A00BDF81A000599E0
:10398000F03137220323FFF75FFBADF81A00002068
:103990008DF82300FFE79DF82300022816D8FFE7E3
:1039A000BDF81A000599F0319DF8233040F2140259
:1039B000C2F20002D25CFFF771FBADF81A00FFE71C
:1039C0009DF8230001308DF82300E4E7BDF81A00CC
:1039D0000599F031079AFFF7D9FB40F27820C2F23F
:1039E0000000006807990B9A6B461A6041F6BC32DA
:1039F000C0F6010243230DF073F88DF827000798F5
:103A000006F08AFFFFE7FFE705E0FFE7FFE7FF209B
:103A10008DF82700FFE70A988079FE2805DCFFE78C
:103A20000A99887901308871FFE70A988079092816
:103A300007DCFFE70A9880794FF47A7148430190D8
:103A400003E042F210700190FFE70198ADF8240006
:103A5000BDF8240000F2F31044F6D351C1F2620124
:103A600050FB01F040090A990881FFE7FFE79DF943
:103A700027000CB080BD000080B58CB084460E9845
:103A8000CDF82CC00A9109920893ADF81E0040F2BF
:103A90001830C2F20000406806900698406A05900F
:103AA000099840680490059820B1FFE705980079CF
:103AB00008B9FFE7DEE0FFE7FFE7FFE7FFE7FFE723
:103AC000FFE7FFE7FFE7099840892B2803DCFFE7C2
:103AD000FFE7FFE7CEE004980078022803D0FFE775
:103AE000FFE7FFE7C6E000208DF80E00FFE79DF836
:103AF0000E10069890F8302000209142019008DACC
:103B0000FFE79DF80E100020062938BF0120019024
:103B1000FFE70198C007B0B1FFE706989DF80E20B7
:103B2000104490F82A0004991144097F884203D078
:103B3000FFE7FFE7FFE79DE0FFE79DF80E0001309C
:103B40008DF80E00D3E70498406805F05DFA0599FA
:103B50000968884203D0FFE7FFE7FFE78AE009989A
:103B60000599FFF74DFB18B1FFE7FFE7FFE781E09D
:103B7000FFE7FFE740F27D20C2F20000407818B96D
:103B8000FFE7FFE7FFE775E009984068029040F221
:103B90008820C2F2000040688DF80F009DF80F00E9
:103BA000052834D1FFE7FFE7FFE7059840790128B2
:103BB00014D1FFE706980299FFF736F9069890F8B6
:103BC00031000007002804D5FFE70698FEF71EFE27
:103BD00003E00698FEF72CFDFFE717E00598407913
:103BE00003280AD0FFE705984079042805D0FFE7AD
:103BF00005984079052808D1FFE706980299FFF754
:103C000013F90698FEF714FDFFE7FFE731E09DF892
:103C10000F0006281AD1FFE70598407903280FD036
:103C2000FFE70598407901280AD0FFE70598407919
:103C3000042805D0FFE705984079052806D1FFE75D
:103C4000FFE7FFE70698FFF763F911E09DF80F0023
:103C500002280CD1FFE705984079062807D1FFE735
:103C6000FFE7FFE706980299FFF76CF9FFE7FFE728
:103C7000FFE7FFE7099806F04FFE0CB080BD00009B
:103C800080B58AB009900998406A0890FFE7FFE77D
:103C9000089808B9FFE787E00898407908B9FFE776
:103CA00082E0089880690790089900200390886155
:103CB0000899C861089908620899486208990863D8
:103CC0000899C86208998862089988820899488288
:103CD000089908820899C881099800F0DFFA00283D
:103CE00053D0FFE70898002100F020FA09980899BE
:103CF00007220DF11603FEF721FE06900698B8B3D1
:103D0000FFE7069840680490BDF816000499F0316A
:103D100036220423FFF798F9ADF81600BDF8160017
:103D200002900498F0300190079805F06DF9019920
:103D300002460298FFF7CEF9ADF81600BDF816005E
:103D40000499F031069AFFF721FA40F27820C2F286
:103D5000000000680699099A6B461A6007AA432377
:103D60000CF0BEFE069806F0D7FDFFE7FFE702E085
:103D7000FFE7FFE7FFE7099841F6B833C0F6010314
:103D800019461A4605F0E0FF04E00898002100F00B
:103D9000CDF9FFE70898007930B1FFE7FEF7ACFEF8
:103DA000089900200871FFE70AB080BD80B58AB08D
:103DB00009900998406A0890FFE7FFE708980521F5
:103DC00000F0B4F90998089903220DF11203FEF7E7
:103DD000B5FD0590059800285ED0FFE7059840687E
:103DE0000390BDF812000399F03139220223FFF746
:103DF0002BF9ADF81200BDF812000399F031099AC1
:103E0000128DFFF79DF9ADF81200BDF8120003996D
:103E1000F03137220323FFF717F9ADF81200002025
:103E20008DF81B00FFE79DF81B00022816D8FFE75E
:103E3000BDF812000399F0319DF81B3040F21402D6
:103E4000C2F20002D25CFFF729F9ADF81200FFE7D9
:103E50009DF81B0001308DF81B00E4E7BDF812004F
:103E60000399F031059AFFF791F940F27820C2F2F8
:103E7000000000680599089A1832099BEC46CCF8B6
:103E8000003043230CF02CFE8DF81F00059806F03F
:103E900043FDFFE7FFE705E0FFE7FFE7FF208DF8C1
:103EA0001F00FFE708988079FE2805DCFFE70899E6
:103EB000887901308871FFE708988079092807DC44
:103EC000FFE7089880794FF4FA614843029003E0D5
:103ED00044F620600290FFE70298ADF81C00BDF8A0
:103EE0001C0000F2F31044F6D351C1F2620150FB02
:103EF00001F0400908990881FFE7FFE79DF91F00DD
:103F00000AB080BD80B590B00E90FFE70E9860B902
:103F1000FFE7FFE742F26020C0F60100FCF70AFA73
:103F2000FFE7F0208DF83F00FBE0FFE70E98406AC6
:103F30000D90FFE70D9860B9FFE7FFE742F2B1206F
:103F4000C0F60100FCF7F6F9FFE7FA208DF83F0014
:103F5000E7E0FFE7FFE7FFE70D98012100F0E6F853
:103F60000E980D9903220DF12603FEF7E7FC0A9047
:103F70000A98002800F09D80FFE70A9840680890A2
:103F8000BDF826000899F03139220223FFF75CF8CA
:103F9000ADF82600BDF826000899F0310E9A128D72
:103FA000FFF7CEF8ADF82600BDF826000899F031ED
:103FB000322204230593FFF747F8ADF82600BDF839
:103FC000260004900898F03003900D98C06905F021
:103FD0001BF8039902460498FFF77CF8059BADF89F
:103FE0002600BDF826000899F0313622FFF72CF89C
:103FF000ADF82600BDF8260007900898F03006902E
:104000000D98806905F000F8069902460798FFF7B9
:1040100061F8ADF82600BDF826000899F031372286
:104020000323FFF711F8ADF8260000208DF82F00CC
:10403000FFE79DF82F00022816D8FFE7BDF82600FD
:104040000899F0319DF82F3040F21402C2F20002BC
:10405000D25CFFF723F8ADF82600FFE79DF82F00AC
:1040600001308DF82F00E4E7BDF826000899F03103
:104070000A9AFFF78BF840F27820C2F2000000683D
:104080000A990E9A41F6B83CC0F6010C6B46C3F88B
:1040900004C01A6041F6BC32C0F6010243230CF0A2
:1040A000A3FD8DF833000A9806F036FCFFE7FFE722
:1040B00005E0FFE7FFE7FF208DF83300FFE70D98ED
:1040C0008079FE2805DCFFE70D9988790130887139
:1040D000FFE70D988079052806DCFFE70D988179C8
:1040E00001208840029002E03C200290FFE7029805
:1040F0004FF47A714843ADF83000BDF8300000F25B
:10410000F31044F6D351C1F2620150FB01F04009B3
:104110000D990881FFE7FFE79DF833008DF83F0018
:10412000FFE79DF93F0010B080BD000082B0019014
:104130008DF803109DF803000199497988420AD04F
:10414000FFE79DF8030001994871019900208871EB
:1041500001990881FFE702B07047000080B584B084
:104160000290FFE7029860B9FFE7FFE742F26D2097
:10417000C0F60100FCF7DEF8FFE7F0208DF80F0035
:1041800088E0FFE7FFE7029890F83100C00718B118
:10419000FFE7012078B902E0002060B9FFE7FFE700
:1041A00042F20720C0F60100FCF7C4F8FFE7F02058
:1041B0008DF80F006EE0FFE70298406A0190FFE77C
:1041C000FFE70298008DB0F5107F06DAFFE7FFE702
:1041D000FFE7FF208DF80F005CE00198A8B9FFE72A
:1041E000FFE7FFE7342005F0C1F80190019830B9EE
:1041F000FFE7FFE7FFE7FF208DF80F004AE0019897
:1042000002994862FFE7FFE709E0FFE7FFE701984F
:10421000007918B1FFE7FEF76FFCFFE7FFE70198B1
:104220003421FCF745F9FFE7FFE7FEF7B9FE20B1BF
:10423000FFE7FF208DF80F002CE0019901200871A5
:10424000029890F831004007002803D5FFE70120CD
:1042500058B902E0002040B9FFE701980221FFF7BA
:1042600065FF00208DF80F0014E00298FEF7ECFCCB
:104270008DF803009DF9030038B1FFE70298FFF7BE
:10428000FFFCFF208DF80F0004E09DF803008DF87F
:104290000F00FFE79DF90F0004B080BD84B00290CD
:1042A000029818B3FFE70298406AF8B1FFE7029856
:1042B000406A01900198417901200A2900900FD0AD
:1042C000FFE70198417901200529009008D0FFE718
:1042D000019840790438B0FA80F040090090FFE777
:1042E000009800F001008DF80F0003E000208DF829
:1042F0000F00FFE79DF80F0004B0704780B582B053
:1043000001900198406A0090FFE7FFE7009840792C
:1043100001280AD0FFE7009840790A2805D0FFE776
:1043200000984079052819D1FFE7FFE7FFE70198DA
:10433000FFF73CFD00998889498A401A00EBD0704C
:104340004010012809DBFFE7009988894A8A801A12
:1043500000EBD0704008C881FFE7FFE702B080BDE6
:1043600080B582B001900198406A0090FFE7FFE7B6
:104370000098407901280FD0FFE7009840790A287B
:104380000AD0FFE700984079052805D0FFE700989C
:104390004079042819D1FFE7FFE7FFE70198FFF70D
:1043A000F3F90099888A498A401A00EBD0704010CE
:1043B000012809DBFFE70099888A4A8A801A00EB06
:1043C000D07040080882FFE7FFE702B080BD000020
:1043D00080B582B001900198406A0090FFE7FFE746
:1043E000009840790C2805D0FFE70098407906280E
:1043F00006D1FFE7FFE7FFE70198FEF725FC44E061
:1044000000984079012815D1FFE7FFE7FFE7009802
:104410008079052804DCFFE70198FFF773FD08E0C9
:10442000FFE7FFE70198FFF72BFC0198FFF796FEE7
:10443000FFE729E000984079082810D1FFE7FFE75F
:10444000FFE700988079012804DCFFE70198FEF778
:10445000DDF903E00198FEF7EBF8FFE713E00098C1
:10446000407903280ED1FFE700988079012804DC09
:10447000FFE70198FFF736FA03E00198FEF7E4FB47
:10448000FFE7FFE7FFE7FFE7FFE702B080BD0000BF
:1044900083B002900191FFE79DF80400800708B106
:1044A000FFE7FFE7FFE7019800900298C068006807
:1044B0000099086000980299C968086003B07047C5
:1044C00083B001900198C06800680090009880B1A6
:1044D000FFE7009800680199C9680860FFE79DF848
:1044E0000000800708B1FFE7FFE7FFE700980290B0
:1044F00005E0FFE7FFE7FFE700200290FFE70298F3
:1045000003B0704781B00020009048F20002C4F26E
:10451000020211680091009948F20F13CFF6305350
:10452000194000910099116048F20401C4F202019F
:10453000086048F20801C4F20201086048F20C0168
:10454000C4F20201086048F21802C4F202021168C3
:10455000009100994FF6417319400091009941F084
:10456000800100910099116048F21C01C4F202011F
:10457000086049F21801C4F202010868009000982E
:1045800043F62372CFF6DE0210400090009840F010
:10459000087000900098086049F20001C4F202011E
:1045A0000868009000987D22CFF60002104000902D
:1045B00046F20000C0F2C12000900098086001B0EF
:1045C0007047000080B582B040F21940019006F0BB
:1045D0000DFD019806F0F6FC00F08CFE02B080BDE7
:1045E00082B001900020009001980090FFE70098B1
:1045F00028B1FFE7FFE7009801380090F7E702B025
:104600007047000084B003908DF80B104FF0FF301E
:1046100001909DF80B0001460091052843D80099B0
:10462000DFE801F03B370F030933039840686FF36D
:104630005F30019038E003984068C0F30C4001906F
:1046400032E003980068C0F30D40019001980528FE
:1046500017D3FFE701980438019048F20000C4F234
:1046600002000068800100280AD5FFE7039800785F
:104670008006002804D5FFE7019804300190FFE789
:1046800002E000200190FFE70EE0039880680190AF
:104690000AE003988068019006E003980068C0F380
:1046A000C300019000E0FFE7019804B070470000EC
:1046B00089B0089000200790069005900490039020
:1046C0000898B0F5E00F1FD1FFE74DF26C70C2F211
:1046D000000001904BF6A810C2F2000000900520E7
:1046E000069040F2F45005904FF480100490019829
:1046F00049F21001C4F202010860019840F2B421AD
:10470000C2F20001086021E04BF69400C2F2000002
:10471000019049F6D020C2F20000009005200690DA
:1047200040F2F45005904FF00040049044F2F450F1
:104730000390019849F20C01C4F20201086001984B
:1047400040F2B021C2F200010860FFE740F2A82168
:10475000C2F200010020086040F2AC21C2F2000168
:1047600008600790FFE707980699884229D2FFE77B
:104770000198079900EB01100290049802990860D3
:10478000039802994860009A0798059900FB012058
:1047900002998860079806990139884208D2FFE794
:1047A0000198079900EB011010300299C86003E0EE
:1047B00001980299C860FFE7FFE70798013007906A
:1047C000D1E709B07047000080B501F0E1F800F0D2
:1047D0006FFF80BD85B00390029100200190009092
:1047E00040F2B020C2F200000068C0780006002845
:1047F00004D5FFE700208DF81300C6E003980028D9
:1048000068D0FFE740F2B020C2F2000000684078B4
:104810000006002859D4FFE740F2B020C2F20000A1
:1048200000684078C00700284FD0FFE740F2B02072
:10483000C2F20000006840788007002845D5FFE7F5
:1048400040F2B020C2F2000000680068C0F30D40E2
:10485000009000980438009048F20000C4F2020072
:104860000068800100280ED5FFE740F2B020C2F2B8
:104870000000006800788006002804D5FFE7009853
:1048800004300090FFE700980299884204D9FFE7BE
:1048900000208DF8130078E000200190FFE70198D8
:1048A0000099884210D2FFE740F2B020C2F2000027
:1048B000006880680199405C0399019A8854FFE779
:1048C000019801300190EAE703E000208DF8130021
:1048D0005BE0FFE740F2B020C2F2000001684FF059
:1048E0000040086049F21400C4F2020000680006AB
:1048F00000280DD5FFE749F21401C4F2020180201F
:10490000086049F20801C4F2020100200860FFE7D4
:1049100040F2B020C2F20000006840794006002852
:1049200008D5FFE740F2B021C2F200010868C06874
:10493000086026E040F2B020C2F200000068407932
:10494000000600280BD5FFE749F20C00C4F2020074
:10495000006840F2B021C2F20001086010E040F2AD
:10496000B021C2F20001086849F20002C4F202025A
:10497000126802F07C0200EB920010300860FFE742
:10498000FFE701208DF81300FFE79DF8130005B045
:104990007047000086B0049003910020029040F21E
:1049A000B420C2F200000068C0780006002804D5D8
:1049B000FFE700208DF8170093E0039840F2F551CF
:1049C000884204D3FFE700208DF8170089E004989F
:1049D000C0B1FFE700200290FFE7029803998842E8
:1049E0000FD2FFE70498029A805C40F2B421C2F231
:1049F0000001096889688854FFE702980130029035
:104A0000EBE7FFE7039940F2B420C2F2000002682E
:104A100051600268116841F04051116001680868F6
:104A200040F00040086049F21400C4F2020001683E
:104A300001F004010191006800F02000009001984D
:104A400018B9FFE7009878B1FFE70198009908438B
:104A500049F21401C4F20201086049F20401C4F2EF
:104A6000020100200860FFE740F2B420C2F200001B
:104A700000688078C006002808D5FFE740F2B4211E
:104A8000C2F200010868C068086026E040F2B42065
:104A9000C2F2000000688078800600280BD5FFE78E
:104AA00049F21000C4F20200006840F2B421C2F2E0
:104AB0000001086010E040F2B421C2F20001086871
:104AC00049F20002C4F20202126802F07C0200EB1A
:104AD000920010300860FFE7FFE701208DF8170013
:104AE000FFE79DF8170006B07047000080B58EB054
:104AF0004FF4406006F052FA40F6014006F04EFADC
:104B000040F6024006F04AFA40F6034006F046FA44
:104B100041F20E1006F042FA4FF4C0004FF0C061AF
:104B200006F074F94FF4000006F08AFB0020C4F28E
:104B3000020001900022079202230993194602F015
:104B4000F1F801980799099B0322089202F038F9BD
:104B50000198079A09990423009302F0E3F8009B57
:104B600001980799089A02F02BF90198079A099978
:104B70008023029302F0D6F80198029B0799089AC5
:104B800002F01EF90198099A0B210C9102F058F8D5
:104B9000009A01980C9902F053F80198029A0C9926
:104BA00002F04EF8079A099940F20040C4F2020060
:104BB00005904FF40063039302F0B4F8039B05984B
:104BC0000799089A02F0FCF80598079A09994FF49A
:104BD0000053049302F0A6F8049B05980799089ADD
:104BE00002F0EEF80598079A09994FF4805306935E
:104BF00002F098F80598069B0799089A02F0E0F8E9
:104C0000039A05980C9902F01BF8049A05980C99E0
:104C100002F016F80598069A0C9902F011F8079A16
:104C2000099B40F60000C4F202000B90194602F006
:104C300079F80799089A099B0B9802F0C1F8079A2E
:104C400009990B9810230A9302F06CF80799089AB7
:104C50000A9B0B9802F0B4F8079A09990B98202345
:104C60000D9302F05FF80799089A0B980D9B02F0DC
:104C7000A7F8099A0B980C9901F0E2FF0A9A0B9891
:104C80000C9901F0DDFF0B980C990D9A01F0D8FFFB
:104C90000EB080BD80B58CB0ADF82C000A910992A1
:104CA0000020029008900790069005900490ADF8BF
:104CB0000E008DF80D008DF80C0000F0ADFB80B9F2
:104CC000FFE74FF6FF70C0F28F00FFF789FC00F09E
:104CD000A3FB28B9FFE79DF80C008DF82F0004E333
:104CE000FFE7FFF70FFCBDF82C00059005980128A1
:104CF00040F0B380FFE7FFE7002001220DF10E0333
:104D0000114600F051FCBDF80E0000F00400ADF8B3
:104D10000E00049801300490FFE7BDF80E1000204B
:104D2000019059B9FFE704994FF6FF72C0F20402EF
:104D30000020914238BF01200190FFE70198C00791
:104D40000028D9D1FFE704984FF6FF71C0F20401A3
:104D5000884205D1FFE79DF80C008DF82F00C4E2D2
:104D6000002204924FF48050ADF80E000220012181
:104D70000DF10E0300F018FC8DF80D009DF80D00EC
:104D800028B9FFE79DF80C008DF82F00ADE2FFE792
:104D9000002001220DF10E03114600F005FCBDF8C4
:104DA0000E0000F02000ADF80E00049801300490D1
:104DB000FFE7BDF80E100020009059B9FFE70499F5
:104DC0004FF6FF72C0F204020020914238BF01206A
:104DD0000090FFE70098C0070028D9D1FFE70498AA
:104DE0004FF6FF71C0F20401884205D1FFE79DF83C
:104DF0000C008DF82F0078E20020049001211E2283
:104E00000DF10E0300F0D0FBBDF80E0040070028A6
:104E100004D5FFE74FF40060059002E00020059004
:104E2000FFE7BDF80E00C00708B1FFE704E00598F2
:104E300040F480400590FFE748F20001C4F202010F
:104E400008680890089820F4B0400890059A0898DF
:104E5000104308900898086002E003F031FDFFE776
:104E60009DF82900400700281BD5FFE748F2000104
:104E7000C4F20201086840F48060086049F2180139
:104E8000C4F2020108680890089820F08060089039
:104E90000A9800F08062089810430890089808600B
:104EA000FFE7099A48F20401C4F2020108681043BE
:104EB000086040F2BC20C2F200000078C007C8B30E
:104EC000FFE740F2BC20C2F200004068079048F2C1
:104ED0000001C4F20201086808900798069008983B
:104EE0004FF67F72CFF6FF5210400890069880224E
:104EF000C0F2002210400690069A089810430890CD
:104F00000898086049F21801C4F202010868089084
:104F100007980690089820F0C0000890069800F4C2
:104F200040700690069A089840EA92000890089807
:104F30000860FFE740F2BC20C2F200000078800762
:104F400000281AD5FFE740F2BC20C2F200008068BA
:104F5000069049F20001C4F202010868089008981E
:104F60004FF6FF72CFF6FE0210400890069A08989E
:104F70001043089008980860FFE740F2BC20C2F296
:104F800000000078400700281AD5FFE740F2BC2057
:104F9000C2F20000C068069049F20001C4F20201AA
:104FA0000868089008984CF2FF02CFF60172104092
:104FB0000890069A08981043089008980860FFE740
:104FC00040F2BC20C2F2000000780007002818D58B
:104FD000FFE740F2BC20C2F200000069069049F2EF
:104FE0000001C4F202010868089008984CF202021D
:104FF00090430890069A0898104308900898086013
:10500000FFE740F2BC20C2F200000078C006002892
:105010001AD5FFE740F2BC20C2F2000040690690BA
:1050200049F21801C4F2020108680890089843F692
:10503000E772CFF6DE5210400890069A08981043A7
:10504000089008980860FFE740F2BC20C2F2000018
:1050500000788006002838D5FFE740F2BC20C2F275
:1050600000008069079049F21801C4F20201086843
:1050700008900798069008984FF6FB72CFF6FF62EB
:105080001040089006980422C0F2001210400690CA
:10509000069A0898104308900898086049F20001A1
:1050A000C4F202010868089007980690089820F05A
:1050B00080000890069800F080000690069A0898F4
:1050C0001043089008980860FFE740F2BC20C2F245
:1050D000000000784006002817D5FFE740F2BC200A
:1050E000C2F20000C069079048F21C01C4F202013C
:1050F0000868089008986FF310000890079A0898BD
:105100001043089008980860FFE740F2BC20C2F204
:10511000000000780006002834D5FFE740F2BC20EC
:10512000C2F20000006A079048F21801C4F20201BE
:10513000086808900798069008984FF6417210404A
:105140000890069890430690069A08981043089095
:105150000898086049F28001C4F2020108680890CA
:1051600007980690089820F077000890069800F4B9
:10517000EE400690069A089840EA12200890089897
:105180000860FFE740F2BC20C2F200004078C00790
:1051900058B1FFE740F2BC20C2F20000406A48F27A
:1051A0000801C4F202010860FFE740F2BC20C2F22D
:1051B00000004078800700280BD5FFE740F2BC20B4
:1051C000C2F20000806A48F20C01C4F202010860D9
:1051D000FFE740F2BC20C2F2000040784007002800
:1051E00018D5FFE740F2BC20C2F20000C06A079069
:1051F00048F20401C4F2020108680890089840F2DD
:10520000DE7290430890079A089810430890089817
:105210000860FFE740F2BC20C2F2000040780007BF
:1052200000281AD5FFE740F2BC20C2F20000006B54
:10523000079048F20001C4F202010868089008983B
:105240004DF68F52CFF6FE7210400890079A0898DC
:105250001043089008980860FFE740F2BC20C2F2B3
:1052600000004078C006002817D5FFE740F2BC20B8
:10527000C2F20000406B079048F20001C4F2020144
:1052800008680890089820F440000890079A089849
:105290001043089008980860FFE740F2BC20C2F273
:1052A000000040788006002817D5FFE740F2BC20B8
:1052B000C2F20000806B079048F20001C4F20201C4
:1052C00008680890089820F460200890079A0898C9
:1052D0001043089008980860FFE701208DF80C0043
:1052E0009DF80C008DF82F00FFE79DF82F000CB003
:1052F00080BD000040F2BC21C2F200010020086025
:1053000048608860C860086148618861C861086257
:1053100048628862C8620863486388637047000017
:1053200081B00090009941F21C00B0EB911F0FD1A9
:10533000FFE7009800F01F02012101FA02F3810942
:1053400048F20002C4F202028858184388500EE066
:10535000009800F01F02012101FA02F3810948F2CE
:105360000002C4F20202885898438850FFE701B057
:105370007047000081B00090009901F01F020120E9
:105380009040890948F20002C4F20202885001B03C
:105390007047000082B08DF8070000910098808867
:1053A0009DF8071048F24002C4F2020288500098AB
:1053B00000689DF8071048F24402C4F202028850C7
:1053C00002B0704780B582B000208DF8070040F62B
:1053D000194005F0E3FD40F61A4005F0DFFD40F608
:1053E0001B4005F0DBFDFFF7EDF800F075FA8DF8D6
:1053F00007009DF8070010B9FFE7FFE7FEE74FF44D
:10540000904000221146FFF745FC40F2B821C2F25D
:105410000001086002B080BD80B584B000208DF826
:10542000010048F21000C4F20200006801900198E7
:1054300020F01C000190012005F0FEFC0290029873
:1054400042F60051C0F2311188420DD3FFE70298B5
:1054500040F6BF61C0F21621884205D8FFE70198E7
:1054600040F00800019060E0029840F6C061C0F290
:10547000162188420DD3FFE7029848F2FF61C0F27F
:105480009331884205D8FFE7019840F00C00019065
:105490004AE0029848F20071C0F29331884209D381
:1054A000FFE702984EF2FF01C0F2F551884201D8A1
:1054B000FFE738E002984EF20011C0F2F551884241
:1054C0000DD3FFE702984DF27F11C0F6F00188423C
:1054D00005D8FFE7019840F00400019022E002980F
:1054E0004DF28011C0F6F001884208D3FFE7029820
:1054F00041F60041C0F64E61884208D3FFE70298AA
:1055000041F60041C0F64E61884205D1FFE701989F
:1055100040F01000019004E09DF801008DF80F00AC
:105520003EE0FFE7FFE7FFE7FFE7019848F21001E1
:10553000C4F2020108604FF40040ADF802000220FE
:10554000012100220DF1020300F02EF828B9FFE737
:105550009DF801008DF80F0022E04FF6FF70C0F2B9
:105560000400FFF73DF8012100220DF1020310466F
:1055700000F01AF828B9FFE79DF801008DF80F0038
:105580000EE0BDF802000004002804D4FFE701206B
:105590008DF80100FFE79DF801008DF80F00FFE78F
:1055A0009DF80F0004B080BD88B08DF81F00ADF8E5
:1055B0001C10ADF81A200593002002908DF807000A
:1055C00048F21000C4F202000068049004984FF6FC
:1055D000C371884304909DF81F00BDF81A1001F0B4
:1055E0001F0140EA8110BDF81C1001F01F0140EAC4
:1055F000C1200499084340F0010004909DF81F0069
:10560000022808D1FFE70598008848F21401C4F287
:1056100002010860FFE7049848F21001C4F2020199
:105620000860FFE748F21000C4F20200006800F0D2
:1056300001000390029801300290FFE703990020D7
:10564000009051B1FFE702984FF6FF71C0F20401DC
:10565000401A18BF01200090FFE70098C0070028FB
:10566000E0D1FFE748F21000C4F202000068C00772
:1056700020B9FFE701208DF80700FFE79DF81F0024
:1056800040B9FFE748F21400C4F20200006805992F
:105690000880FFE79DF8070008B0704781B00090D0
:1056A0000099486820F00040486001B07047000051
:1056B00048F20001C4F20201086840F004000860EA
:1056C00049F21801C4F20201086840F002000860C3
:1056D0007047000040F2B020C2F2000002684FF0B4
:1056E00000411160006840794006002830D5FFE78E
:1056F00040F2A820C2F20000006800B3FFE740F2C9
:10570000A820C2F200000168C96840F2B022C2F2CB
:10571000000211600068006840B1FFE740F2A82174
:10572000C2F2000108680068086007E040F2A821A2
:10573000C2F20001086810300860FFE707E040F29D
:10574000B021C2F200010868C0680860FFE744E0C9
:1057500040F2B020C2F20000006840790006002844
:105760001AD5FFE749F20C00C4F20200006840F2CB
:10577000B021C2F20001086040F2A820C2F200008D
:10578000006840B1FFE740F2A821C2F200010868BA
:1057900000680860FFE71FE040F2B021C2F200019C
:1057A000086849F20002C4F20202126802F07C02A8
:1057B00000EB92001030086040F2A820C2F2000016
:1057C000006840B1FFE740F2A821C2F2000108687A
:1057D00010300860FFE7FFE7FFE7704780B584B04F
:1057E0000020029040F2B020C2F200000068006881
:1057F00001909DF807000006002803D5FFE7002070
:10580000039066E09DF80500000600280BD4FFE732
:105810009DF80500C00730B1FFE79DF8050080073F
:10582000002805D4FFE7FFF755FF0120039050E063
:105830009DF80400800600280AD5FFE79DF80400C3
:10584000C00728B1FFE7FFF745FF0120039040E0C4
:105850009DF80700000600282CD4FFE79DF80500FE
:105860000006002826D4FFE79DF80500C00708B30E
:10587000FFE79DF80500800700281BD5FFE701988A
:10588000C0F30D40029002980438029048F20000E4
:10589000C4F202000068800100280AD5FFE79DF8E5
:1058A00004008006002804D5FFE702980430029027
:1058B000FFE70BE040F2F821C2F200010868013076
:1058C0000860FFF707FF0120039002E002980390B1
:1058D000FFE7039804B080BD84B0002003908DF8EA
:1058E0000B0049F20001C4F20201086840F0010017
:1058F0000860FFE749F20000C4F20200006800F00F
:1059000001000190039801300390FFE70199002006
:10591000009051B1FFE703984FF6FF71C0F2040108
:10592000401A18BF01200090FFE70098C007002828
:10593000E0D1FFE749F20000C4F202000068C007AE
:1059400020B9FFE701208DF80B00FFE79DF80B0061
:1059500004B0704780B504F099FAFFF7C7F8FFF775
:1059600031FD40F2B820C2F20000006810B9FFE734
:10597000FFE7FEE740F21070C0F20400FFF7D0FC32
:1059800040F20670C0F20400FFF7CAFC80BD0000C0
:1059900080B548F20001C4F20201086840F0080036
:1059A000086000F009F849F21801C4F20201086821
:1059B00040F40050086080BD84B0002002908DF853
:1059C000070049F21801C4F20201086840F480108F
:1059D0000860FFE749F21800C4F20200006800F412
:1059E00080100390029801300290FFE70399002095
:1059F000009059B1FFE702994FF6FF72C0F204021E
:105A00000020914238BF01200090FFE70098C007B6
:105A10000028DFD1FFE7039820B9FFE701208DF8C8
:105A20000700FFE79DF8070004B0704780B58AB013
:105A300008908DF81F1006920A21ADF81610ADF8E7
:105A40001410ADF812100020ADF81000ADF80E10D3
:105A5000ADF80C00ADF80A00ADF80800ADF8100084
:105A6000FFE7BDF91000092800F3E780FFE7BDF963
:105A7000100000EB400140F28010C2F2000000EB89
:105A8000C100007D8DF80700BDF912000A280BD176
:105A9000FFE79DF8070038B9FFE7FFE7FFE7BDF82C
:105AA0001000ADF81200C1E09DF80700002800F0DA
:105AB000BC80FFE7FFE79DF80700012806D0FFE75D
:105AC0009DF80700012801DCFFE7FFE7FFE70898E2
:105AD00048B3FFE708980068BDF9101001EB4102D8
